{
    "contractName": "Nolandia",
    "abi": [
        {
            "inputs": [
                {
                    "internalType": "address[]",
                    "name": "_payees",
                    "type": "address[]"
                },
                {
                    "internalType": "uint256[]",
                    "name": "_shares",
                    "type": "uint256[]"
                },
                {
                    "internalType": "string",
                    "name": "initialBaseUri",
                    "type": "string"
                },
                {
                    "internalType": "address",
                    "name": "newOwner",
                    "type": "address"
                }
            ],
            "stateMutability": "payable",
            "type": "constructor"
        },
        {
            "anonymous": false,
            "inputs": [
                {
                    "indexed": true,
                    "internalType": "address",
                    "name": "owner",
                    "type": "address"
                },
                {
                    "indexed": true,
                    "internalType": "address",
                    "name": "approved",
                    "type": "address"
                },
                {
                    "indexed": true,
                    "internalType": "uint256",
                    "name": "tokenId",
                    "type": "uint256"
                }
            ],
            "name": "Approval",
            "type": "event"
        },
        {
            "anonymous": false,
            "inputs": [
                {
                    "indexed": true,
                    "internalType": "address",
                    "name": "owner",
                    "type": "address"
                },
                {
                    "indexed": true,
                    "internalType": "address",
                    "name": "operator",
                    "type": "address"
                },
                {
                    "indexed": false,
                    "internalType": "bool",
                    "name": "approved",
                    "type": "bool"
                }
            ],
            "name": "ApprovalForAll",
            "type": "event"
        },
        {
            "anonymous": false,
            "inputs": [
                {
                    "indexed": true,
                    "internalType": "address",
                    "name": "previousOwner",
                    "type": "address"
                },
                {
                    "indexed": true,
                    "internalType": "address",
                    "name": "newOwner",
                    "type": "address"
                }
            ],
            "name": "OwnershipTransferred",
            "type": "event"
        },
        {
            "anonymous": false,
            "inputs": [
                {
                    "indexed": true,
                    "internalType": "uint256",
                    "name": "plotId",
                    "type": "uint256"
                },
                {
                    "indexed": false,
                    "internalType": "uint8[]",
                    "name": "imageData",
                    "type": "uint8[]"
                }
            ],
            "name": "PlotPixelsSet",
            "type": "event"
        },
        {
            "anonymous": false,
            "inputs": [
                {
                    "indexed": true,
                    "internalType": "uint256",
                    "name": "plotId",
                    "type": "uint256"
                },
                {
                    "indexed": false,
                    "internalType": "address",
                    "name": "plotOwner",
                    "type": "address"
                },
                {
                    "indexed": false,
                    "internalType": "uint8",
                    "name": "x1",
                    "type": "uint8"
                },
                {
                    "indexed": false,
                    "internalType": "uint8",
                    "name": "y1",
                    "type": "uint8"
                },
                {
                    "indexed": false,
                    "internalType": "uint8",
                    "name": "x2",
                    "type": "uint8"
                },
                {
                    "indexed": false,
                    "internalType": "uint8",
                    "name": "y2",
                    "type": "uint8"
                },
                {
                    "indexed": false,
                    "internalType": "uint256",
                    "name": "sparkles",
                    "type": "uint256"
                },
                {
                    "indexed": false,
                    "internalType": "string",
                    "name": "mineral",
                    "type": "string"
                },
                {
                    "indexed": false,
                    "internalType": "string",
                    "name": "landType",
                    "type": "string"
                },
                {
                    "indexed": false,
                    "internalType": "string",
                    "name": "megafaunaType",
                    "type": "string"
                }
            ],
            "name": "PlotPurchased",
            "type": "event"
        },
        {
            "anonymous": false,
            "inputs": [
                {
                    "indexed": true,
                    "internalType": "address",
                    "name": "from",
                    "type": "address"
                },
                {
                    "indexed": true,
                    "internalType": "address",
                    "name": "to",
                    "type": "address"
                },
                {
                    "indexed": true,
                    "internalType": "uint256",
                    "name": "tokenId",
                    "type": "uint256"
                }
            ],
            "name": "Transfer",
            "type": "event"
        },
        {
            "inputs": [
                {
                    "internalType": "address",
                    "name": "to",
                    "type": "address"
                },
                {
                    "internalType": "uint256",
                    "name": "tokenId",
                    "type": "uint256"
                }
            ],
            "name": "approve",
            "outputs": [],
            "stateMutability": "nonpayable",
            "type": "function"
        },
        {
            "inputs": [
                {
                    "internalType": "address",
                    "name": "owner",
                    "type": "address"
                }
            ],
            "name": "balanceOf",
            "outputs": [
                {
                    "internalType": "uint256",
                    "name": "",
                    "type": "uint256"
                }
            ],
            "stateMutability": "view",
            "type": "function"
        },
        {
            "inputs": [
                {
                    "internalType": "uint8",
                    "name": "x1",
                    "type": "uint8"
                },
                {
                    "internalType": "uint8",
                    "name": "y1",
                    "type": "uint8"
                },
                {
                    "internalType": "uint8",
                    "name": "x2",
                    "type": "uint8"
                },
                {
                    "internalType": "uint8",
                    "name": "y2",
                    "type": "uint8"
                }
            ],
            "name": "buyPlot",
            "outputs": [
                {
                    "internalType": "uint256",
                    "name": "",
                    "type": "uint256"
                }
            ],
            "stateMutability": "payable",
            "type": "function"
        },
        {
            "inputs": [],
            "name": "closePreMint",
            "outputs": [],
            "stateMutability": "nonpayable",
            "type": "function"
        },
        {
            "inputs": [],
            "name": "contractURI",
            "outputs": [
                {
                    "internalType": "string",
                    "name": "",
                    "type": "string"
                }
            ],
            "stateMutability": "view",
            "type": "function"
        },
        {
            "inputs": [
                {
                    "internalType": "uint256",
                    "name": "tokenId",
                    "type": "uint256"
                }
            ],
            "name": "getApproved",
            "outputs": [
                {
                    "internalType": "address",
                    "name": "",
                    "type": "address"
                }
            ],
            "stateMutability": "view",
            "type": "function"
        },
        {
            "inputs": [
                {
                    "internalType": "address",
                    "name": "owner",
                    "type": "address"
                },
                {
                    "internalType": "address",
                    "name": "operator",
                    "type": "address"
                }
            ],
            "name": "isApprovedForAll",
            "outputs": [
                {
                    "internalType": "bool",
                    "name": "",
                    "type": "bool"
                }
            ],
            "stateMutability": "view",
            "type": "function"
        },
        {
            "inputs": [],
            "name": "name",
            "outputs": [
                {
                    "internalType": "string",
                    "name": "",
                    "type": "string"
                }
            ],
            "stateMutability": "view",
            "type": "function"
        },
        {
            "inputs": [],
            "name": "owner",
            "outputs": [
                {
                    "internalType": "address",
                    "name": "",
                    "type": "address"
                }
            ],
            "stateMutability": "view",
            "type": "function"
        },
        {
            "inputs": [
                {
                    "internalType": "uint256",
                    "name": "tokenId",
                    "type": "uint256"
                }
            ],
            "name": "ownerOf",
            "outputs": [
                {
                    "internalType": "address",
                    "name": "",
                    "type": "address"
                }
            ],
            "stateMutability": "view",
            "type": "function"
        },
        {
            "inputs": [
                {
                    "internalType": "uint256",
                    "name": "",
                    "type": "uint256"
                },
                {
                    "internalType": "uint256",
                    "name": "",
                    "type": "uint256"
                }
            ],
            "name": "parcels",
            "outputs": [
                {
                    "internalType": "uint256",
                    "name": "",
                    "type": "uint256"
                }
            ],
            "stateMutability": "view",
            "type": "function"
        },
        {
            "inputs": [
                {
                    "internalType": "uint256",
                    "name": "",
                    "type": "uint256"
                }
            ],
            "name": "plots",
            "outputs": [
                {
                    "internalType": "uint8",
                    "name": "x1",
                    "type": "uint8"
                },
                {
                    "internalType": "uint8",
                    "name": "y1",
                    "type": "uint8"
                },
                {
                    "internalType": "uint8",
                    "name": "x2",
                    "type": "uint8"
                },
                {
                    "internalType": "uint8",
                    "name": "y2",
                    "type": "uint8"
                },
                {
                    "internalType": "uint256",
                    "name": "plotId",
                    "type": "uint256"
                },
                {
                    "internalType": "address",
                    "name": "plotOwner",
                    "type": "address"
                }
            ],
            "stateMutability": "view",
            "type": "function"
        },
        {
            "inputs": [
                {
                    "internalType": "uint8",
                    "name": "x1",
                    "type": "uint8"
                },
                {
                    "internalType": "uint8",
                    "name": "y1",
                    "type": "uint8"
                },
                {
                    "internalType": "uint8",
                    "name": "x2",
                    "type": "uint8"
                },
                {
                    "internalType": "uint8",
                    "name": "y2",
                    "type": "uint8"
                }
            ],
            "name": "preMintPlot",
            "outputs": [
                {
                    "internalType": "uint256",
                    "name": "",
                    "type": "uint256"
                }
            ],
            "stateMutability": "nonpayable",
            "type": "function"
        },
        {
            "inputs": [],
            "name": "renounceOwnership",
            "outputs": [],
            "stateMutability": "nonpayable",
            "type": "function"
        },
        {
            "inputs": [
                {
                    "internalType": "uint256",
                    "name": "_tokenId",
                    "type": "uint256"
                },
                {
                    "internalType": "uint256",
                    "name": "_salePrice",
                    "type": "uint256"
                }
            ],
            "name": "royaltyInfo",
            "outputs": [
                {
                    "internalType": "address",
                    "name": "",
                    "type": "address"
                },
                {
                    "internalType": "uint256",
                    "name": "",
                    "type": "uint256"
                }
            ],
            "stateMutability": "view",
            "type": "function"
        },
        {
            "inputs": [
                {
                    "internalType": "address",
                    "name": "from",
                    "type": "address"
                },
                {
                    "internalType": "address",
                    "name": "to",
                    "type": "address"
                },
                {
                    "internalType": "uint256",
                    "name": "tokenId",
                    "type": "uint256"
                }
            ],
            "name": "safeTransferFrom",
            "outputs": [],
            "stateMutability": "nonpayable",
            "type": "function"
        },
        {
            "inputs": [
                {
                    "internalType": "address",
                    "name": "from",
                    "type": "address"
                },
                {
                    "internalType": "address",
                    "name": "to",
                    "type": "address"
                },
                {
                    "internalType": "uint256",
                    "name": "tokenId",
                    "type": "uint256"
                },
                {
                    "internalType": "bytes",
                    "name": "_data",
                    "type": "bytes"
                }
            ],
            "name": "safeTransferFrom",
            "outputs": [],
            "stateMutability": "nonpayable",
            "type": "function"
        },
        {
            "inputs": [
                {
                    "internalType": "address",
                    "name": "operator",
                    "type": "address"
                },
                {
                    "internalType": "bool",
                    "name": "approved",
                    "type": "bool"
                }
            ],
            "name": "setApprovalForAll",
            "outputs": [],
            "stateMutability": "nonpayable",
            "type": "function"
        },
        {
            "inputs": [
                {
                    "internalType": "string",
                    "name": "newBaseUri",
                    "type": "string"
                }
            ],
            "name": "setBaseURI",
            "outputs": [],
            "stateMutability": "nonpayable",
            "type": "function"
        },
        {
            "inputs": [
                {
                    "internalType": "address[]",
                    "name": "_payees",
                    "type": "address[]"
                },
                {
                    "internalType": "uint256[]",
                    "name": "_shares",
                    "type": "uint256[]"
                }
            ],
            "name": "setPayees",
            "outputs": [],
            "stateMutability": "nonpayable",
            "type": "function"
        },
        {
            "inputs": [
                {
                    "internalType": "uint8[]",
                    "name": "pixels",
                    "type": "uint8[]"
                },
                {
                    "internalType": "uint256",
                    "name": "plotId",
                    "type": "uint256"
                }
            ],
            "name": "setPixels",
            "outputs": [],
            "stateMutability": "nonpayable",
            "type": "function"
        },
        {
            "inputs": [
                {
                    "internalType": "bytes4",
                    "name": "interfaceId",
                    "type": "bytes4"
                }
            ],
            "name": "supportsInterface",
            "outputs": [
                {
                    "internalType": "bool",
                    "name": "",
                    "type": "bool"
                }
            ],
            "stateMutability": "view",
            "type": "function"
        },
        {
            "inputs": [],
            "name": "symbol",
            "outputs": [
                {
                    "internalType": "string",
                    "name": "",
                    "type": "string"
                }
            ],
            "stateMutability": "view",
            "type": "function"
        },
        {
            "inputs": [
                {
                    "internalType": "uint256",
                    "name": "tokenId",
                    "type": "uint256"
                }
            ],
            "name": "tokenURI",
            "outputs": [
                {
                    "internalType": "string",
                    "name": "",
                    "type": "string"
                }
            ],
            "stateMutability": "view",
            "type": "function"
        },
        {
            "inputs": [
                {
                    "internalType": "address",
                    "name": "from",
                    "type": "address"
                },
                {
                    "internalType": "address",
                    "name": "to",
                    "type": "address"
                },
                {
                    "internalType": "uint256",
                    "name": "tokenId",
                    "type": "uint256"
                }
            ],
            "name": "transferFrom",
            "outputs": [],
            "stateMutability": "nonpayable",
            "type": "function"
        },
        {
            "inputs": [
                {
                    "internalType": "address",
                    "name": "newOwner",
                    "type": "address"
                }
            ],
            "name": "transferOwnership",
            "outputs": [],
            "stateMutability": "nonpayable",
            "type": "function"
        }
    ],
    "bytecode": "6064600a55600b805462ffffff191662010440178155600061400e556104208181526a1c985a5b999bdc9c995cdd60aa1b610440819052608091825261046083815261048082905260a0526104a09283526104c05260c09190915260066104e08181526519195cd95c9d60d21b61050081905260e09190915261052082815261054082905261010052610560828152610580829052610120526105a08281526105c0919091526101405260056105e081815264746169676160d81b61060081905261016091909152610620828152610640829052610180526106608281526106808290526101a0526106a08281526106c0919091526101c05260076106e0818152661dd95d1b185b9960ca1b6107008190526101e09190915261072082815261074082905261020052610760828152610780829052610220526107a08281526107c0919091526102405260046107e081815263736e6f7760e01b6108008190526102609190915260086108208181526736b7bab73a30b4b760c11b61084081905261028091909152610860858152660e6c2ecc2dcc2d60cb1b6108808190526102a0919091526108a09485526108c0939093526102c0939093526108e0908152610900929092526102e0919091526109209182526109405261030052600e6109609081526d0d8eadcc2e440e4caceded8d2e8d60931b61098052610320526109a08281526570726172696560d01b6109c0819052610340919091526109e0838152610a0082905261036052610a20838152610a4082905261038052610a60838152610a808290526103a052610aa0928352610ac0526103c091909152610ae090815264737061636560d81b610b00526103e052610b606040526009610b209081526818d85b991e5b185b9960ba1b610b405261040052620002a69061400f90601d62000a14565b50604051806104a001604052806040518060400160405280600481526020016319dbdb1960e21b81525081526020016040518060400160405280600681526020016539b4b63b32b960d11b81525081526020016040518060400160405280600481526020016319dbdb1960e21b81525081526020016040518060400160405280600681526020016539b4b63b32b960d11b81525081526020016040518060400160405280600681526020016539b4b63b32b960d11b81525081526020016040518060400160405280600581526020016431b7b832b960d91b81525081526020016040518060400160405280600581526020016431b7b832b960d91b81525081526020016040518060400160405280600581526020016431b7b832b960d91b81525081526020016040518060400160405280600581526020016431b7b832b960d91b81525081526020016040518060400160405280600481526020016334b937b760e11b81525081526020016040518060400160405280600481526020016334b937b760e11b81525081526020016040518060400160405280600481526020016334b937b760e11b81525081526020016040518060400160405280600481526020016334b937b760e11b81525081526020016040518060400160405280600481526020016334b937b760e11b815250815260200160405180604001604052806008815260200167706c6174696e756d60c01b81525081526020016040518060400160405280600b81526020016a756e6f627461696e69756d60a81b8152508152602001604051806040016040528060048152602001631cd85b9960e21b8152508152602001604051806040016040528060048152602001631cd85b9960e21b8152508152602001604051806040016040528060048152602001631cd85b9960e21b8152508152602001604051806040016040528060048152602001637275627960e01b8152508152602001604051806040016040528060048152602001637275627960e01b8152508152602001604051806040016040528060058152602001643137b937b760d91b8152508152602001604051806040016040528060058152602001643137b937b760d91b8152508152602001604051806040016040528060048152602001631cd85b1d60e21b8152508152602001604051806040016040528060048152602001631cd85b1d60e21b8152508152602001604051806040016040528060048152602001631cd85b1d60e21b8152508152602001604051806040016040528060048152602001631cd85b1d60e21b815250815260200160405180604001604052806008815260200167746962657269756d60c01b8152508152602001604051806040016040528060078152602001661b5e5d1a1c9a5b60ca1b81525081526020016040518060400160405280600481526020016318dbd85b60e21b81525081526020016040518060400160405280600481526020016318dbd85b60e21b81525081526020016040518060400160405280600481526020016318dbd85b60e21b81525081526020016040518060400160405280600481526020016318dbd85b60e21b81525081526020016040518060400160405280600481526020016318dbd85b60e21b8152508152602001604051806040016040528060038152602001623a34b760e91b81525081526020016040518060400160405280600681526020016518dbd8985b1d60d21b81525081526020016040518060400160405280600681526020016518dbd8985b1d60d21b815250815250614010906025620007cf92919062000a78565b506040805161014081018252600961010082019081526864696e6f736175727360b81b6101208301528152815180830183526007808252666d616d6d616c7360c81b6020838101829052808501939093528451808601865282815280840182905284860152845180860186528281528084018290526060850152845180860186528281528084018290526080850152845180860186529182528183015260a083015282518084018452600a808252696d617273757069616c7360b01b82840181905260c0850192909252845180860190955284529083015260e0810191909152620008c09061401190600862000aca565b5060405162003e3c38038062003e3c833981016040819052620008e39162000e4a565b60408051808201825260088152674e6f6c616e64696160c01b6020808301918252835180850190945260068452651393d310539160d21b908401528151919291620009319160029162000b1c565b5080516200094790600390602084019062000b1c565b505050620009646200095e620009be60201b60201c565b620009c2565b81516200097a9061400d90602085019062000b1c565b506200098681620009c2565b83516200099c9061401290602087019062000ba7565b508251620009b39061401390602086019062000bff565b505050505062000f91565b3390565b600880546001600160a01b038381166001600160a01b0319831681179093556040519116919082907f8be0079c531659141344cd1fd0a4f28419497f9722a3daafe3b4186f6b6457e090600090a35050565b82805482825590600052602060002090810192821562000a66579160200282015b8281111562000a66578251805162000a5591849160209091019062000b1c565b509160200191906001019062000a35565b5062000a7492915062000c3c565b5090565b82805482825590600052602060002090810192821562000a66579160200282015b8281111562000a66578251805162000ab991849160209091019062000b1c565b509160200191906001019062000a99565b82805482825590600052602060002090810192821562000a66579160200282015b8281111562000a66578251805162000b0b91849160209091019062000b1c565b509160200191906001019062000aeb565b82805462000b2a9062000f54565b90600052602060002090601f01602090048101928262000b4e576000855562000b99565b82601f1062000b6957805160ff191683800117855562000b99565b8280016001018555821562000b99579182015b8281111562000b9957825182559160200191906001019062000b7c565b5062000a7492915062000c5d565b82805482825590600052602060002090810192821562000b99579160200282015b8281111562000b9957825182546001600160a01b0319166001600160a01b0390911617825560209092019160019091019062000bc8565b82805482825590600052602060002090810192821562000b99579160200282018281111562000b9957825182559160200191906001019062000b7c565b8082111562000a7457600062000c53828262000c74565b5060010162000c3c565b5b8082111562000a74576000815560010162000c5e565b50805462000c829062000f54565b6000825580601f1062000c93575050565b601f01602090049060005260206000209081019062000cb3919062000c5d565b50565b634e487b7160e01b600052604160045260246000fd5b604051601f8201601f191681016001600160401b038111828210171562000cf75762000cf762000cb6565b604052919050565b60006001600160401b0382111562000d1b5762000d1b62000cb6565b5060051b60200190565b80516001600160a01b038116811462000d3d57600080fd5b919050565b600082601f83011262000d5457600080fd5b8151602062000d6d62000d678362000cff565b62000ccc565b82815260059290921b8401810191818101908684111562000d8d57600080fd5b8286015b8481101562000daa578051835291830191830162000d91565b509695505050505050565b600082601f83011262000dc757600080fd5b81516001600160401b0381111562000de35762000de362000cb6565b602062000df9601f8301601f1916820162000ccc565b828152858284870101111562000e0e57600080fd5b60005b8381101562000e2e57858101830151828201840152820162000e11565b8381111562000e405760008385840101525b5095945050505050565b6000806000806080858703121562000e6157600080fd5b84516001600160401b038082111562000e7957600080fd5b818701915087601f83011262000e8e57600080fd5b8151602062000ea162000d678362000cff565b82815260059290921b8401810191818101908b84111562000ec157600080fd5b948201945b8386101562000eea5762000eda8662000d25565b8252948201949082019062000ec6565b918a015191985090935050508082111562000f0457600080fd5b62000f128883890162000d42565b9450604087015191508082111562000f2957600080fd5b5062000f388782880162000db5565b92505062000f496060860162000d25565b905092959194509250565b600181811c9082168062000f6957607f821691505b6020821081141562000f8b57634e487b7160e01b600052602260045260246000fd5b50919050565b612e9b8062000fa16000396000f3fe6080604052600436106101815760003560e01c8063715018a6116100d1578063b88d4fde1161008a578063e0325e0f11610064578063e0325e0f146104fd578063e8a3d4851461051d578063e985e9c514610532578063f2fde38b1461057b57600080fd5b8063b88d4fde1461049e578063bcc7445f146104be578063c87b56dd146104dd57600080fd5b8063715018a6146104015780638a74f60c146104165780638da5cb5b1461042b57806391e982051461044957806395d89b4114610469578063a22cb4651461047e57600080fd5b80632a55205a1161013e57806355f804b31161011857806355f804b3146102f757806361bf49ee146103175780636352211e146103c157806370a08231146103e157600080fd5b80632a55205a1461027857806342842e0e146102b75780634409a876146102d757600080fd5b8063014676bc1461018657806301ffc9a7146101ac57806306fdde03146101dc578063081812fc146101fe578063095ea7b31461023657806323b872dd14610258575b600080fd5b610199610194366004612471565b61059b565b6040519081526020015b60405180910390f35b3480156101b857600080fd5b506101cc6101c73660046124db565b610afb565b60405190151581526020016101a3565b3480156101e857600080fd5b506101f1610b0c565b6040516101a39190612550565b34801561020a57600080fd5b5061021e610219366004612563565b610b9e565b6040516001600160a01b0390911681526020016101a3565b34801561024257600080fd5b50610256610251366004612593565b610c33565b005b34801561026457600080fd5b506102566102733660046125bd565b610d49565b34801561028457600080fd5b506102986102933660046125f9565b610d7a565b604080516001600160a01b0390931683526020830191909152016101a3565b3480156102c357600080fd5b506102566102d23660046125bd565b610e26565b3480156102e357600080fd5b506102566102f236600461261b565b610e41565b34801561030357600080fd5b50610256610312366004612696565b610fe8565b34801561032357600080fd5b5061037d610332366004612563565b61400c6020526000908152604090208054600182015460029092015460ff8083169361010084048216936201000081048316936301000000909104909216916001600160a01b031686565b6040805160ff97881681529587166020870152938616938501939093529316606083015260808201929092526001600160a01b0390911660a082015260c0016101a3565b3480156103cd57600080fd5b5061021e6103dc366004612563565b61101f565b3480156103ed57600080fd5b506101996103fc366004612708565b611096565b34801561040d57600080fd5b5061025661111d565b34801561042257600080fd5b50610256611153565b34801561043757600080fd5b506008546001600160a01b031661021e565b34801561045557600080fd5b506101996104643660046125f9565b61118b565b34801561047557600080fd5b506101f16111b6565b34801561048a57600080fd5b50610256610499366004612723565b6111c5565b3480156104aa57600080fd5b506102566104b93660046127a6565b6111d0565b3480156104ca57600080fd5b506102566104d93660046128f5565b5050565b3480156104e957600080fd5b506101f16104f8366004612563565b611208565b34801561050957600080fd5b50610199610518366004612471565b6112e3565b34801561052957600080fd5b506101f1611841565b34801561053e57600080fd5b506101cc61054d3660046129b5565b6001600160a01b03918216600090815260076020908152604080832093909416825291909152205460ff1690565b34801561058757600080fd5b50610256610596366004612708565b61186f565b60006105ab565b60405180910390fd5b60808360ff16111580156105c3575060808260ff1611155b61060f5760405162461bcd60e51b815260206004820152601b60248201527f7365636f6e6420636f6f726420313238206f7220736d616c6c6572000000000060448201526064016105a2565b8260ff168560ff1610801561062957508160ff168460ff16105b6106455760405162461bcd60e51b81526004016105a2906129e8565b60006106518584612a40565b61065b8786612a40565b6106659190612a63565b600b54600a5460ff92831693503492909116906106829084612a8c565b61068c9190612a8c565b146106c85760405162461bcd60e51b815260206004820152600c60248201526b1ddc9bdb99c8185b5bdd5b9d60a21b60448201526064016105a2565b6106d6600980546001019055565b60006106e160095490565b90506106ef8787878761190a565b15156001146107105760405162461bcd60e51b81526004016105a290612aab565b6107186119a4565b6107258787878785611a57565b61072f3382611ad5565b6040805160c08101825260ff808a168252888116602080840191825289831684860190815289841660608601908152608086018881523360a0880190815260008a815261400c90955297842096518754955193519251871663010000000263ff0000001993881662010000029390931663ffff0000199488166101000261ffff1990971691909716179490941791909116939093179290921783555160018301559151600290910180546001600160a01b03929092166001600160a01b03199092169190911790556004610801611aef565b61080b9190612b03565b6108159084612a8c565b905060006108f4614010805480602002602001604051908101604052809291908181526020016000905b828210156108eb57838290600052602060002001805461085e90612b17565b80601f016020809104026020016040519081016040528092919081815260200182805461088a90612b17565b80156108d75780601f106108ac576101008083540402835291602001916108d7565b820191906000526020600020905b8154815290600101906020018083116108ba57829003601f168201915b50505050508152602001906001019061083f565b50505050611b45565b905060006109ca61400f805480602002602001604051908101604052809291908181526020016000905b828210156108eb57838290600052602060002001805461093d90612b17565b80601f016020809104026020016040519081016040528092919081815260200182805461096990612b17565b80156109b65780601f1061098b576101008083540402835291602001916109b6565b820191906000526020600020905b81548152906001019060200180831161099957829003601f168201915b50505050508152602001906001019061091e565b90506000610aa0614011805480602002602001604051908101604052809291908181526020016000905b828210156108eb578382906000526020600020018054610a1390612b17565b80601f0160208091040260200160405190810160405280929190818152602001828054610a3f90612b17565b8015610a8c5780601f10610a6157610100808354040283529160200191610a8c565b820191906000526020600020905b815481529060010190602001808311610a6f57829003601f168201915b5050505050815260200190600101906109f4565b9050847f6e2ffbd350baaa51738934b7e5f9ebb948a12cca6c5a62cb45e233e044db33c0338d8d8d8d8a8a8a8a604051610ae299989796959493929190612b52565b60405180910390a250929450505050505b949350505050565b6000610b0682611b7b565b92915050565b606060028054610b1b90612b17565b80601f0160208091040260200160405190810160405280929190818152602001828054610b4790612b17565b8015610b945780601f10610b6957610100808354040283529160200191610b94565b820191906000526020600020905b815481529060010190602001808311610b7757829003601f168201915b5050505050905090565b6000818152600460205260408120546001600160a01b0316610c175760405162461bcd60e51b815260206004820152602c60248201527f4552433732313a20617070726f76656420717565727920666f72206e6f6e657860448201526b34b9ba32b73a103a37b5b2b760a11b60648201526084016105a2565b506000908152600660205260409020546001600160a01b031690565b6000610c3e8261101f565b9050806001600160a01b0316836001600160a01b03161415610cac5760405162461bcd60e51b815260206004820152602160248201527f4552433732313a20617070726f76616c20746f2063757272656e74206f776e656044820152603960f91b60648201526084016105a2565b336001600160a01b0382161480610cc85750610cc8813361054d565b610d3a5760405162461bcd60e51b815260206004820152603860248201527f4552433732313a20617070726f76652063616c6c6572206973206e6f74206f7760448201527f6e6572206e6f7220617070726f76656420666f7220616c6c000000000000000060648201526084016105a2565b610d448383611bbb565b505050565b610d533382611c29565b610d6f5760405162461bcd60e51b81526004016105a290612bd8565b610d44838383611d1f565b60008281526001602090815260408083208151808301909252546001600160a01b038116808352600160a01b9091046001600160601b0316928201929092528291610def5750604080518082019091526000546001600160a01b0381168252600160a01b90046001600160601b031660208201525b602081015160009061271090610e0e906001600160601b031687612a8c565b610e189190612c29565b915196919550909350505050565b610d44838383604051806020016040528060008152506111d0565b33610e4b8261101f565b6001600160a01b031614610e935760405162461bcd60e51b815260206004820152600f60248201526e7520646f6e74206f776e207468697360881b60448201526064016105a2565b600081815261400c60209081526040808320815160c081018352815460ff808216808452610100830482169684019690965262010000820481169483018590526301000000909104166060820152600182015460808201526002909101546001600160a01b031660a08201529291610f0a91612a40565b60ff169050600082602001518360600151610f259190612a40565b600b5460ff9182169250600091610100820481169116610f458486612c3d565b610f4f9190612c3d565b610f599190612c3d565b905063ffffffff81168614610fa55760405162461bcd60e51b81526020600482015260126024820152710eee4dedcce40c2dadeeadce840decc40e0f60731b60448201526064016105a2565b847fade17c51d5840990bf9bfd0f37b213de83d8192c7ef345922962267e944abc3d8888604051610fd7929190612c69565b60405180910390a250505050505050565b6008546001600160a01b031633146110125760405162461bcd60e51b81526004016105a290612ca4565b610d4461400d83836123c2565b6000818152600460205260408120546001600160a01b031680610b065760405162461bcd60e51b815260206004820152602960248201527f4552433732313a206f776e657220717565727920666f72206e6f6e657869737460448201526832b73a103a37b5b2b760b91b60648201526084016105a2565b60006001600160a01b0382166111015760405162461bcd60e51b815260206004820152602a60248201527f4552433732313a2062616c616e636520717565727920666f7220746865207a65604482015269726f206164647265737360b01b60648201526084016105a2565b506001600160a01b031660009081526005602052604090205490565b6008546001600160a01b031633146111475760405162461bcd60e51b81526004016105a290612ca4565b6111516000611ebb565b565b6008546001600160a01b0316331461117d5760405162461bcd60e51b81526004016105a290612ca4565b600b805462ff000019169055565b600c826080811061119b57600080fd5b6080020181608081106111ad57600080fd5b01549150829050565b606060038054610b1b90612b17565b6104d9338383611f0d565b6111da3383611c29565b6111f65760405162461bcd60e51b81526004016105a290612bd8565b61120284848484611fdc565b50505050565b6000818152600460205260409020546060906001600160a01b03166112875760405162461bcd60e51b815260206004820152602f60248201527f4552433732314d657461646174613a2055524920717565727920666f72206e6f60448201526e3732bc34b9ba32b73a103a37b5b2b760891b60648201526084016105a2565b600061129161200f565b905060008151116112b157604051806020016040528060008152506112dc565b806112bb8461201f565b6040516020016112cc929190612cd9565b6040516020818303038152906040525b9392505050565b6008546000906001600160a01b031633146113105760405162461bcd60e51b81526004016105a290612ca4565b600b5462010000900460ff1615156001146113625760405162461bcd60e51b8152602060048201526012602482015271141c994b535a5b9d081a5cc810db1bdcd95960721b60448201526064016105a2565b60808360ff161115801561137a575060808260ff1611155b6113c65760405162461bcd60e51b815260206004820152601b60248201527f7365636f6e6420636f6f726420313238206f7220736d616c6c6572000000000060448201526064016105a2565b8260ff168560ff161080156113e057508160ff168460ff16105b6113fc5760405162461bcd60e51b81526004016105a2906129e8565b6114088585858561190a565b15156001146114295760405162461bcd60e51b81526004016105a290612aab565b611437600980546001019055565b600061144260095490565b90506114518686868685611a57565b61145b3382611ad5565b6040805160c08101825260ff8089168252878116602080840191825288831684860190815288841660608601908152608086018881523360a0880190815260008a815261400c90955297842096518754955193519251871663010000000263ff0000001993881662010000029390931663ffff0000199488166101000261ffff1990971691909716179490941791909116939093179290921783555160018301559151600290910180546001600160a01b03929092166001600160a01b031990921691909117905561152d8685612a40565b6115378887612a40565b6115419190612a63565b60ff16905060006004611552611aef565b61155c9190612b03565b6115669083612a8c565b9050600061163c614010805480602002602001604051908101604052809291908181526020016000905b828210156108eb5783829060005260206000200180546115af90612b17565b80601f01602080910402602001604051908101604052809291908181526020018280546115db90612b17565b80156116285780601f106115fd57610100808354040283529160200191611628565b820191906000526020600020905b81548152906001019060200180831161160b57829003601f168201915b505050505081526020019060010190611590565b9050600061171261400f805480602002602001604051908101604052809291908181526020016000905b828210156108eb57838290600052602060002001805461168590612b17565b80601f01602080910402602001604051908101604052809291908181526020018280546116b190612b17565b80156116fe5780601f106116d3576101008083540402835291602001916116fe565b820191906000526020600020905b8154815290600101906020018083116116e157829003601f168201915b505050505081526020019060010190611666565b905060006117e8614011805480602002602001604051908101604052809291908181526020016000905b828210156108eb57838290600052602060002001805461175b90612b17565b80601f016020809104026020016040519081016040528092919081815260200182805461178790612b17565b80156117d45780601f106117a9576101008083540402835291602001916117d4565b820191906000526020600020905b8154815290600101906020018083116117b757829003601f168201915b50505050508152602001906001019061173c565b9050857f6e2ffbd350baaa51738934b7e5f9ebb948a12cca6c5a62cb45e233e044db33c0338d8d8d8d8a8a8a8a60405161182a99989796959493929190612b52565b60405180910390a250939998505050505050505050565b606061184b61200f565b60405160200161185b9190612d08565b604051602081830303815290604052905090565b6008546001600160a01b031633146118995760405162461bcd60e51b81526004016105a290612ca4565b6001600160a01b0381166118fe5760405162461bcd60e51b815260206004820152602660248201527f4f776e61626c653a206e6577206f776e657220697320746865207a65726f206160448201526564647265737360d01b60648201526084016105a2565b61190781611ebb565b50565b6000845b8360ff168160ff16101561199857845b8360ff168160ff161015611985576000600c8360ff166080811061194457611944612d39565b608002018260ff166080811061195c5761195c612d39565b0154905080156119725760009350505050610af3565b508061197d81612d4f565b91505061191e565b508061199081612d4f565b91505061190e565b50600195945050505050565b4760006119b96008546001600160a01b031690565b90506000816001600160a01b03168360405160006040518083038185875af1925050503d8060008114611a08576040519150601f19603f3d011682016040523d82523d6000602084013e611a0d565b606091505b5050905080610d445760405162461bcd60e51b81526020600482015260166024820152754661696c656420746f2073656e64207061796d656e7960501b60448201526064016105a2565b845b8360ff168160ff161015611acd57845b8360ff168160ff161015611aba5782600c8360ff1660808110611a8e57611a8e612d39565b608002018260ff1660808110611aa657611aa6612d39565b015580611ab281612d4f565b915050611a69565b5080611ac581612d4f565b915050611a59565b505050505050565b6104d982826040518060200160405280600081525061211d565b61400e805460009182611b0183612d6f565b909155505061400e5460408051446020820152429181019190915260608101919091526080016040516020818303038152906040528051906020012060001c905090565b6060818251611b52611aef565b611b5c9190612b03565b81518110611b6c57611b6c612d39565b60200260200101519050919050565b60006001600160e01b031982166380ac58cd60e01b1480611bac57506001600160e01b03198216635b5e139f60e01b145b80610b065750610b0682612150565b600081815260066020526040902080546001600160a01b0319166001600160a01b0384169081179091558190611bf08261101f565b6001600160a01b03167f8c5be1e5ebec7d5bd14f71427d1e84f3dd0314c0f7b2291e5b200ac8c7c3b92560405160405180910390a45050565b6000818152600460205260408120546001600160a01b0316611ca25760405162461bcd60e51b815260206004820152602c60248201527f4552433732313a206f70657261746f7220717565727920666f72206e6f6e657860448201526b34b9ba32b73a103a37b5b2b760a11b60648201526084016105a2565b6000611cad8361101f565b9050806001600160a01b0316846001600160a01b03161480611cf457506001600160a01b0380821660009081526007602090815260408083209388168352929052205460ff165b80610af35750836001600160a01b0316611d0d84610b9e565b6001600160a01b031614949350505050565b826001600160a01b0316611d328261101f565b6001600160a01b031614611d965760405162461bcd60e51b815260206004820152602560248201527f4552433732313a207472616e736665722066726f6d20696e636f72726563742060448201526437bbb732b960d91b60648201526084016105a2565b6001600160a01b038216611df85760405162461bcd60e51b8152602060048201526024808201527f4552433732313a207472616e7366657220746f20746865207a65726f206164646044820152637265737360e01b60648201526084016105a2565b611e03600082611bbb565b6001600160a01b0383166000908152600560205260408120805460019290611e2c908490612d8a565b90915550506001600160a01b0382166000908152600560205260408120805460019290611e5a908490612da1565b909155505060008181526004602052604080822080546001600160a01b0319166001600160a01b0386811691821790925591518493918716917fddf252ad1be2c89b69c2b068fc378daa952ba7f163c4a11628f55a4df523b3ef91a4505050565b600880546001600160a01b038381166001600160a01b0319831681179093556040519116919082907f8be0079c531659141344cd1fd0a4f28419497f9722a3daafe3b4186f6b6457e090600090a35050565b816001600160a01b0316836001600160a01b03161415611f6f5760405162461bcd60e51b815260206004820152601960248201527f4552433732313a20617070726f766520746f2063616c6c65720000000000000060448201526064016105a2565b6001600160a01b03838116600081815260076020908152604080832094871680845294825291829020805460ff191686151590811790915591519182527f17307eab39ab6107e8899845ad3d59bd9653f200f220920489ca2b5937696c31910160405180910390a3505050565b611fe7848484611d1f565b611ff384848484612185565b6112025760405162461bcd60e51b81526004016105a290612db9565b606061400d8054610b1b90612b17565b6060816120435750506040805180820190915260018152600360fc1b602082015290565b8160005b811561206d578061205781612d6f565b91506120669050600a83612c29565b9150612047565b60008167ffffffffffffffff8111156120885761208861275f565b6040519080825280601f01601f1916602001820160405280156120b2576020820181803683370190505b5090505b8415610af3576120c7600183612d8a565b91506120d4600a86612b03565b6120df906030612da1565b60f81b8183815181106120f4576120f4612d39565b60200101906001600160f81b031916908160001a905350612116600a86612c29565b94506120b6565b6121278383612280565b6121346000848484612185565b610d445760405162461bcd60e51b81526004016105a290612db9565b60006001600160e01b0319821663152a902d60e11b1480610b0657506301ffc9a760e01b6001600160e01b0319831614610b06565b60006001600160a01b0384163b1561227857604051630a85bd0160e11b81526001600160a01b0385169063150b7a02906121c9903390899088908890600401612e0b565b6020604051808303816000875af1925050508015612204575060408051601f3d908101601f1916820190925261220191810190612e48565b60015b61225e573d808015612232576040519150601f19603f3d011682016040523d82523d6000602084013e612237565b606091505b5080516122565760405162461bcd60e51b81526004016105a290612db9565b805181602001fd5b6001600160e01b031916630a85bd0160e11b149050610af3565b506001610af3565b6001600160a01b0382166122d65760405162461bcd60e51b815260206004820181905260248201527f4552433732313a206d696e7420746f20746865207a65726f206164647265737360448201526064016105a2565b6000818152600460205260409020546001600160a01b03161561233b5760405162461bcd60e51b815260206004820152601c60248201527f4552433732313a20746f6b656e20616c7265616479206d696e7465640000000060448201526064016105a2565b6001600160a01b0382166000908152600560205260408120805460019290612364908490612da1565b909155505060008181526004602052604080822080546001600160a01b0319166001600160a01b03861690811790915590518392907fddf252ad1be2c89b69c2b068fc378daa952ba7f163c4a11628f55a4df523b3ef908290a45050565b8280546123ce90612b17565b90600052602060002090601f0160209004810192826123f05760008555612436565b82601f106124095782800160ff19823516178555612436565b82800160010185558215612436579182015b8281111561243657823582559160200191906001019061241b565b50612442929150612446565b5090565b5b808211156124425760008155600101612447565b803560ff8116811461246c57600080fd5b919050565b6000806000806080858703121561248757600080fd5b6124908561245b565b935061249e6020860161245b565b92506124ac6040860161245b565b91506124ba6060860161245b565b905092959194509250565b6001600160e01b03198116811461190757600080fd5b6000602082840312156124ed57600080fd5b81356112dc816124c5565b60005b838110156125135781810151838201526020016124fb565b838111156112025750506000910152565b6000815180845261253c8160208601602086016124f8565b601f01601f19169290920160200192915050565b6020815260006112dc6020830184612524565b60006020828403121561257557600080fd5b5035919050565b80356001600160a01b038116811461246c57600080fd5b600080604083850312156125a657600080fd5b6125af8361257c565b946020939093013593505050565b6000806000606084860312156125d257600080fd5b6125db8461257c565b92506125e96020850161257c565b9150604084013590509250925092565b6000806040838503121561260c57600080fd5b50508035926020909101359150565b60008060006040848603121561263057600080fd5b833567ffffffffffffffff8082111561264857600080fd5b818601915086601f83011261265c57600080fd5b81358181111561266b57600080fd5b8760208260051b850101111561268057600080fd5b6020928301989097509590910135949350505050565b600080602083850312156126a957600080fd5b823567ffffffffffffffff808211156126c157600080fd5b818501915085601f8301126126d557600080fd5b8135818111156126e457600080fd5b8660208285010111156126f657600080fd5b60209290920196919550909350505050565b60006020828403121561271a57600080fd5b6112dc8261257c565b6000806040838503121561273657600080fd5b61273f8361257c565b91506020830135801515811461275457600080fd5b809150509250929050565b634e487b7160e01b600052604160045260246000fd5b604051601f8201601f1916810167ffffffffffffffff8111828210171561279e5761279e61275f565b604052919050565b600080600080608085870312156127bc57600080fd5b6127c58561257c565b935060206127d481870161257c565b935060408601359250606086013567ffffffffffffffff808211156127f857600080fd5b818801915088601f83011261280c57600080fd5b81358181111561281e5761281e61275f565b612830601f8201601f19168501612775565b9150808252898482850101111561284657600080fd5b808484018584013760008482840101525080935050505092959194509250565b600067ffffffffffffffff8211156128805761288061275f565b5060051b60200190565b600082601f83011261289b57600080fd5b813560206128b06128ab83612866565b612775565b82815260059290921b840181019181810190868411156128cf57600080fd5b8286015b848110156128ea57803583529183019183016128d3565b509695505050505050565b6000806040838503121561290857600080fd5b823567ffffffffffffffff8082111561292057600080fd5b818501915085601f83011261293457600080fd5b813560206129446128ab83612866565b82815260059290921b8401810191818101908984111561296357600080fd5b948201945b83861015612988576129798661257c565b82529482019490820190612968565b9650508601359250508082111561299e57600080fd5b506129ab8582860161288a565b9150509250929050565b600080604083850312156129c857600080fd5b6129d18361257c565b91506129df6020840161257c565b90509250929050565b60208082526022908201527f326e6420636f6f726420736d616c6c6572207468616e20666972737420636f6f6040820152611c9960f21b606082015260800190565b634e487b7160e01b600052601160045260246000fd5b600060ff821660ff841680821015612a5a57612a5a612a2a565b90039392505050565b600060ff821660ff84168160ff0481118215151615612a8457612a84612a2a565b029392505050565b6000816000190483118215151615612aa657612aa6612a2a565b500290565b60208082526022908201527f612073656c65637465642070617263656c20697320616c7265616479206f776e604082015261195960f21b606082015260800190565b634e487b7160e01b600052601260045260246000fd5b600082612b1257612b12612aed565b500690565b600181811c90821680612b2b57607f821691505b60208210811415612b4c57634e487b7160e01b600052602260045260246000fd5b50919050565b6001600160a01b038a16815260ff8981166020830152888116604083015287811660608301528616608082015260a0810185905261012060c08201819052600090612b9f83820187612524565b905082810360e0840152612bb38186612524565b9050828103610100840152612bc88185612524565b9c9b505050505050505050505050565b60208082526031908201527f4552433732313a207472616e736665722063616c6c6572206973206e6f74206f6040820152701ddb995c881b9bdc88185c1c1c9bdd9959607a1b606082015260800190565b600082612c3857612c38612aed565b500490565b600063ffffffff80831681851681830481118215151615612c6057612c60612a2a565b02949350505050565b60208082528181018390526000908460408401835b868110156128ea5760ff612c918461245b565b1682529183019190830190600101612c7e565b6020808252818101527f4f776e61626c653a2063616c6c6572206973206e6f7420746865206f776e6572604082015260600190565b60008351612ceb8184602088016124f8565b835190830190612cff8183602088016124f8565b01949350505050565b60008251612d1a8184602087016124f8565b6c636f6e74726163742d6d65746160981b920191825250600d01919050565b634e487b7160e01b600052603260045260246000fd5b600060ff821660ff811415612d6657612d66612a2a565b60010192915050565b6000600019821415612d8357612d83612a2a565b5060010190565b600082821015612d9c57612d9c612a2a565b500390565b60008219821115612db457612db4612a2a565b500190565b60208082526032908201527f4552433732313a207472616e7366657220746f206e6f6e20455243373231526560408201527131b2b4bb32b91034b6b83632b6b2b73a32b960711b606082015260800190565b6001600160a01b0385811682528416602082015260408101839052608060608201819052600090612e3e90830184612524565b9695505050505050565b600060208284031215612e5a57600080fd5b81516112dc816124c556fea2646970667358221220132e359c72ea687f78ebc27c21b3ad24f17e8dc5228c35505b7211ee983cefff64736f6c634300080a0033",
    "sourcePath": "/home/nbk/hardapps/nolandia/contracts/MetaNol2.sol",
    "compiler": {
        "name": "solc",
        "version": "0.8.10+commit.fc410830"
    },
    "functionHashes": {
        "approve(address,uint256)": "095ea7b3",
        "balanceOf(address)": "70a08231",
        "buyPlot(uint8,uint8,uint8,uint8)": "014676bc",
        "closePreMint()": "8a74f60c",
        "contractURI()": "e8a3d485",
        "getApproved(uint256)": "081812fc",
        "isApprovedForAll(address,address)": "e985e9c5",
        "name()": "06fdde03",
        "owner()": "8da5cb5b",
        "ownerOf(uint256)": "6352211e",
        "parcels(uint256,uint256)": "91e98205",
        "plots(uint256)": "61bf49ee",
        "preMintPlot(uint8,uint8,uint8,uint8)": "e0325e0f",
        "renounceOwnership()": "715018a6",
        "royaltyInfo(uint256,uint256)": "2a55205a",
        "safeTransferFrom(address,address,uint256)": "42842e0e",
        "safeTransferFrom(address,address,uint256,bytes)": "b88d4fde",
        "setApprovalForAll(address,bool)": "a22cb465",
        "setBaseURI(string)": "55f804b3",
        "setPayees(address[],uint256[])": "bcc7445f",
        "setPixels(uint8[],uint256)": "4409a876",
        "supportsInterface(bytes4)": "01ffc9a7",
        "symbol()": "95d89b41",
        "tokenURI(uint256)": "c87b56dd",
        "transferFrom(address,address,uint256)": "23b872dd",
        "transferOwnership(address)": "f2fde38b"
    },
    "gasEstimates": {
        "creation": {
            "codeDepositCost": "2386200",
            "executionCost": "infinite",
            "totalCost": "infinite"
        },
        "external": {
            "approve(address,uint256)": "infinite",
            "balanceOf(address)": "2689",
            "buyPlot(uint8,uint8,uint8,uint8)": "infinite",
            "closePreMint()": "26547",
            "contractURI()": "infinite",
            "getApproved(uint256)": "4782",
            "isApprovedForAll(address,address)": "infinite",
            "name()": "infinite",
            "owner()": "2398",
            "ownerOf(uint256)": "2645",
            "parcels(uint256,uint256)": "2561",
            "plots(uint256)": "6981",
            "preMintPlot(uint8,uint8,uint8,uint8)": "infinite",
            "renounceOwnership()": "28140",
            "royaltyInfo(uint256,uint256)": "5146",
            "safeTransferFrom(address,address,uint256)": "infinite",
            "safeTransferFrom(address,address,uint256,bytes)": "infinite",
            "setApprovalForAll(address,bool)": "26819",
            "setBaseURI(string)": "infinite",
            "setPayees(address[],uint256[])": "infinite",
            "setPixels(uint8[],uint256)": "infinite",
            "supportsInterface(bytes4)": "infinite",
            "symbol()": "infinite",
            "tokenURI(uint256)": "infinite",
            "transferFrom(address,address,uint256)": "infinite",
            "transferOwnership(address)": "28422"
        },
        "internal": {
            "_baseURI()": "infinite",
            "allParcelsAvailable(uint8,uint8,uint8,uint8)": "infinite",
            "randomItem(string memory[] memory)": "infinite",
            "randomNum()": "infinite",
            "sendPayment()": "infinite",
            "setParcelsOwned(uint8,uint8,uint8,uint8,uint256)": "infinite"
        }
    }
}