{
  "_format": "hh-sol-artifact-1",
  "contractName": "Nolandia",
  "sourceName": "contracts/MetaNol2.sol",
  "abi": [
    {
      "inputs": [
        {
          "internalType": "address[]",
          "name": "_payees",
          "type": "address[]"
        },
        {
          "internalType": "uint256[]",
          "name": "_shares",
          "type": "uint256[]"
        },
        {
          "internalType": "string",
          "name": "initialBaseUri",
          "type": "string"
        },
        {
          "internalType": "address",
          "name": "newOwner",
          "type": "address"
        }
      ],
      "stateMutability": "payable",
      "type": "constructor"
    },
    {
      "anonymous": false,
      "inputs": [
        {
          "indexed": true,
          "internalType": "address",
          "name": "owner",
          "type": "address"
        },
        {
          "indexed": true,
          "internalType": "address",
          "name": "approved",
          "type": "address"
        },
        {
          "indexed": true,
          "internalType": "uint256",
          "name": "tokenId",
          "type": "uint256"
        }
      ],
      "name": "Approval",
      "type": "event"
    },
    {
      "anonymous": false,
      "inputs": [
        {
          "indexed": true,
          "internalType": "address",
          "name": "owner",
          "type": "address"
        },
        {
          "indexed": true,
          "internalType": "address",
          "name": "operator",
          "type": "address"
        },
        {
          "indexed": false,
          "internalType": "bool",
          "name": "approved",
          "type": "bool"
        }
      ],
      "name": "ApprovalForAll",
      "type": "event"
    },
    {
      "anonymous": false,
      "inputs": [
        {
          "indexed": true,
          "internalType": "address",
          "name": "previousOwner",
          "type": "address"
        },
        {
          "indexed": true,
          "internalType": "address",
          "name": "newOwner",
          "type": "address"
        }
      ],
      "name": "OwnershipTransferred",
      "type": "event"
    },
    {
      "anonymous": false,
      "inputs": [
        {
          "indexed": true,
          "internalType": "uint256",
          "name": "plotId",
          "type": "uint256"
        },
        {
          "indexed": false,
          "internalType": "uint32",
          "name": "startIndex",
          "type": "uint32"
        },
        {
          "indexed": false,
          "internalType": "uint8[]",
          "name": "imageData",
          "type": "uint8[]"
        }
      ],
      "name": "PlotPixelsSet",
      "type": "event"
    },
    {
      "anonymous": false,
      "inputs": [
        {
          "indexed": true,
          "internalType": "uint256",
          "name": "plotId",
          "type": "uint256"
        },
        {
          "indexed": false,
          "internalType": "address",
          "name": "plotOwner",
          "type": "address"
        },
        {
          "indexed": false,
          "internalType": "uint8",
          "name": "x1",
          "type": "uint8"
        },
        {
          "indexed": false,
          "internalType": "uint8",
          "name": "y1",
          "type": "uint8"
        },
        {
          "indexed": false,
          "internalType": "uint8",
          "name": "x2",
          "type": "uint8"
        },
        {
          "indexed": false,
          "internalType": "uint8",
          "name": "y2",
          "type": "uint8"
        },
        {
          "indexed": false,
          "internalType": "uint256",
          "name": "sparkles",
          "type": "uint256"
        },
        {
          "indexed": false,
          "internalType": "string",
          "name": "resources",
          "type": "string"
        },
        {
          "indexed": false,
          "internalType": "string",
          "name": "landType",
          "type": "string"
        },
        {
          "indexed": false,
          "internalType": "string",
          "name": "megafaunaType",
          "type": "string"
        }
      ],
      "name": "PlotPurchased",
      "type": "event"
    },
    {
      "anonymous": false,
      "inputs": [
        {
          "indexed": true,
          "internalType": "address",
          "name": "from",
          "type": "address"
        },
        {
          "indexed": true,
          "internalType": "address",
          "name": "to",
          "type": "address"
        },
        {
          "indexed": true,
          "internalType": "uint256",
          "name": "tokenId",
          "type": "uint256"
        }
      ],
      "name": "Transfer",
      "type": "event"
    },
    {
      "inputs": [
        {
          "internalType": "address",
          "name": "to",
          "type": "address"
        },
        {
          "internalType": "uint256",
          "name": "tokenId",
          "type": "uint256"
        }
      ],
      "name": "approve",
      "outputs": [],
      "stateMutability": "nonpayable",
      "type": "function"
    },
    {
      "inputs": [
        {
          "internalType": "address",
          "name": "owner",
          "type": "address"
        }
      ],
      "name": "balanceOf",
      "outputs": [
        {
          "internalType": "uint256",
          "name": "",
          "type": "uint256"
        }
      ],
      "stateMutability": "view",
      "type": "function"
    },
    {
      "inputs": [
        {
          "internalType": "uint8",
          "name": "x1",
          "type": "uint8"
        },
        {
          "internalType": "uint8",
          "name": "y1",
          "type": "uint8"
        },
        {
          "internalType": "uint8",
          "name": "x2",
          "type": "uint8"
        },
        {
          "internalType": "uint8",
          "name": "y2",
          "type": "uint8"
        }
      ],
      "name": "buyPlot",
      "outputs": [
        {
          "internalType": "uint256",
          "name": "",
          "type": "uint256"
        }
      ],
      "stateMutability": "payable",
      "type": "function"
    },
    {
      "inputs": [],
      "name": "closePreMint",
      "outputs": [],
      "stateMutability": "nonpayable",
      "type": "function"
    },
    {
      "inputs": [],
      "name": "contractURI",
      "outputs": [
        {
          "internalType": "string",
          "name": "",
          "type": "string"
        }
      ],
      "stateMutability": "view",
      "type": "function"
    },
    {
      "inputs": [
        {
          "internalType": "uint256",
          "name": "tokenId",
          "type": "uint256"
        }
      ],
      "name": "getApproved",
      "outputs": [
        {
          "internalType": "address",
          "name": "",
          "type": "address"
        }
      ],
      "stateMutability": "view",
      "type": "function"
    },
    {
      "inputs": [
        {
          "internalType": "address",
          "name": "owner",
          "type": "address"
        },
        {
          "internalType": "address",
          "name": "operator",
          "type": "address"
        }
      ],
      "name": "isApprovedForAll",
      "outputs": [
        {
          "internalType": "bool",
          "name": "",
          "type": "bool"
        }
      ],
      "stateMutability": "view",
      "type": "function"
    },
    {
      "inputs": [],
      "name": "name",
      "outputs": [
        {
          "internalType": "string",
          "name": "",
          "type": "string"
        }
      ],
      "stateMutability": "view",
      "type": "function"
    },
    {
      "inputs": [],
      "name": "owner",
      "outputs": [
        {
          "internalType": "address",
          "name": "",
          "type": "address"
        }
      ],
      "stateMutability": "view",
      "type": "function"
    },
    {
      "inputs": [
        {
          "internalType": "uint256",
          "name": "tokenId",
          "type": "uint256"
        }
      ],
      "name": "ownerOf",
      "outputs": [
        {
          "internalType": "address",
          "name": "",
          "type": "address"
        }
      ],
      "stateMutability": "view",
      "type": "function"
    },
    {
      "inputs": [
        {
          "internalType": "uint256",
          "name": "",
          "type": "uint256"
        },
        {
          "internalType": "uint256",
          "name": "",
          "type": "uint256"
        }
      ],
      "name": "parcels",
      "outputs": [
        {
          "internalType": "uint256",
          "name": "",
          "type": "uint256"
        }
      ],
      "stateMutability": "view",
      "type": "function"
    },
    {
      "inputs": [
        {
          "internalType": "uint256",
          "name": "",
          "type": "uint256"
        }
      ],
      "name": "plots",
      "outputs": [
        {
          "internalType": "uint8",
          "name": "x1",
          "type": "uint8"
        },
        {
          "internalType": "uint8",
          "name": "y1",
          "type": "uint8"
        },
        {
          "internalType": "uint8",
          "name": "x2",
          "type": "uint8"
        },
        {
          "internalType": "uint8",
          "name": "y2",
          "type": "uint8"
        },
        {
          "internalType": "uint256",
          "name": "plotId",
          "type": "uint256"
        },
        {
          "internalType": "address",
          "name": "plotOwner",
          "type": "address"
        }
      ],
      "stateMutability": "view",
      "type": "function"
    },
    {
      "inputs": [
        {
          "internalType": "uint8",
          "name": "x1",
          "type": "uint8"
        },
        {
          "internalType": "uint8",
          "name": "y1",
          "type": "uint8"
        },
        {
          "internalType": "uint8",
          "name": "x2",
          "type": "uint8"
        },
        {
          "internalType": "uint8",
          "name": "y2",
          "type": "uint8"
        }
      ],
      "name": "preMintPlot",
      "outputs": [
        {
          "internalType": "uint256",
          "name": "",
          "type": "uint256"
        }
      ],
      "stateMutability": "nonpayable",
      "type": "function"
    },
    {
      "inputs": [],
      "name": "renounceOwnership",
      "outputs": [],
      "stateMutability": "nonpayable",
      "type": "function"
    },
    {
      "inputs": [
        {
          "internalType": "uint256",
          "name": "_tokenId",
          "type": "uint256"
        },
        {
          "internalType": "uint256",
          "name": "_salePrice",
          "type": "uint256"
        }
      ],
      "name": "royaltyInfo",
      "outputs": [
        {
          "internalType": "address",
          "name": "",
          "type": "address"
        },
        {
          "internalType": "uint256",
          "name": "",
          "type": "uint256"
        }
      ],
      "stateMutability": "view",
      "type": "function"
    },
    {
      "inputs": [
        {
          "internalType": "address",
          "name": "from",
          "type": "address"
        },
        {
          "internalType": "address",
          "name": "to",
          "type": "address"
        },
        {
          "internalType": "uint256",
          "name": "tokenId",
          "type": "uint256"
        }
      ],
      "name": "safeTransferFrom",
      "outputs": [],
      "stateMutability": "nonpayable",
      "type": "function"
    },
    {
      "inputs": [
        {
          "internalType": "address",
          "name": "from",
          "type": "address"
        },
        {
          "internalType": "address",
          "name": "to",
          "type": "address"
        },
        {
          "internalType": "uint256",
          "name": "tokenId",
          "type": "uint256"
        },
        {
          "internalType": "bytes",
          "name": "data",
          "type": "bytes"
        }
      ],
      "name": "safeTransferFrom",
      "outputs": [],
      "stateMutability": "nonpayable",
      "type": "function"
    },
    {
      "inputs": [
        {
          "internalType": "address",
          "name": "operator",
          "type": "address"
        },
        {
          "internalType": "bool",
          "name": "approved",
          "type": "bool"
        }
      ],
      "name": "setApprovalForAll",
      "outputs": [],
      "stateMutability": "nonpayable",
      "type": "function"
    },
    {
      "inputs": [
        {
          "internalType": "string",
          "name": "newBaseUri",
          "type": "string"
        }
      ],
      "name": "setBaseURI",
      "outputs": [],
      "stateMutability": "nonpayable",
      "type": "function"
    },
    {
      "inputs": [
        {
          "internalType": "address[]",
          "name": "_payees",
          "type": "address[]"
        },
        {
          "internalType": "uint256[]",
          "name": "_shares",
          "type": "uint256[]"
        }
      ],
      "name": "setPayees",
      "outputs": [],
      "stateMutability": "nonpayable",
      "type": "function"
    },
    {
      "inputs": [
        {
          "internalType": "uint8[]",
          "name": "pixels",
          "type": "uint8[]"
        },
        {
          "internalType": "uint32",
          "name": "startIndex",
          "type": "uint32"
        },
        {
          "internalType": "uint256",
          "name": "plotId",
          "type": "uint256"
        }
      ],
      "name": "setPixels",
      "outputs": [],
      "stateMutability": "nonpayable",
      "type": "function"
    },
    {
      "inputs": [
        {
          "internalType": "uint256",
          "name": "newPrice",
          "type": "uint256"
        }
      ],
      "name": "setWeiPerPx",
      "outputs": [],
      "stateMutability": "nonpayable",
      "type": "function"
    },
    {
      "inputs": [
        {
          "internalType": "bytes4",
          "name": "interfaceId",
          "type": "bytes4"
        }
      ],
      "name": "supportsInterface",
      "outputs": [
        {
          "internalType": "bool",
          "name": "",
          "type": "bool"
        }
      ],
      "stateMutability": "view",
      "type": "function"
    },
    {
      "inputs": [],
      "name": "symbol",
      "outputs": [
        {
          "internalType": "string",
          "name": "",
          "type": "string"
        }
      ],
      "stateMutability": "view",
      "type": "function"
    },
    {
      "inputs": [
        {
          "internalType": "uint256",
          "name": "tokenId",
          "type": "uint256"
        }
      ],
      "name": "tokenURI",
      "outputs": [
        {
          "internalType": "string",
          "name": "",
          "type": "string"
        }
      ],
      "stateMutability": "view",
      "type": "function"
    },
    {
      "inputs": [
        {
          "internalType": "address",
          "name": "from",
          "type": "address"
        },
        {
          "internalType": "address",
          "name": "to",
          "type": "address"
        },
        {
          "internalType": "uint256",
          "name": "tokenId",
          "type": "uint256"
        }
      ],
      "name": "transferFrom",
      "outputs": [],
      "stateMutability": "nonpayable",
      "type": "function"
    },
    {
      "inputs": [
        {
          "internalType": "address",
          "name": "newOwner",
          "type": "address"
        }
      ],
      "name": "transferOwnership",
      "outputs": [],
      "stateMutability": "nonpayable",
      "type": "function"
    },
    {
      "inputs": [],
      "name": "weiCostPerPx",
      "outputs": [
        {
          "internalType": "uint256",
          "name": "",
          "type": "uint256"
        }
      ],
      "stateMutability": "view",
      "type": "function"
    }
  ],
  "bytecode": "0x608060405266038d7ea4c68000600a556040600b60006101000a81548160ff021916908360ff1602179055506004600b60016101000a81548160ff021916908360ff1602179055506001600b60026101000a81548160ff021916908315150217905550600061400e55604051806103e001604052806040518060400160405280600b81526020017f7261696e666f727265737400000000000000000000000000000000000000000081525081526020016040518060400160405280600b81526020017f7261696e666f727265737400000000000000000000000000000000000000000081525081526020016040518060400160405280600b81526020017f7261696e666f727265737400000000000000000000000000000000000000000081525081526020016040518060400160405280600681526020017f646573657274000000000000000000000000000000000000000000000000000081525081526020016040518060400160405280600681526020017f646573657274000000000000000000000000000000000000000000000000000081525081526020016040518060400160405280600681526020017f646573657274000000000000000000000000000000000000000000000000000081525081526020016040518060400160405280600681526020017f646573657274000000000000000000000000000000000000000000000000000081525081526020016040518060400160405280600581526020017f746169676100000000000000000000000000000000000000000000000000000081525081526020016040518060400160405280600581526020017f746169676100000000000000000000000000000000000000000000000000000081525081526020016040518060400160405280600581526020017f746169676100000000000000000000000000000000000000000000000000000081525081526020016040518060400160405280600581526020017f746169676100000000000000000000000000000000000000000000000000000081525081526020016040518060400160405280600781526020017f7765746c616e640000000000000000000000000000000000000000000000000081525081526020016040518060400160405280600781526020017f7765746c616e640000000000000000000000000000000000000000000000000081525081526020016040518060400160405280600781526020017f7765746c616e640000000000000000000000000000000000000000000000000081525081526020016040518060400160405280600781526020017f7765746c616e640000000000000000000000000000000000000000000000000081525081526020016040518060400160405280600481526020017f736e6f770000000000000000000000000000000000000000000000000000000081525081526020016040518060400160405280600881526020017f6d6f756e7461696e00000000000000000000000000000000000000000000000081525081526020016040518060400160405280600781526020017f736176616e61680000000000000000000000000000000000000000000000000081525081526020016040518060400160405280600481526020017f736e6f770000000000000000000000000000000000000000000000000000000081525081526020016040518060400160405280600881526020017f6d6f756e7461696e00000000000000000000000000000000000000000000000081525081526020016040518060400160405280600781526020017f736176616e61680000000000000000000000000000000000000000000000000081525081526020016040518060400160405280600e81526020017f6c756e6172207265676f6c69746800000000000000000000000000000000000081525081526020016040518060400160405280600681526020017f707261726965000000000000000000000000000000000000000000000000000081525081526020016040518060400160405280600681526020017f707261726965000000000000000000000000000000000000000000000000000081525081526020016040518060400160405280600681526020017f707261726965000000000000000000000000000000000000000000000000000081525081526020016040518060400160405280600681526020017f707261726965000000000000000000000000000000000000000000000000000081525081526020016040518060400160405280600681526020017f707261726965000000000000000000000000000000000000000000000000000081525081526020016040518060400160405280600581526020017f737061636500000000000000000000000000000000000000000000000000000081525081526020016040518060400160405280600981526020017f63616e64796c616e64000000000000000000000000000000000000000000000081525081526020016040518060400160405280601181526020017f6172746966696369616c2069736c616e6400000000000000000000000000000081525081526020016040518060400160405280601181526020017f6172746966696369616c2069736c616e6400000000000000000000000000000081525081525061400f90601f620007aa92919062001635565b50604051806104e001604052806040518060400160405280600481526020017f676f6c640000000000000000000000000000000000000000000000000000000081525081526020016040518060400160405280600681526020017f73696c766572000000000000000000000000000000000000000000000000000081525081526020016040518060400160405280600481526020017f676f6c640000000000000000000000000000000000000000000000000000000081525081526020016040518060400160405280600681526020017f73696c766572000000000000000000000000000000000000000000000000000081525081526020016040518060400160405280600681526020017f73696c766572000000000000000000000000000000000000000000000000000081525081526020016040518060400160405280600581526020017f636f70657200000000000000000000000000000000000000000000000000000081525081526020016040518060400160405280600481526020017f776f6f640000000000000000000000000000000000000000000000000000000081525081526020016040518060400160405280600581526020017f636f70657200000000000000000000000000000000000000000000000000000081525081526020016040518060400160405280600581526020017f636f70657200000000000000000000000000000000000000000000000000000081525081526020016040518060400160405280600481526020017f69726f6e0000000000000000000000000000000000000000000000000000000081525081526020016040518060400160405280600481526020017f69726f6e0000000000000000000000000000000000000000000000000000000081525081526020016040518060400160405280600481526020017f69726f6e0000000000000000000000000000000000000000000000000000000081525081526020016040518060400160405280600481526020017f69726f6e0000000000000000000000000000000000000000000000000000000081525081526020016040518060400160405280600481526020017f69726f6e0000000000000000000000000000000000000000000000000000000081525081526020016040518060400160405280600881526020017f706c6174696e756d00000000000000000000000000000000000000000000000081525081526020016040518060400160405280600b81526020017f756e6f627461696e69756d00000000000000000000000000000000000000000081525081526020016040518060400160405280600481526020017f73616e640000000000000000000000000000000000000000000000000000000081525081526020016040518060400160405280600481526020017f73616e640000000000000000000000000000000000000000000000000000000081525081526020016040518060400160405280600481526020017f73616e640000000000000000000000000000000000000000000000000000000081525081526020016040518060400160405280600481526020017f727562790000000000000000000000000000000000000000000000000000000081525081526020016040518060400160405280600481526020017f727562790000000000000000000000000000000000000000000000000000000081525081526020016040518060400160405280600581526020017f626f726f6e00000000000000000000000000000000000000000000000000000081525081526020016040518060400160405280600581526020017f626f726f6e00000000000000000000000000000000000000000000000000000081525081526020016040518060400160405280600481526020017f73616c740000000000000000000000000000000000000000000000000000000081525081526020016040518060400160405280600481526020017f73616c740000000000000000000000000000000000000000000000000000000081525081526020016040518060400160405280600481526020017f73616c740000000000000000000000000000000000000000000000000000000081525081526020016040518060400160405280600481526020017f73616c740000000000000000000000000000000000000000000000000000000081525081526020016040518060400160405280600881526020017f746962657269756d00000000000000000000000000000000000000000000000081525081526020016040518060400160405280600481526020017f776f6f640000000000000000000000000000000000000000000000000000000081525081526020016040518060400160405280600481526020017f776f6f640000000000000000000000000000000000000000000000000000000081525081526020016040518060400160405280600381526020017f6f696c000000000000000000000000000000000000000000000000000000000081525081526020016040518060400160405280600381526020017f6f696c000000000000000000000000000000000000000000000000000000000081525081526020016040518060400160405280600481526020017f636f616c0000000000000000000000000000000000000000000000000000000081525081526020016040518060400160405280600481526020017f636f616c0000000000000000000000000000000000000000000000000000000081525081526020016040518060400160405280600481526020017f636f616c0000000000000000000000000000000000000000000000000000000081525081526020016040518060400160405280600381526020017f74696e000000000000000000000000000000000000000000000000000000000081525081526020016040518060400160405280600681526020017f636f62616c74000000000000000000000000000000000000000000000000000081525081526020016040518060400160405280600681526020017f636f62616c74000000000000000000000000000000000000000000000000000081525081526020016040518060400160405280600481526020017f6f6e797800000000000000000000000000000000000000000000000000000000815250815250614010906027620010c59291906200169c565b506040518061010001604052806040518060400160405280600981526020017f64696e6f7361757273000000000000000000000000000000000000000000000081525081526020016040518060400160405280600781526020017f6d616d6d616c730000000000000000000000000000000000000000000000000081525081526020016040518060400160405280600781526020017f6d616d6d616c730000000000000000000000000000000000000000000000000081525081526020016040518060400160405280600781526020017f6d616d6d616c730000000000000000000000000000000000000000000000000081525081526020016040518060400160405280600781526020017f6d616d6d616c730000000000000000000000000000000000000000000000000081525081526020016040518060400160405280600781526020017f6d616d6d616c730000000000000000000000000000000000000000000000000081525081526020016040518060400160405280600a81526020017f6d617273757069616c730000000000000000000000000000000000000000000081525081526020016040518060400160405280600a81526020017f6d617273757069616c7300000000000000000000000000000000000000000000815250815250614011906008620012bb92919062001703565b5060405162007a9f38038062007a9f8339818101604052810190620012e1919062001d57565b6040518060400160405280600881526020017f4e6f6c616e6469610000000000000000000000000000000000000000000000008152506040518060400160405280600681526020017f4e4f4c414e4400000000000000000000000000000000000000000000000000008152508160029080519060200190620013659291906200176a565b5080600390805190602001906200137e9291906200176a565b505050620013a162001395620013e860201b60201c565b620013f060201b60201c565b8161400d9080519060200190620013ba9291906200176a565b50620013cd8484620014b660201b60201c565b620013de81620013f060201b60201c565b5050505062001ff2565b600033905090565b6000600860009054906101000a900473ffffffffffffffffffffffffffffffffffffffff16905081600860006101000a81548173ffffffffffffffffffffffffffffffffffffffff021916908373ffffffffffffffffffffffffffffffffffffffff1602179055508173ffffffffffffffffffffffffffffffffffffffff168173ffffffffffffffffffffffffffffffffffffffff167f8be0079c531659141344cd1fd0a4f28419497f9722a3daafe3b4186f6b6457e060405160405180910390a35050565b620014c6620013e860201b60201c565b73ffffffffffffffffffffffffffffffffffffffff16620014ec6200160b60201b60201c565b73ffffffffffffffffffffffffffffffffffffffff161462001545576040517f08c379a00000000000000000000000000000000000000000000000000000000081526004016200153c9062001e87565b60405180910390fd5b80518251146200158c576040517f08c379a0000000000000000000000000000000000000000000000000000000008152600401620015839062001ef9565b60405180910390fd5b6000825111620015d3576040517f08c379a0000000000000000000000000000000000000000000000000000000008152600401620015ca9062001f6b565b60405180910390fd5b816140129080519060200190620015ec929190620017fb565b50806140139080519060200190620016069291906200188a565b505050565b6000600860009054906101000a900473ffffffffffffffffffffffffffffffffffffffff16905090565b82805482825590600052602060002090810192821562001689579160200282015b8281111562001688578251829080519060200190620016779291906200176a565b509160200191906001019062001656565b5b509050620016989190620018dc565b5090565b828054828255906000526020600020908101928215620016f0579160200282015b82811115620016ef578251829080519060200190620016de9291906200176a565b5091602001919060010190620016bd565b5b509050620016ff9190620018dc565b5090565b82805482825590600052602060002090810192821562001757579160200282015b8281111562001756578251829080519060200190620017459291906200176a565b509160200191906001019062001724565b5b509050620017669190620018dc565b5090565b828054620017789062001fbc565b90600052602060002090601f0160209004810192826200179c5760008555620017e8565b82601f10620017b757805160ff1916838001178555620017e8565b82800160010185558215620017e8579182015b82811115620017e7578251825591602001919060010190620017ca565b5b509050620017f7919062001904565b5090565b82805482825590600052602060002090810192821562001877579160200282015b82811115620018765782518260006101000a81548173ffffffffffffffffffffffffffffffffffffffff021916908373ffffffffffffffffffffffffffffffffffffffff160217905550916020019190600101906200181c565b5b50905062001886919062001904565b5090565b828054828255906000526020600020908101928215620018c9579160200282015b82811115620018c8578251825591602001919060010190620018ab565b5b509050620018d8919062001904565b5090565b5b80821115620019005760008181620018f6919062001923565b50600101620018dd565b5090565b5b808211156200191f57600081600090555060010162001905565b5090565b508054620019319062001fbc565b6000825580601f1062001945575062001966565b601f01602090049060005260206000209081019062001965919062001904565b5b50565b6000604051905090565b600080fd5b600080fd5b600080fd5b6000601f19601f8301169050919050565b7f4e487b7100000000000000000000000000000000000000000000000000000000600052604160045260246000fd5b620019cd8262001982565b810181811067ffffffffffffffff82111715620019ef57620019ee62001993565b5b80604052505050565b600062001a0462001969565b905062001a128282620019c2565b919050565b600067ffffffffffffffff82111562001a355762001a3462001993565b5b602082029050602081019050919050565b600080fd5b600073ffffffffffffffffffffffffffffffffffffffff82169050919050565b600062001a788262001a4b565b9050919050565b62001a8a8162001a6b565b811462001a9657600080fd5b50565b60008151905062001aaa8162001a7f565b92915050565b600062001ac762001ac18462001a17565b620019f8565b9050808382526020820190506020840283018581111562001aed5762001aec62001a46565b5b835b8181101562001b1a578062001b05888262001a99565b84526020840193505060208101905062001aef565b5050509392505050565b600082601f83011262001b3c5762001b3b6200197d565b5b815162001b4e84826020860162001ab0565b91505092915050565b600067ffffffffffffffff82111562001b755762001b7462001993565b5b602082029050602081019050919050565b6000819050919050565b62001b9b8162001b86565b811462001ba757600080fd5b50565b60008151905062001bbb8162001b90565b92915050565b600062001bd862001bd28462001b57565b620019f8565b9050808382526020820190506020840283018581111562001bfe5762001bfd62001a46565b5b835b8181101562001c2b578062001c16888262001baa565b84526020840193505060208101905062001c00565b5050509392505050565b600082601f83011262001c4d5762001c4c6200197d565b5b815162001c5f84826020860162001bc1565b91505092915050565b600080fd5b600067ffffffffffffffff82111562001c8b5762001c8a62001993565b5b62001c968262001982565b9050602081019050919050565b60005b8381101562001cc357808201518184015260208101905062001ca6565b8381111562001cd3576000848401525b50505050565b600062001cf062001cea8462001c6d565b620019f8565b90508281526020810184848401111562001d0f5762001d0e62001c68565b5b62001d1c84828562001ca3565b509392505050565b600082601f83011262001d3c5762001d3b6200197d565b5b815162001d4e84826020860162001cd9565b91505092915050565b6000806000806080858703121562001d745762001d7362001973565b5b600085015167ffffffffffffffff81111562001d955762001d9462001978565b5b62001da38782880162001b24565b945050602085015167ffffffffffffffff81111562001dc75762001dc662001978565b5b62001dd58782880162001c35565b935050604085015167ffffffffffffffff81111562001df95762001df862001978565b5b62001e078782880162001d24565b925050606062001e1a8782880162001a99565b91505092959194509250565b600082825260208201905092915050565b7f4f776e61626c653a2063616c6c6572206973206e6f7420746865206f776e6572600082015250565b600062001e6f60208362001e26565b915062001e7c8262001e37565b602082019050919050565b6000602082019050818103600083015262001ea28162001e60565b9050919050565b7f626164207061796d656e7420696e666f00000000000000000000000000000000600082015250565b600062001ee160108362001e26565b915062001eee8262001ea9565b602082019050919050565b6000602082019050818103600083015262001f148162001ed2565b9050919050565b7f6e6f20706179656520696e666f00000000000000000000000000000000000000600082015250565b600062001f53600d8362001e26565b915062001f608262001f1b565b602082019050919050565b6000602082019050818103600083015262001f868162001f44565b9050919050565b7f4e487b7100000000000000000000000000000000000000000000000000000000600052602260045260246000fd5b6000600282049050600182168062001fd557607f821691505b6020821081141562001fec5762001feb62001f8d565b5b50919050565b615a9d80620020026000396000f3fe6080604052600436106101b75760003560e01c80638da5cb5b116100ec578063bcc7445f1161008a578063e305d9f011610064578063e305d9f014610639578063e8a3d48514610662578063e985e9c51461068d578063f2fde38b146106ca576101b7565b8063bcc7445f14610596578063c87b56dd146105bf578063e0325e0f146105fc576101b7565b8063a22cb465116100c6578063a22cb465146104f0578063ae05fb7814610519578063b88d4fde14610544578063ba40616c1461056d576101b7565b80638da5cb5b1461045d57806391e982051461048857806395d89b41146104c5576101b7565b806342842e0e116101595780636352211e116101335780636352211e146103b557806370a08231146103f2578063715018a61461042f5780638a74f60c14610446576101b7565b806342842e0e1461032157806355f804b31461034a57806361bf49ee14610373576101b7565b8063081812fc11610195578063081812fc14610254578063095ea7b31461029157806323b872dd146102ba5780632a55205a146102e3576101b7565b8063014676bc146101bc57806301ffc9a7146101ec57806306fdde0314610229575b600080fd5b6101d660048036038101906101d19190613a60565b6106f3565b6040516101e39190613ae0565b60405180910390f35b3480156101f857600080fd5b50610213600480360381019061020e9190613b53565b610d6d565b6040516102209190613b9b565b60405180910390f35b34801561023557600080fd5b5061023e610d7f565b60405161024b9190613c4f565b60405180910390f35b34801561026057600080fd5b5061027b60048036038101906102769190613c9d565b610e11565b6040516102889190613d0b565b60405180910390f35b34801561029d57600080fd5b506102b860048036038101906102b39190613d52565b610e96565b005b3480156102c657600080fd5b506102e160048036038101906102dc9190613d92565b610fae565b005b3480156102ef57600080fd5b5061030a60048036038101906103059190613de5565b61100e565b604051610318929190613e25565b60405180910390f35b34801561032d57600080fd5b5061034860048036038101906103439190613d92565b6111f9565b005b34801561035657600080fd5b50610371600480360381019061036c9190613eb3565b611219565b005b34801561037f57600080fd5b5061039a60048036038101906103959190613c9d565b6112ac565b6040516103ac96959493929190613f0f565b60405180910390f35b3480156103c157600080fd5b506103dc60048036038101906103d79190613c9d565b61133d565b6040516103e99190613d0b565b60405180910390f35b3480156103fe57600080fd5b5061041960048036038101906104149190613f70565b6113ef565b6040516104269190613ae0565b60405180910390f35b34801561043b57600080fd5b506104446114a7565b005b34801561045257600080fd5b5061045b61152f565b005b34801561046957600080fd5b506104726115c8565b60405161047f9190613d0b565b60405180910390f35b34801561049457600080fd5b506104af60048036038101906104aa9190613de5565b6115f2565b6040516104bc9190613ae0565b60405180910390f35b3480156104d157600080fd5b506104da611620565b6040516104e79190613c4f565b60405180910390f35b3480156104fc57600080fd5b5061051760048036038101906105129190613fc9565b6116b2565b005b34801561052557600080fd5b5061052e6116c8565b60405161053b9190613ae0565b60405180910390f35b34801561055057600080fd5b5061056b60048036038101906105669190614139565b6116ce565b005b34801561057957600080fd5b50610594600480360381019061058f919061424e565b611730565b005b3480156105a257600080fd5b506105bd60048036038101906105b89190614448565b6119b9565b005b3480156105cb57600080fd5b506105e660048036038101906105e19190613c9d565b611af1565b6040516105f39190613c4f565b60405180910390f35b34801561060857600080fd5b50610623600480360381019061061e9190613a60565b611b98565b6040516106309190613ae0565b60405180910390f35b34801561064557600080fd5b50610660600480360381019061065b9190613c9d565b612271565b005b34801561066e57600080fd5b5061067761234d565b6040516106849190613c4f565b60405180910390f35b34801561069957600080fd5b506106b460048036038101906106af91906144c0565b61237b565b6040516106c19190613b9b565b60405180910390f35b3480156106d657600080fd5b506106f160048036038101906106ec9190613f70565b61240f565b005b6000808560ff161015801561070c575060008460ff1610155b61074b576040517f08c379a00000000000000000000000000000000000000000000000000000000081526004016107429061454c565b60405180910390fd5b60808360ff1611158015610763575060808260ff1611155b6107a2576040517f08c379a0000000000000000000000000000000000000000000000000000000008152600401610799906145b8565b60405180910390fd5b8260ff168560ff161080156107bc57508160ff168460ff16105b6107fb576040517f08c379a00000000000000000000000000000000000000000000000000000000081526004016107f29061464a565b60405180910390fd5b600084836108099190614699565b86856108159190614699565b61081f91906146cd565b60ff16905034600b60009054906101000a900460ff1660ff16600a54836108469190614708565b6108509190614708565b14610890576040517f08c379a0000000000000000000000000000000000000000000000000000000008152600401610887906147ae565b60405180910390fd5b61089a6009612507565b60006108a6600961251d565b9050600115156108b88888888861252b565b1515146108fa576040517f08c379a00000000000000000000000000000000000000000000000000000000081526004016108f190614840565b60405180910390fd5b6109026125d5565b61090f87878787856128a8565b6109193382612935565b6040518060c001604052808860ff1681526020018760ff1681526020018660ff1681526020018560ff1681526020018281526020013373ffffffffffffffffffffffffffffffffffffffff1681525061400c600083815260200190815260200160002060008201518160000160006101000a81548160ff021916908360ff16021790555060208201518160000160016101000a81548160ff021916908360ff16021790555060408201518160000160026101000a81548160ff021916908360ff16021790555060608201518160000160036101000a81548160ff021916908360ff1602179055506080820151816001015560a08201518160020160006101000a81548173ffffffffffffffffffffffffffffffffffffffff021916908373ffffffffffffffffffffffffffffffffffffffff16021790555090505060006004610a60612953565b610a6a919061488f565b83610a759190614708565b90506000610b54614010805480602002602001604051908101604052809291908181526020016000905b82821015610b4b578382906000526020600020018054610abe906148ef565b80601f0160208091040260200160405190810160405280929190818152602001828054610aea906148ef565b8015610b375780601f10610b0c57610100808354040283529160200191610b37565b820191906000526020600020905b815481529060010190602001808311610b1a57829003601f168201915b505050505081526020019060010190610a9f565b505050506129a4565b90506000610c3361400f805480602002602001604051908101604052809291908181526020016000905b82821015610c2a578382906000526020600020018054610b9d906148ef565b80601f0160208091040260200160405190810160405280929190818152602001828054610bc9906148ef565b8015610c165780601f10610beb57610100808354040283529160200191610c16565b820191906000526020600020905b815481529060010190602001808311610bf957829003601f168201915b505050505081526020019060010190610b7e565b505050506129a4565b90506000610d12614011805480602002602001604051908101604052809291908181526020016000905b82821015610d09578382906000526020600020018054610c7c906148ef565b80601f0160208091040260200160405190810160405280929190818152602001828054610ca8906148ef565b8015610cf55780601f10610cca57610100808354040283529160200191610cf5565b820191906000526020600020905b815481529060010190602001808311610cd857829003601f168201915b505050505081526020019060010190610c5d565b505050506129a4565b9050847f6e2ffbd350baaa51738934b7e5f9ebb948a12cca6c5a62cb45e233e044db33c0338d8d8d8d8a8a8a8a604051610d5499989796959493929190614921565b60405180910390a2849650505050505050949350505050565b6000610d78826129db565b9050919050565b606060028054610d8e906148ef565b80601f0160208091040260200160405190810160405280929190818152602001828054610dba906148ef565b8015610e075780601f10610ddc57610100808354040283529160200191610e07565b820191906000526020600020905b815481529060010190602001808311610dea57829003601f168201915b5050505050905090565b6000610e1c82612abd565b610e5b576040517f08c379a0000000000000000000000000000000000000000000000000000000008152600401610e5290614a35565b60405180910390fd5b6006600083815260200190815260200160002060009054906101000a900473ffffffffffffffffffffffffffffffffffffffff169050919050565b6000610ea18261133d565b90508073ffffffffffffffffffffffffffffffffffffffff168373ffffffffffffffffffffffffffffffffffffffff161415610f12576040517f08c379a0000000000000000000000000000000000000000000000000000000008152600401610f0990614ac7565b60405180910390fd5b8073ffffffffffffffffffffffffffffffffffffffff16610f31612b29565b73ffffffffffffffffffffffffffffffffffffffff161480610f605750610f5f81610f5a612b29565b61237b565b5b610f9f576040517f08c379a0000000000000000000000000000000000000000000000000000000008152600401610f9690614b59565b60405180910390fd5b610fa98383612b31565b505050565b610fbf610fb9612b29565b82612bea565b610ffe576040517f08c379a0000000000000000000000000000000000000000000000000000000008152600401610ff590614beb565b60405180910390fd5b611009838383612cc8565b505050565b6000806000600160008681526020019081526020016000206040518060400160405290816000820160009054906101000a900473ffffffffffffffffffffffffffffffffffffffff1673ffffffffffffffffffffffffffffffffffffffff1673ffffffffffffffffffffffffffffffffffffffff1681526020016000820160149054906101000a90046bffffffffffffffffffffffff166bffffffffffffffffffffffff166bffffffffffffffffffffffff16815250509050600073ffffffffffffffffffffffffffffffffffffffff16816000015173ffffffffffffffffffffffffffffffffffffffff1614156111a45760006040518060400160405290816000820160009054906101000a900473ffffffffffffffffffffffffffffffffffffffff1673ffffffffffffffffffffffffffffffffffffffff1673ffffffffffffffffffffffffffffffffffffffff1681526020016000820160149054906101000a90046bffffffffffffffffffffffff166bffffffffffffffffffffffff166bffffffffffffffffffffffff168152505090505b60006111ae612f2f565b6bffffffffffffffffffffffff1682602001516bffffffffffffffffffffffff16866111da9190614708565b6111e49190614c0b565b90508160000151819350935050509250929050565b611214838383604051806020016040528060008152506116ce565b505050565b611221612b29565b73ffffffffffffffffffffffffffffffffffffffff1661123f6115c8565b73ffffffffffffffffffffffffffffffffffffffff1614611295576040517f08c379a000000000000000000000000000000000000000000000000000000000815260040161128c90614c88565b60405180910390fd5b818161400d91906112a7929190613899565b505050565b61400c6020528060005260406000206000915090508060000160009054906101000a900460ff16908060000160019054906101000a900460ff16908060000160029054906101000a900460ff16908060000160039054906101000a900460ff16908060010154908060020160009054906101000a900473ffffffffffffffffffffffffffffffffffffffff16905086565b6000806004600084815260200190815260200160002060009054906101000a900473ffffffffffffffffffffffffffffffffffffffff169050600073ffffffffffffffffffffffffffffffffffffffff168173ffffffffffffffffffffffffffffffffffffffff1614156113e6576040517f08c379a00000000000000000000000000000000000000000000000000000000081526004016113dd90614d1a565b60405180910390fd5b80915050919050565b60008073ffffffffffffffffffffffffffffffffffffffff168273ffffffffffffffffffffffffffffffffffffffff161415611460576040517f08c379a000000000000000000000000000000000000000000000000000000000815260040161145790614dac565b60405180910390fd5b600560008373ffffffffffffffffffffffffffffffffffffffff1673ffffffffffffffffffffffffffffffffffffffff168152602001908152602001600020549050919050565b6114af612b29565b73ffffffffffffffffffffffffffffffffffffffff166114cd6115c8565b73ffffffffffffffffffffffffffffffffffffffff1614611523576040517f08c379a000000000000000000000000000000000000000000000000000000000815260040161151a90614c88565b60405180910390fd5b61152d6000612f39565b565b611537612b29565b73ffffffffffffffffffffffffffffffffffffffff166115556115c8565b73ffffffffffffffffffffffffffffffffffffffff16146115ab576040517f08c379a00000000000000000000000000000000000000000000000000000000081526004016115a290614c88565b60405180910390fd5b6000600b60026101000a81548160ff021916908315150217905550565b6000600860009054906101000a900473ffffffffffffffffffffffffffffffffffffffff16905090565b600c826080811061160257600080fd5b60800201816080811061161457600080fd5b01600091509150505481565b60606003805461162f906148ef565b80601f016020809104026020016040519081016040528092919081815260200182805461165b906148ef565b80156116a85780601f1061167d576101008083540402835291602001916116a8565b820191906000526020600020905b81548152906001019060200180831161168b57829003601f168201915b5050505050905090565b6116c46116bd612b29565b8383612fff565b5050565b600a5481565b6116df6116d9612b29565b83612bea565b61171e576040517f08c379a000000000000000000000000000000000000000000000000000000000815260040161171590614beb565b60405180910390fd5b61172a8484848461316c565b50505050565b3373ffffffffffffffffffffffffffffffffffffffff166117508261133d565b73ffffffffffffffffffffffffffffffffffffffff16146117a6576040517f08c379a000000000000000000000000000000000000000000000000000000000815260040161179d90614e18565b60405180910390fd5b600061400c60008381526020019081526020016000206040518060c00160405290816000820160009054906101000a900460ff1660ff1660ff1681526020016000820160019054906101000a900460ff1660ff1660ff1681526020016000820160029054906101000a900460ff1660ff1660ff1681526020016000820160039054906101000a900460ff1660ff1660ff168152602001600182015481526020016002820160009054906101000a900473ffffffffffffffffffffffffffffffffffffffff1673ffffffffffffffffffffffffffffffffffffffff1673ffffffffffffffffffffffffffffffffffffffff168152505090506000816000015182604001516118b39190614699565b60ff1690506000826020015183606001516118ce9190614699565b60ff1690506000600b60019054906101000a900460ff1660ff16600b60009054906101000a900460ff1660ff1683856119079190614e38565b6119119190614e38565b61191b9190614e38565b905087879050868261192d9190614e76565b63ffffffff1614611973576040517f08c379a000000000000000000000000000000000000000000000000000000000815260040161196a90614ef6565b60405180910390fd5b847f47ee6ab5fd8ad0730942a6c72cd66664fdc3599559a9a9c85076e619ab936f0f878a8a6040516119a793929190614fe8565b60405180910390a25050505050505050565b6119c1612b29565b73ffffffffffffffffffffffffffffffffffffffff166119df6115c8565b73ffffffffffffffffffffffffffffffffffffffff1614611a35576040517f08c379a0000000000000000000000000000000000000000000000000000000008152600401611a2c90614c88565b60405180910390fd5b8051825114611a79576040517f08c379a0000000000000000000000000000000000000000000000000000000008152600401611a7090615066565b60405180910390fd5b6000825111611abd576040517f08c379a0000000000000000000000000000000000000000000000000000000008152600401611ab4906150d2565b60405180910390fd5b816140129080519060200190611ad492919061391f565b50806140139080519060200190611aec9291906139a9565b505050565b6060611afc82612abd565b611b3b576040517f08c379a0000000000000000000000000000000000000000000000000000000008152600401611b3290615164565b60405180910390fd5b6000611b456131c8565b90506000815111611b655760405180602001604052806000815250611b90565b80611b6f8461325b565b604051602001611b809291906151c0565b6040516020818303038152906040525b915050919050565b6000611ba2612b29565b73ffffffffffffffffffffffffffffffffffffffff16611bc06115c8565b73ffffffffffffffffffffffffffffffffffffffff1614611c16576040517f08c379a0000000000000000000000000000000000000000000000000000000008152600401611c0d90614c88565b60405180910390fd5b60011515600b60029054906101000a900460ff16151514611c6c576040517f08c379a0000000000000000000000000000000000000000000000000000000008152600401611c6390615230565b60405180910390fd5b60008560ff1610158015611c84575060008460ff1610155b611cc3576040517f08c379a0000000000000000000000000000000000000000000000000000000008152600401611cba9061454c565b60405180910390fd5b60808360ff1611158015611cdb575060808260ff1611155b611d1a576040517f08c379a0000000000000000000000000000000000000000000000000000000008152600401611d11906145b8565b60405180910390fd5b8260ff168560ff16108015611d3457508160ff168460ff16105b611d73576040517f08c379a0000000000000000000000000000000000000000000000000000000008152600401611d6a9061464a565b60405180910390fd5b60011515611d838686868661252b565b151514611dc5576040517f08c379a0000000000000000000000000000000000000000000000000000000008152600401611dbc90614840565b60405180910390fd5b611dcf6009612507565b6000611ddb600961251d565b9050611dea86868686856128a8565b611df43382612935565b6040518060c001604052808760ff1681526020018660ff1681526020018560ff1681526020018460ff1681526020018281526020013373ffffffffffffffffffffffffffffffffffffffff1681525061400c600083815260200190815260200160002060008201518160000160006101000a81548160ff021916908360ff16021790555060208201518160000160016101000a81548160ff021916908360ff16021790555060408201518160000160026101000a81548160ff021916908360ff16021790555060608201518160000160036101000a81548160ff021916908360ff1602179055506080820151816001015560a08201518160020160006101000a81548173ffffffffffffffffffffffffffffffffffffffff021916908373ffffffffffffffffffffffffffffffffffffffff16021790555090505060008584611f3d9190614699565b8786611f499190614699565b611f5391906146cd565b60ff16905060006004611f64612953565b611f6e919061488f565b82611f799190614708565b90506000612058614010805480602002602001604051908101604052809291908181526020016000905b8282101561204f578382906000526020600020018054611fc2906148ef565b80601f0160208091040260200160405190810160405280929190818152602001828054611fee906148ef565b801561203b5780601f106120105761010080835404028352916020019161203b565b820191906000526020600020905b81548152906001019060200180831161201e57829003601f168201915b505050505081526020019060010190611fa3565b505050506129a4565b9050600061213761400f805480602002602001604051908101604052809291908181526020016000905b8282101561212e5783829060005260206000200180546120a1906148ef565b80601f01602080910402602001604051908101604052809291908181526020018280546120cd906148ef565b801561211a5780601f106120ef5761010080835404028352916020019161211a565b820191906000526020600020905b8154815290600101906020018083116120fd57829003601f168201915b505050505081526020019060010190612082565b505050506129a4565b90506000612216614011805480602002602001604051908101604052809291908181526020016000905b8282101561220d578382906000526020600020018054612180906148ef565b80601f01602080910402602001604051908101604052809291908181526020018280546121ac906148ef565b80156121f95780601f106121ce576101008083540402835291602001916121f9565b820191906000526020600020905b8154815290600101906020018083116121dc57829003601f168201915b505050505081526020019060010190612161565b505050506129a4565b9050857f6e2ffbd350baaa51738934b7e5f9ebb948a12cca6c5a62cb45e233e044db33c0338d8d8d8d8a8a8a8a60405161225899989796959493929190614921565b60405180910390a2859650505050505050949350505050565b612279612b29565b73ffffffffffffffffffffffffffffffffffffffff166122976115c8565b73ffffffffffffffffffffffffffffffffffffffff16146122ed576040517f08c379a00000000000000000000000000000000000000000000000000000000081526004016122e490614c88565b60405180910390fd5b60011515600b60029054906101000a900460ff16151514612343576040517f08c379a000000000000000000000000000000000000000000000000000000000815260040161233a9061529c565b60405180910390fd5b80600a8190555050565b60606123576131c8565b6040516020016123679190615308565b604051602081830303815290604052905090565b6000600760008473ffffffffffffffffffffffffffffffffffffffff1673ffffffffffffffffffffffffffffffffffffffff16815260200190815260200160002060008373ffffffffffffffffffffffffffffffffffffffff1673ffffffffffffffffffffffffffffffffffffffff16815260200190815260200160002060009054906101000a900460ff16905092915050565b612417612b29565b73ffffffffffffffffffffffffffffffffffffffff166124356115c8565b73ffffffffffffffffffffffffffffffffffffffff161461248b576040517f08c379a000000000000000000000000000000000000000000000000000000000815260040161248290614c88565b60405180910390fd5b600073ffffffffffffffffffffffffffffffffffffffff168173ffffffffffffffffffffffffffffffffffffffff1614156124fb576040517f08c379a00000000000000000000000000000000000000000000000000000000081526004016124f29061539c565b60405180910390fd5b61250481612f39565b50565b6001816000016000828254019250508190555050565b600081600001549050919050565b6000808590505b8360ff168160ff1610156125c75760008590505b8360ff168160ff1610156125b3576000600c8360ff166080811061256d5761256c6153bc565b5b608002018260ff1660808110612586576125856153bc565b5b01549050600081111561259f57600093505050506125cd565b5080806125ab906153eb565b915050612546565b5080806125bf906153eb565b915050612532565b50600190505b949350505050565b60008047905060005b614013805490508160ff161015612632576140138160ff1681548110612607576126066153bc565b5b90600052602060002001548361261d9190615415565b9250808061262a906153eb565b9150506125de565b5060005b600161401280549050612649919061546b565b8160ff161015612799576000836140138360ff168154811061266e5761266d6153bc565b5b9060005260206000200154846126849190614708565b61268e9190614c0b565b905060006140128360ff16815481106126aa576126a96153bc565b5b9060005260206000200160009054906101000a900473ffffffffffffffffffffffffffffffffffffffff16905060008173ffffffffffffffffffffffffffffffffffffffff16836040516126fd906154d0565b60006040518083038185875af1925050503d806000811461273a576040519150601f19603f3d011682016040523d82523d6000602084013e61273f565b606091505b5050905080612783576040517f08c379a000000000000000000000000000000000000000000000000000000000815260040161277a90615531565b60405180910390fd5b5050508080612791906153eb565b915050612636565b5060006140126001614012805490506127b2919061546b565b815481106127c3576127c26153bc565b5b9060005260206000200160009054906101000a900473ffffffffffffffffffffffffffffffffffffffff169050600047905060008273ffffffffffffffffffffffffffffffffffffffff168260405161281b906154d0565b60006040518083038185875af1925050503d8060008114612858576040519150601f19603f3d011682016040523d82523d6000602084013e61285d565b606091505b50509050806128a1576040517f08c379a000000000000000000000000000000000000000000000000000000000815260040161289890615531565b60405180910390fd5b5050505050565b60008590505b8360ff168160ff16101561292d5760008590505b8360ff168160ff1610156129195782600c8360ff16608081106128e8576128e76153bc565b5b608002018260ff1660808110612901576129006153bc565b5b01819055508080612911906153eb565b9150506128c2565b508080612925906153eb565b9150506128ae565b505050505050565b61294f8282604051806020016040528060008152506133bc565b5050565b600061400e600081548092919061296990615551565b9190505550444261400e54604051602001612986939291906155bb565b6040516020818303038152906040528051906020012060001c905090565b60608182516129b1612953565b6129bb919061488f565b815181106129cc576129cb6153bc565b5b60200260200101519050919050565b60007f80ac58cd000000000000000000000000000000000000000000000000000000007bffffffffffffffffffffffffffffffffffffffffffffffffffffffff1916827bffffffffffffffffffffffffffffffffffffffffffffffffffffffff19161480612aa657507f5b5e139f000000000000000000000000000000000000000000000000000000007bffffffffffffffffffffffffffffffffffffffffffffffffffffffff1916827bffffffffffffffffffffffffffffffffffffffffffffffffffffffff1916145b80612ab65750612ab582613417565b5b9050919050565b60008073ffffffffffffffffffffffffffffffffffffffff166004600084815260200190815260200160002060009054906101000a900473ffffffffffffffffffffffffffffffffffffffff1673ffffffffffffffffffffffffffffffffffffffff1614159050919050565b600033905090565b816006600083815260200190815260200160002060006101000a81548173ffffffffffffffffffffffffffffffffffffffff021916908373ffffffffffffffffffffffffffffffffffffffff160217905550808273ffffffffffffffffffffffffffffffffffffffff16612ba48361133d565b73ffffffffffffffffffffffffffffffffffffffff167f8c5be1e5ebec7d5bd14f71427d1e84f3dd0314c0f7b2291e5b200ac8c7c3b92560405160405180910390a45050565b6000612bf582612abd565b612c34576040517f08c379a0000000000000000000000000000000000000000000000000000000008152600401612c2b9061566a565b60405180910390fd5b6000612c3f8361133d565b90508073ffffffffffffffffffffffffffffffffffffffff168473ffffffffffffffffffffffffffffffffffffffff161480612c815750612c80818561237b565b5b80612cbf57508373ffffffffffffffffffffffffffffffffffffffff16612ca784610e11565b73ffffffffffffffffffffffffffffffffffffffff16145b91505092915050565b8273ffffffffffffffffffffffffffffffffffffffff16612ce88261133d565b73ffffffffffffffffffffffffffffffffffffffff1614612d3e576040517f08c379a0000000000000000000000000000000000000000000000000000000008152600401612d35906156fc565b60405180910390fd5b600073ffffffffffffffffffffffffffffffffffffffff168273ffffffffffffffffffffffffffffffffffffffff161415612dae576040517f08c379a0000000000000000000000000000000000000000000000000000000008152600401612da59061578e565b60405180910390fd5b612db9838383613491565b612dc4600082612b31565b6001600560008573ffffffffffffffffffffffffffffffffffffffff1673ffffffffffffffffffffffffffffffffffffffff1681526020019081526020016000206000828254612e14919061546b565b925050819055506001600560008473ffffffffffffffffffffffffffffffffffffffff1673ffffffffffffffffffffffffffffffffffffffff1681526020019081526020016000206000828254612e6b9190615415565b92505081905550816004600083815260200190815260200160002060006101000a81548173ffffffffffffffffffffffffffffffffffffffff021916908373ffffffffffffffffffffffffffffffffffffffff160217905550808273ffffffffffffffffffffffffffffffffffffffff168473ffffffffffffffffffffffffffffffffffffffff167fddf252ad1be2c89b69c2b068fc378daa952ba7f163c4a11628f55a4df523b3ef60405160405180910390a4612f2a838383613496565b505050565b6000612710905090565b6000600860009054906101000a900473ffffffffffffffffffffffffffffffffffffffff16905081600860006101000a81548173ffffffffffffffffffffffffffffffffffffffff021916908373ffffffffffffffffffffffffffffffffffffffff1602179055508173ffffffffffffffffffffffffffffffffffffffff168173ffffffffffffffffffffffffffffffffffffffff167f8be0079c531659141344cd1fd0a4f28419497f9722a3daafe3b4186f6b6457e060405160405180910390a35050565b8173ffffffffffffffffffffffffffffffffffffffff168373ffffffffffffffffffffffffffffffffffffffff16141561306e576040517f08c379a0000000000000000000000000000000000000000000000000000000008152600401613065906157fa565b60405180910390fd5b80600760008573ffffffffffffffffffffffffffffffffffffffff1673ffffffffffffffffffffffffffffffffffffffff16815260200190815260200160002060008473ffffffffffffffffffffffffffffffffffffffff1673ffffffffffffffffffffffffffffffffffffffff16815260200190815260200160002060006101000a81548160ff0219169083151502179055508173ffffffffffffffffffffffffffffffffffffffff168373ffffffffffffffffffffffffffffffffffffffff167f17307eab39ab6107e8899845ad3d59bd9653f200f220920489ca2b5937696c318360405161315f9190613b9b565b60405180910390a3505050565b613177848484612cc8565b6131838484848461349b565b6131c2576040517f08c379a00000000000000000000000000000000000000000000000000000000081526004016131b99061588c565b60405180910390fd5b50505050565b606061400d80546131d8906148ef565b80601f0160208091040260200160405190810160405280929190818152602001828054613204906148ef565b80156132515780601f1061322657610100808354040283529160200191613251565b820191906000526020600020905b81548152906001019060200180831161323457829003601f168201915b5050505050905090565b606060008214156132a3576040518060400160405280600181526020017f300000000000000000000000000000000000000000000000000000000000000081525090506133b7565b600082905060005b600082146132d55780806132be90615551565b915050600a826132ce9190614c0b565b91506132ab565b60008167ffffffffffffffff8111156132f1576132f061400e565b5b6040519080825280601f01601f1916602001820160405280156133235781602001600182028036833780820191505090505b5090505b600085146133b05760018261333c919061546b565b9150600a8561334b919061488f565b60306133579190615415565b60f81b81838151811061336d5761336c6153bc565b5b60200101907effffffffffffffffffffffffffffffffffffffffffffffffffffffffffffff1916908160001a905350600a856133a99190614c0b565b9450613327565b8093505050505b919050565b6133c68383613632565b6133d3600084848461349b565b613412576040517f08c379a00000000000000000000000000000000000000000000000000000000081526004016134099061588c565b60405180910390fd5b505050565b60007f2a55205a000000000000000000000000000000000000000000000000000000007bffffffffffffffffffffffffffffffffffffffffffffffffffffffff1916827bffffffffffffffffffffffffffffffffffffffffffffffffffffffff1916148061348a57506134898261380c565b5b9050919050565b505050565b505050565b60006134bc8473ffffffffffffffffffffffffffffffffffffffff16613876565b15613625578373ffffffffffffffffffffffffffffffffffffffff1663150b7a026134e5612b29565b8786866040518563ffffffff1660e01b81526004016135079493929190615901565b602060405180830381600087803b15801561352157600080fd5b505af192505050801561355257506040513d601f19601f8201168201806040525081019061354f9190615962565b60015b6135d5573d8060008114613582576040519150601f19603f3d011682016040523d82523d6000602084013e613587565b606091505b506000815114156135cd576040517f08c379a00000000000000000000000000000000000000000000000000000000081526004016135c49061588c565b60405180910390fd5b805181602001fd5b63150b7a0260e01b7bffffffffffffffffffffffffffffffffffffffffffffffffffffffff1916817bffffffffffffffffffffffffffffffffffffffffffffffffffffffff19161491505061362a565b600190505b949350505050565b600073ffffffffffffffffffffffffffffffffffffffff168273ffffffffffffffffffffffffffffffffffffffff1614156136a2576040517f08c379a0000000000000000000000000000000000000000000000000000000008152600401613699906159db565b60405180910390fd5b6136ab81612abd565b156136eb576040517f08c379a00000000000000000000000000000000000000000000000000000000081526004016136e290615a47565b60405180910390fd5b6136f760008383613491565b6001600560008473ffffffffffffffffffffffffffffffffffffffff1673ffffffffffffffffffffffffffffffffffffffff16815260200190815260200160002060008282546137479190615415565b92505081905550816004600083815260200190815260200160002060006101000a81548173ffffffffffffffffffffffffffffffffffffffff021916908373ffffffffffffffffffffffffffffffffffffffff160217905550808273ffffffffffffffffffffffffffffffffffffffff16600073ffffffffffffffffffffffffffffffffffffffff167fddf252ad1be2c89b69c2b068fc378daa952ba7f163c4a11628f55a4df523b3ef60405160405180910390a461380860008383613496565b5050565b60007f01ffc9a7000000000000000000000000000000000000000000000000000000007bffffffffffffffffffffffffffffffffffffffffffffffffffffffff1916827bffffffffffffffffffffffffffffffffffffffffffffffffffffffff1916149050919050565b6000808273ffffffffffffffffffffffffffffffffffffffff163b119050919050565b8280546138a5906148ef565b90600052602060002090601f0160209004810192826138c7576000855561390e565b82601f106138e057803560ff191683800117855561390e565b8280016001018555821561390e579182015b8281111561390d5782358255916020019190600101906138f2565b5b50905061391b91906139f6565b5090565b828054828255906000526020600020908101928215613998579160200282015b828111156139975782518260006101000a81548173ffffffffffffffffffffffffffffffffffffffff021916908373ffffffffffffffffffffffffffffffffffffffff1602179055509160200191906001019061393f565b5b5090506139a591906139f6565b5090565b8280548282559060005260206000209081019282156139e5579160200282015b828111156139e45782518255916020019190600101906139c9565b5b5090506139f291906139f6565b5090565b5b80821115613a0f5760008160009055506001016139f7565b5090565b6000604051905090565b600080fd5b600080fd5b600060ff82169050919050565b613a3d81613a27565b8114613a4857600080fd5b50565b600081359050613a5a81613a34565b92915050565b60008060008060808587031215613a7a57613a79613a1d565b5b6000613a8887828801613a4b565b9450506020613a9987828801613a4b565b9350506040613aaa87828801613a4b565b9250506060613abb87828801613a4b565b91505092959194509250565b6000819050919050565b613ada81613ac7565b82525050565b6000602082019050613af56000830184613ad1565b92915050565b60007fffffffff0000000000000000000000000000000000000000000000000000000082169050919050565b613b3081613afb565b8114613b3b57600080fd5b50565b600081359050613b4d81613b27565b92915050565b600060208284031215613b6957613b68613a1d565b5b6000613b7784828501613b3e565b91505092915050565b60008115159050919050565b613b9581613b80565b82525050565b6000602082019050613bb06000830184613b8c565b92915050565b600081519050919050565b600082825260208201905092915050565b60005b83811015613bf0578082015181840152602081019050613bd5565b83811115613bff576000848401525b50505050565b6000601f19601f8301169050919050565b6000613c2182613bb6565b613c2b8185613bc1565b9350613c3b818560208601613bd2565b613c4481613c05565b840191505092915050565b60006020820190508181036000830152613c698184613c16565b905092915050565b613c7a81613ac7565b8114613c8557600080fd5b50565b600081359050613c9781613c71565b92915050565b600060208284031215613cb357613cb2613a1d565b5b6000613cc184828501613c88565b91505092915050565b600073ffffffffffffffffffffffffffffffffffffffff82169050919050565b6000613cf582613cca565b9050919050565b613d0581613cea565b82525050565b6000602082019050613d206000830184613cfc565b92915050565b613d2f81613cea565b8114613d3a57600080fd5b50565b600081359050613d4c81613d26565b92915050565b60008060408385031215613d6957613d68613a1d565b5b6000613d7785828601613d3d565b9250506020613d8885828601613c88565b9150509250929050565b600080600060608486031215613dab57613daa613a1d565b5b6000613db986828701613d3d565b9350506020613dca86828701613d3d565b9250506040613ddb86828701613c88565b9150509250925092565b60008060408385031215613dfc57613dfb613a1d565b5b6000613e0a85828601613c88565b9250506020613e1b85828601613c88565b9150509250929050565b6000604082019050613e3a6000830185613cfc565b613e476020830184613ad1565b9392505050565b600080fd5b600080fd5b600080fd5b60008083601f840112613e7357613e72613e4e565b5b8235905067ffffffffffffffff811115613e9057613e8f613e53565b5b602083019150836001820283011115613eac57613eab613e58565b5b9250929050565b60008060208385031215613eca57613ec9613a1d565b5b600083013567ffffffffffffffff811115613ee857613ee7613a22565b5b613ef485828601613e5d565b92509250509250929050565b613f0981613a27565b82525050565b600060c082019050613f246000830189613f00565b613f316020830188613f00565b613f3e6040830187613f00565b613f4b6060830186613f00565b613f586080830185613ad1565b613f6560a0830184613cfc565b979650505050505050565b600060208284031215613f8657613f85613a1d565b5b6000613f9484828501613d3d565b91505092915050565b613fa681613b80565b8114613fb157600080fd5b50565b600081359050613fc381613f9d565b92915050565b60008060408385031215613fe057613fdf613a1d565b5b6000613fee85828601613d3d565b9250506020613fff85828601613fb4565b9150509250929050565b600080fd5b7f4e487b7100000000000000000000000000000000000000000000000000000000600052604160045260246000fd5b61404682613c05565b810181811067ffffffffffffffff821117156140655761406461400e565b5b80604052505050565b6000614078613a13565b9050614084828261403d565b919050565b600067ffffffffffffffff8211156140a4576140a361400e565b5b6140ad82613c05565b9050602081019050919050565b82818337600083830152505050565b60006140dc6140d784614089565b61406e565b9050828152602081018484840111156140f8576140f7614009565b5b6141038482856140ba565b509392505050565b600082601f8301126141205761411f613e4e565b5b81356141308482602086016140c9565b91505092915050565b6000806000806080858703121561415357614152613a1d565b5b600061416187828801613d3d565b945050602061417287828801613d3d565b935050604061418387828801613c88565b925050606085013567ffffffffffffffff8111156141a4576141a3613a22565b5b6141b08782880161410b565b91505092959194509250565b60008083601f8401126141d2576141d1613e4e565b5b8235905067ffffffffffffffff8111156141ef576141ee613e53565b5b60208301915083602082028301111561420b5761420a613e58565b5b9250929050565b600063ffffffff82169050919050565b61422b81614212565b811461423657600080fd5b50565b60008135905061424881614222565b92915050565b6000806000806060858703121561426857614267613a1d565b5b600085013567ffffffffffffffff81111561428657614285613a22565b5b614292878288016141bc565b945094505060206142a587828801614239565b92505060406142b687828801613c88565b91505092959194509250565b600067ffffffffffffffff8211156142dd576142dc61400e565b5b602082029050602081019050919050565b60006143016142fc846142c2565b61406e565b9050808382526020820190506020840283018581111561432457614323613e58565b5b835b8181101561434d57806143398882613d3d565b845260208401935050602081019050614326565b5050509392505050565b600082601f83011261436c5761436b613e4e565b5b813561437c8482602086016142ee565b91505092915050565b600067ffffffffffffffff8211156143a05761439f61400e565b5b602082029050602081019050919050565b60006143c46143bf84614385565b61406e565b905080838252602082019050602084028301858111156143e7576143e6613e58565b5b835b8181101561441057806143fc8882613c88565b8452602084019350506020810190506143e9565b5050509392505050565b600082601f83011261442f5761442e613e4e565b5b813561443f8482602086016143b1565b91505092915050565b6000806040838503121561445f5761445e613a1d565b5b600083013567ffffffffffffffff81111561447d5761447c613a22565b5b61448985828601614357565b925050602083013567ffffffffffffffff8111156144aa576144a9613a22565b5b6144b68582860161441a565b9150509250929050565b600080604083850312156144d7576144d6613a1d565b5b60006144e585828601613d3d565b92505060206144f685828601613d3d565b9150509250929050565b7f666972737420636f6f72642030206f7220626967676572000000000000000000600082015250565b6000614536601783613bc1565b915061454182614500565b602082019050919050565b6000602082019050818103600083015261456581614529565b9050919050565b7f7365636f6e6420636f6f726420313238206f7220736d616c6c65720000000000600082015250565b60006145a2601b83613bc1565b91506145ad8261456c565b602082019050919050565b600060208201905081810360008301526145d181614595565b9050919050565b7f326e6420636f6f726420736d616c6c6572207468616e20666972737420636f6f60008201527f7264000000000000000000000000000000000000000000000000000000000000602082015250565b6000614634602283613bc1565b915061463f826145d8565b604082019050919050565b6000602082019050818103600083015261466381614627565b9050919050565b7f4e487b7100000000000000000000000000000000000000000000000000000000600052601160045260246000fd5b60006146a482613a27565b91506146af83613a27565b9250828210156146c2576146c161466a565b5b828203905092915050565b60006146d882613a27565b91506146e383613a27565b92508160ff04831182151516156146fd576146fc61466a565b5b828202905092915050565b600061471382613ac7565b915061471e83613ac7565b9250817fffffffffffffffffffffffffffffffffffffffffffffffffffffffffffffffff04831182151516156147575761475661466a565b5b828202905092915050565b7f77726f6e6720616d6f756e740000000000000000000000000000000000000000600082015250565b6000614798600c83613bc1565b91506147a382614762565b602082019050919050565b600060208201905081810360008301526147c78161478b565b9050919050565b7f612073656c65637465642070617263656c20697320616c7265616479206f776e60008201527f6564000000000000000000000000000000000000000000000000000000000000602082015250565b600061482a602283613bc1565b9150614835826147ce565b604082019050919050565b600060208201905081810360008301526148598161481d565b9050919050565b7f4e487b7100000000000000000000000000000000000000000000000000000000600052601260045260246000fd5b600061489a82613ac7565b91506148a583613ac7565b9250826148b5576148b4614860565b5b828206905092915050565b7f4e487b7100000000000000000000000000000000000000000000000000000000600052602260045260246000fd5b6000600282049050600182168061490757607f821691505b6020821081141561491b5761491a6148c0565b5b50919050565b600061012082019050614937600083018c613cfc565b614944602083018b613f00565b614951604083018a613f00565b61495e6060830189613f00565b61496b6080830188613f00565b61497860a0830187613ad1565b81810360c083015261498a8186613c16565b905081810360e083015261499e8185613c16565b90508181036101008301526149b38184613c16565b90509a9950505050505050505050565b7f4552433732313a20617070726f76656420717565727920666f72206e6f6e657860008201527f697374656e7420746f6b656e0000000000000000000000000000000000000000602082015250565b6000614a1f602c83613bc1565b9150614a2a826149c3565b604082019050919050565b60006020820190508181036000830152614a4e81614a12565b9050919050565b7f4552433732313a20617070726f76616c20746f2063757272656e74206f776e6560008201527f7200000000000000000000000000000000000000000000000000000000000000602082015250565b6000614ab1602183613bc1565b9150614abc82614a55565b604082019050919050565b60006020820190508181036000830152614ae081614aa4565b9050919050565b7f4552433732313a20617070726f76652063616c6c6572206973206e6f74206f7760008201527f6e6572206e6f7220617070726f76656420666f7220616c6c0000000000000000602082015250565b6000614b43603883613bc1565b9150614b4e82614ae7565b604082019050919050565b60006020820190508181036000830152614b7281614b36565b9050919050565b7f4552433732313a207472616e736665722063616c6c6572206973206e6f74206f60008201527f776e6572206e6f7220617070726f766564000000000000000000000000000000602082015250565b6000614bd5603183613bc1565b9150614be082614b79565b604082019050919050565b60006020820190508181036000830152614c0481614bc8565b9050919050565b6000614c1682613ac7565b9150614c2183613ac7565b925082614c3157614c30614860565b5b828204905092915050565b7f4f776e61626c653a2063616c6c6572206973206e6f7420746865206f776e6572600082015250565b6000614c72602083613bc1565b9150614c7d82614c3c565b602082019050919050565b60006020820190508181036000830152614ca181614c65565b9050919050565b7f4552433732313a206f776e657220717565727920666f72206e6f6e657869737460008201527f656e7420746f6b656e0000000000000000000000000000000000000000000000602082015250565b6000614d04602983613bc1565b9150614d0f82614ca8565b604082019050919050565b60006020820190508181036000830152614d3381614cf7565b9050919050565b7f4552433732313a2062616c616e636520717565727920666f7220746865207a6560008201527f726f206164647265737300000000000000000000000000000000000000000000602082015250565b6000614d96602a83613bc1565b9150614da182614d3a565b604082019050919050565b60006020820190508181036000830152614dc581614d89565b9050919050565b7f7520646f6e74206f776e20746869730000000000000000000000000000000000600082015250565b6000614e02600f83613bc1565b9150614e0d82614dcc565b602082019050919050565b60006020820190508181036000830152614e3181614df5565b9050919050565b6000614e4382614212565b9150614e4e83614212565b92508163ffffffff0483118215151615614e6b57614e6a61466a565b5b828202905092915050565b6000614e8182614212565b9150614e8c83614212565b925082821015614e9f57614e9e61466a565b5b828203905092915050565b7f77726f6e6720616d6f756e74206f662070780000000000000000000000000000600082015250565b6000614ee0601283613bc1565b9150614eeb82614eaa565b602082019050919050565b60006020820190508181036000830152614f0f81614ed3565b9050919050565b614f1f81614212565b82525050565b600082825260208201905092915050565b6000819050919050565b614f4981613a27565b82525050565b6000614f5b8383614f40565b60208301905092915050565b6000614f766020840184613a4b565b905092915050565b6000602082019050919050565b6000614f978385614f25565b9350614fa282614f36565b8060005b85811015614fdb57614fb88284614f67565b614fc28882614f4f565b9750614fcd83614f7e565b925050600181019050614fa6565b5085925050509392505050565b6000604082019050614ffd6000830186614f16565b8181036020830152615010818486614f8b565b9050949350505050565b7f626164207061796d656e7420696e666f00000000000000000000000000000000600082015250565b6000615050601083613bc1565b915061505b8261501a565b602082019050919050565b6000602082019050818103600083015261507f81615043565b9050919050565b7f6e6f20706179656520696e666f00000000000000000000000000000000000000600082015250565b60006150bc600d83613bc1565b91506150c782615086565b602082019050919050565b600060208201905081810360008301526150eb816150af565b9050919050565b7f4552433732314d657461646174613a2055524920717565727920666f72206e6f60008201527f6e6578697374656e7420746f6b656e0000000000000000000000000000000000602082015250565b600061514e602f83613bc1565b9150615159826150f2565b604082019050919050565b6000602082019050818103600083015261517d81615141565b9050919050565b600081905092915050565b600061519a82613bb6565b6151a48185615184565b93506151b4818560208601613bd2565b80840191505092915050565b60006151cc828561518f565b91506151d8828461518f565b91508190509392505050565b7f5072652d4d696e7420697320436c6f7365640000000000000000000000000000600082015250565b600061521a601283613bc1565b9150615225826151e4565b602082019050919050565b600060208201905081810360008301526152498161520d565b9050919050565b7f7072656d696e7420616c726561647920636c6f73656400000000000000000000600082015250565b6000615286601683613bc1565b915061529182615250565b602082019050919050565b600060208201905081810360008301526152b581615279565b9050919050565b7f636f6e74726163742d6d65746100000000000000000000000000000000000000600082015250565b60006152f2600d83615184565b91506152fd826152bc565b600d82019050919050565b6000615314828461518f565b915061531f826152e5565b915081905092915050565b7f4f776e61626c653a206e6577206f776e657220697320746865207a65726f206160008201527f6464726573730000000000000000000000000000000000000000000000000000602082015250565b6000615386602683613bc1565b91506153918261532a565b604082019050919050565b600060208201905081810360008301526153b581615379565b9050919050565b7f4e487b7100000000000000000000000000000000000000000000000000000000600052603260045260246000fd5b60006153f682613a27565b915060ff82141561540a5761540961466a565b5b600182019050919050565b600061542082613ac7565b915061542b83613ac7565b9250827fffffffffffffffffffffffffffffffffffffffffffffffffffffffffffffffff038211156154605761545f61466a565b5b828201905092915050565b600061547682613ac7565b915061548183613ac7565b9250828210156154945761549361466a565b5b828203905092915050565b600081905092915050565b50565b60006154ba60008361549f565b91506154c5826154aa565b600082019050919050565b60006154db826154ad565b9150819050919050565b7f4661696c656420746f2073656e64207061796d656e7900000000000000000000600082015250565b600061551b601683613bc1565b9150615526826154e5565b602082019050919050565b6000602082019050818103600083015261554a8161550e565b9050919050565b600061555c82613ac7565b91507fffffffffffffffffffffffffffffffffffffffffffffffffffffffffffffffff82141561558f5761558e61466a565b5b600182019050919050565b6000819050919050565b6155b56155b082613ac7565b61559a565b82525050565b60006155c782866155a4565b6020820191506155d782856155a4565b6020820191506155e782846155a4565b602082019150819050949350505050565b7f4552433732313a206f70657261746f7220717565727920666f72206e6f6e657860008201527f697374656e7420746f6b656e0000000000000000000000000000000000000000602082015250565b6000615654602c83613bc1565b915061565f826155f8565b604082019050919050565b6000602082019050818103600083015261568381615647565b9050919050565b7f4552433732313a207472616e736665722066726f6d20696e636f72726563742060008201527f6f776e6572000000000000000000000000000000000000000000000000000000602082015250565b60006156e6602583613bc1565b91506156f18261568a565b604082019050919050565b60006020820190508181036000830152615715816156d9565b9050919050565b7f4552433732313a207472616e7366657220746f20746865207a65726f2061646460008201527f7265737300000000000000000000000000000000000000000000000000000000602082015250565b6000615778602483613bc1565b91506157838261571c565b604082019050919050565b600060208201905081810360008301526157a78161576b565b9050919050565b7f4552433732313a20617070726f766520746f2063616c6c657200000000000000600082015250565b60006157e4601983613bc1565b91506157ef826157ae565b602082019050919050565b60006020820190508181036000830152615813816157d7565b9050919050565b7f4552433732313a207472616e7366657220746f206e6f6e20455243373231526560008201527f63656976657220696d706c656d656e7465720000000000000000000000000000602082015250565b6000615876603283613bc1565b91506158818261581a565b604082019050919050565b600060208201905081810360008301526158a581615869565b9050919050565b600081519050919050565b600082825260208201905092915050565b60006158d3826158ac565b6158dd81856158b7565b93506158ed818560208601613bd2565b6158f681613c05565b840191505092915050565b60006080820190506159166000830187613cfc565b6159236020830186613cfc565b6159306040830185613ad1565b818103606083015261594281846158c8565b905095945050505050565b60008151905061595c81613b27565b92915050565b60006020828403121561597857615977613a1d565b5b60006159868482850161594d565b91505092915050565b7f4552433732313a206d696e7420746f20746865207a65726f2061646472657373600082015250565b60006159c5602083613bc1565b91506159d08261598f565b602082019050919050565b600060208201905081810360008301526159f4816159b8565b9050919050565b7f4552433732313a20746f6b656e20616c7265616479206d696e74656400000000600082015250565b6000615a31601c83613bc1565b9150615a3c826159fb565b602082019050919050565b60006020820190508181036000830152615a6081615a24565b905091905056fea26469706673582212204dc0d285bd30df33356a29528547d258fe1c4eb48d28cb0422c43554e42e59a064736f6c63430008090033",
  "linkReferences": {},
  "deployedLinkReferences": {}
}