{
  "_format": "hh-sol-artifact-1",
  "contractName": "Nolandia",
  "sourceName": "contracts/MetaNol2.sol",
  "abi": [
    {
      "inputs": [
        {
          "internalType": "address[]",
          "name": "_payees",
          "type": "address[]"
        },
        {
          "internalType": "uint256[]",
          "name": "_shares",
          "type": "uint256[]"
        },
        {
          "internalType": "string",
          "name": "initialBaseUri",
          "type": "string"
        },
        {
          "internalType": "address",
          "name": "newOwner",
          "type": "address"
        }
      ],
      "stateMutability": "payable",
      "type": "constructor"
    },
    {
      "anonymous": false,
      "inputs": [
        {
          "indexed": true,
          "internalType": "address",
          "name": "owner",
          "type": "address"
        },
        {
          "indexed": true,
          "internalType": "address",
          "name": "approved",
          "type": "address"
        },
        {
          "indexed": true,
          "internalType": "uint256",
          "name": "tokenId",
          "type": "uint256"
        }
      ],
      "name": "Approval",
      "type": "event"
    },
    {
      "anonymous": false,
      "inputs": [
        {
          "indexed": true,
          "internalType": "address",
          "name": "owner",
          "type": "address"
        },
        {
          "indexed": true,
          "internalType": "address",
          "name": "operator",
          "type": "address"
        },
        {
          "indexed": false,
          "internalType": "bool",
          "name": "approved",
          "type": "bool"
        }
      ],
      "name": "ApprovalForAll",
      "type": "event"
    },
    {
      "anonymous": false,
      "inputs": [
        {
          "indexed": true,
          "internalType": "address",
          "name": "previousOwner",
          "type": "address"
        },
        {
          "indexed": true,
          "internalType": "address",
          "name": "newOwner",
          "type": "address"
        }
      ],
      "name": "OwnershipTransferred",
      "type": "event"
    },
    {
      "anonymous": false,
      "inputs": [
        {
          "indexed": true,
          "internalType": "uint256",
          "name": "plotId",
          "type": "uint256"
        },
        {
          "indexed": false,
          "internalType": "uint8[]",
          "name": "imageData",
          "type": "uint8[]"
        }
      ],
      "name": "PlotPixelsSet",
      "type": "event"
    },
    {
      "anonymous": false,
      "inputs": [
        {
          "indexed": true,
          "internalType": "uint256",
          "name": "plotId",
          "type": "uint256"
        },
        {
          "indexed": false,
          "internalType": "address",
          "name": "plotOwner",
          "type": "address"
        },
        {
          "indexed": false,
          "internalType": "uint8",
          "name": "x1",
          "type": "uint8"
        },
        {
          "indexed": false,
          "internalType": "uint8",
          "name": "y1",
          "type": "uint8"
        },
        {
          "indexed": false,
          "internalType": "uint8",
          "name": "x2",
          "type": "uint8"
        },
        {
          "indexed": false,
          "internalType": "uint8",
          "name": "y2",
          "type": "uint8"
        },
        {
          "indexed": false,
          "internalType": "uint256",
          "name": "sparkles",
          "type": "uint256"
        },
        {
          "indexed": false,
          "internalType": "string",
          "name": "mineral",
          "type": "string"
        },
        {
          "indexed": false,
          "internalType": "string",
          "name": "landType",
          "type": "string"
        },
        {
          "indexed": false,
          "internalType": "string",
          "name": "megafaunaType",
          "type": "string"
        }
      ],
      "name": "PlotPurchased",
      "type": "event"
    },
    {
      "anonymous": false,
      "inputs": [
        {
          "indexed": true,
          "internalType": "address",
          "name": "from",
          "type": "address"
        },
        {
          "indexed": true,
          "internalType": "address",
          "name": "to",
          "type": "address"
        },
        {
          "indexed": true,
          "internalType": "uint256",
          "name": "tokenId",
          "type": "uint256"
        }
      ],
      "name": "Transfer",
      "type": "event"
    },
    {
      "inputs": [
        {
          "internalType": "address",
          "name": "to",
          "type": "address"
        },
        {
          "internalType": "uint256",
          "name": "tokenId",
          "type": "uint256"
        }
      ],
      "name": "approve",
      "outputs": [],
      "stateMutability": "nonpayable",
      "type": "function"
    },
    {
      "inputs": [
        {
          "internalType": "address",
          "name": "owner",
          "type": "address"
        }
      ],
      "name": "balanceOf",
      "outputs": [
        {
          "internalType": "uint256",
          "name": "",
          "type": "uint256"
        }
      ],
      "stateMutability": "view",
      "type": "function"
    },
    {
      "inputs": [
        {
          "internalType": "uint8",
          "name": "x1",
          "type": "uint8"
        },
        {
          "internalType": "uint8",
          "name": "y1",
          "type": "uint8"
        },
        {
          "internalType": "uint8",
          "name": "x2",
          "type": "uint8"
        },
        {
          "internalType": "uint8",
          "name": "y2",
          "type": "uint8"
        }
      ],
      "name": "buyPlot",
      "outputs": [
        {
          "internalType": "uint256",
          "name": "",
          "type": "uint256"
        }
      ],
      "stateMutability": "payable",
      "type": "function"
    },
    {
      "inputs": [],
      "name": "closePreMint",
      "outputs": [],
      "stateMutability": "nonpayable",
      "type": "function"
    },
    {
      "inputs": [],
      "name": "contractURI",
      "outputs": [
        {
          "internalType": "string",
          "name": "",
          "type": "string"
        }
      ],
      "stateMutability": "view",
      "type": "function"
    },
    {
      "inputs": [
        {
          "internalType": "uint256",
          "name": "tokenId",
          "type": "uint256"
        }
      ],
      "name": "getApproved",
      "outputs": [
        {
          "internalType": "address",
          "name": "",
          "type": "address"
        }
      ],
      "stateMutability": "view",
      "type": "function"
    },
    {
      "inputs": [
        {
          "internalType": "address",
          "name": "owner",
          "type": "address"
        },
        {
          "internalType": "address",
          "name": "operator",
          "type": "address"
        }
      ],
      "name": "isApprovedForAll",
      "outputs": [
        {
          "internalType": "bool",
          "name": "",
          "type": "bool"
        }
      ],
      "stateMutability": "view",
      "type": "function"
    },
    {
      "inputs": [],
      "name": "name",
      "outputs": [
        {
          "internalType": "string",
          "name": "",
          "type": "string"
        }
      ],
      "stateMutability": "view",
      "type": "function"
    },
    {
      "inputs": [],
      "name": "owner",
      "outputs": [
        {
          "internalType": "address",
          "name": "",
          "type": "address"
        }
      ],
      "stateMutability": "view",
      "type": "function"
    },
    {
      "inputs": [
        {
          "internalType": "uint256",
          "name": "tokenId",
          "type": "uint256"
        }
      ],
      "name": "ownerOf",
      "outputs": [
        {
          "internalType": "address",
          "name": "",
          "type": "address"
        }
      ],
      "stateMutability": "view",
      "type": "function"
    },
    {
      "inputs": [
        {
          "internalType": "uint256",
          "name": "",
          "type": "uint256"
        },
        {
          "internalType": "uint256",
          "name": "",
          "type": "uint256"
        }
      ],
      "name": "parcels",
      "outputs": [
        {
          "internalType": "uint256",
          "name": "",
          "type": "uint256"
        }
      ],
      "stateMutability": "view",
      "type": "function"
    },
    {
      "inputs": [
        {
          "internalType": "uint256",
          "name": "",
          "type": "uint256"
        }
      ],
      "name": "plots",
      "outputs": [
        {
          "internalType": "uint8",
          "name": "x1",
          "type": "uint8"
        },
        {
          "internalType": "uint8",
          "name": "y1",
          "type": "uint8"
        },
        {
          "internalType": "uint8",
          "name": "x2",
          "type": "uint8"
        },
        {
          "internalType": "uint8",
          "name": "y2",
          "type": "uint8"
        },
        {
          "internalType": "uint256",
          "name": "plotId",
          "type": "uint256"
        },
        {
          "internalType": "address",
          "name": "plotOwner",
          "type": "address"
        }
      ],
      "stateMutability": "view",
      "type": "function"
    },
    {
      "inputs": [
        {
          "internalType": "uint8",
          "name": "x1",
          "type": "uint8"
        },
        {
          "internalType": "uint8",
          "name": "y1",
          "type": "uint8"
        },
        {
          "internalType": "uint8",
          "name": "x2",
          "type": "uint8"
        },
        {
          "internalType": "uint8",
          "name": "y2",
          "type": "uint8"
        }
      ],
      "name": "preMintPlot",
      "outputs": [
        {
          "internalType": "uint256",
          "name": "",
          "type": "uint256"
        }
      ],
      "stateMutability": "nonpayable",
      "type": "function"
    },
    {
      "inputs": [],
      "name": "renounceOwnership",
      "outputs": [],
      "stateMutability": "nonpayable",
      "type": "function"
    },
    {
      "inputs": [
        {
          "internalType": "uint256",
          "name": "_tokenId",
          "type": "uint256"
        },
        {
          "internalType": "uint256",
          "name": "_salePrice",
          "type": "uint256"
        }
      ],
      "name": "royaltyInfo",
      "outputs": [
        {
          "internalType": "address",
          "name": "",
          "type": "address"
        },
        {
          "internalType": "uint256",
          "name": "",
          "type": "uint256"
        }
      ],
      "stateMutability": "view",
      "type": "function"
    },
    {
      "inputs": [
        {
          "internalType": "address",
          "name": "from",
          "type": "address"
        },
        {
          "internalType": "address",
          "name": "to",
          "type": "address"
        },
        {
          "internalType": "uint256",
          "name": "tokenId",
          "type": "uint256"
        }
      ],
      "name": "safeTransferFrom",
      "outputs": [],
      "stateMutability": "nonpayable",
      "type": "function"
    },
    {
      "inputs": [
        {
          "internalType": "address",
          "name": "from",
          "type": "address"
        },
        {
          "internalType": "address",
          "name": "to",
          "type": "address"
        },
        {
          "internalType": "uint256",
          "name": "tokenId",
          "type": "uint256"
        },
        {
          "internalType": "bytes",
          "name": "_data",
          "type": "bytes"
        }
      ],
      "name": "safeTransferFrom",
      "outputs": [],
      "stateMutability": "nonpayable",
      "type": "function"
    },
    {
      "inputs": [
        {
          "internalType": "address",
          "name": "operator",
          "type": "address"
        },
        {
          "internalType": "bool",
          "name": "approved",
          "type": "bool"
        }
      ],
      "name": "setApprovalForAll",
      "outputs": [],
      "stateMutability": "nonpayable",
      "type": "function"
    },
    {
      "inputs": [
        {
          "internalType": "string",
          "name": "newBaseUri",
          "type": "string"
        }
      ],
      "name": "setBaseURI",
      "outputs": [],
      "stateMutability": "nonpayable",
      "type": "function"
    },
    {
      "inputs": [
        {
          "internalType": "address[]",
          "name": "_payees",
          "type": "address[]"
        },
        {
          "internalType": "uint256[]",
          "name": "_shares",
          "type": "uint256[]"
        }
      ],
      "name": "setPayees",
      "outputs": [],
      "stateMutability": "nonpayable",
      "type": "function"
    },
    {
      "inputs": [
        {
          "internalType": "uint8[]",
          "name": "pixels",
          "type": "uint8[]"
        },
        {
          "internalType": "uint256",
          "name": "plotId",
          "type": "uint256"
        }
      ],
      "name": "setPixels",
      "outputs": [],
      "stateMutability": "nonpayable",
      "type": "function"
    },
    {
      "inputs": [
        {
          "internalType": "bytes4",
          "name": "interfaceId",
          "type": "bytes4"
        }
      ],
      "name": "supportsInterface",
      "outputs": [
        {
          "internalType": "bool",
          "name": "",
          "type": "bool"
        }
      ],
      "stateMutability": "view",
      "type": "function"
    },
    {
      "inputs": [],
      "name": "symbol",
      "outputs": [
        {
          "internalType": "string",
          "name": "",
          "type": "string"
        }
      ],
      "stateMutability": "view",
      "type": "function"
    },
    {
      "inputs": [
        {
          "internalType": "uint256",
          "name": "tokenId",
          "type": "uint256"
        }
      ],
      "name": "tokenURI",
      "outputs": [
        {
          "internalType": "string",
          "name": "",
          "type": "string"
        }
      ],
      "stateMutability": "view",
      "type": "function"
    },
    {
      "inputs": [
        {
          "internalType": "address",
          "name": "from",
          "type": "address"
        },
        {
          "internalType": "address",
          "name": "to",
          "type": "address"
        },
        {
          "internalType": "uint256",
          "name": "tokenId",
          "type": "uint256"
        }
      ],
      "name": "transferFrom",
      "outputs": [],
      "stateMutability": "nonpayable",
      "type": "function"
    },
    {
      "inputs": [
        {
          "internalType": "address",
          "name": "newOwner",
          "type": "address"
        }
      ],
      "name": "transferOwnership",
      "outputs": [],
      "stateMutability": "nonpayable",
      "type": "function"
    }
  ],
  "bytecode": "0x60806040526064600a556040600b60006101000a81548160ff021916908360ff1602179055506004600b60016101000a81548160ff021916908360ff1602179055506001600b60026101000a81548160ff021916908315150217905550600061400e55604051806103a001604052806040518060400160405280600b81526020017f7261696e666f727265737400000000000000000000000000000000000000000081525081526020016040518060400160405280600b81526020017f7261696e666f727265737400000000000000000000000000000000000000000081525081526020016040518060400160405280600b81526020017f7261696e666f727265737400000000000000000000000000000000000000000081525081526020016040518060400160405280600681526020017f646573657274000000000000000000000000000000000000000000000000000081525081526020016040518060400160405280600681526020017f646573657274000000000000000000000000000000000000000000000000000081525081526020016040518060400160405280600681526020017f646573657274000000000000000000000000000000000000000000000000000081525081526020016040518060400160405280600681526020017f646573657274000000000000000000000000000000000000000000000000000081525081526020016040518060400160405280600581526020017f746169676100000000000000000000000000000000000000000000000000000081525081526020016040518060400160405280600581526020017f746169676100000000000000000000000000000000000000000000000000000081525081526020016040518060400160405280600581526020017f746169676100000000000000000000000000000000000000000000000000000081525081526020016040518060400160405280600581526020017f746169676100000000000000000000000000000000000000000000000000000081525081526020016040518060400160405280600781526020017f7765746c616e640000000000000000000000000000000000000000000000000081525081526020016040518060400160405280600781526020017f7765746c616e640000000000000000000000000000000000000000000000000081525081526020016040518060400160405280600781526020017f7765746c616e640000000000000000000000000000000000000000000000000081525081526020016040518060400160405280600781526020017f7765746c616e640000000000000000000000000000000000000000000000000081525081526020016040518060400160405280600481526020017f736e6f770000000000000000000000000000000000000000000000000000000081525081526020016040518060400160405280600881526020017f6d6f756e7461696e00000000000000000000000000000000000000000000000081525081526020016040518060400160405280600781526020017f736176616e61680000000000000000000000000000000000000000000000000081525081526020016040518060400160405280600481526020017f736e6f770000000000000000000000000000000000000000000000000000000081525081526020016040518060400160405280600881526020017f6d6f756e7461696e00000000000000000000000000000000000000000000000081525081526020016040518060400160405280600781526020017f736176616e61680000000000000000000000000000000000000000000000000081525081526020016040518060400160405280600e81526020017f6c756e6172207265676f6c69746800000000000000000000000000000000000081525081526020016040518060400160405280600681526020017f707261726965000000000000000000000000000000000000000000000000000081525081526020016040518060400160405280600681526020017f707261726965000000000000000000000000000000000000000000000000000081525081526020016040518060400160405280600681526020017f707261726965000000000000000000000000000000000000000000000000000081525081526020016040518060400160405280600681526020017f707261726965000000000000000000000000000000000000000000000000000081525081526020016040518060400160405280600681526020017f707261726965000000000000000000000000000000000000000000000000000081525081526020016040518060400160405280600581526020017f737061636500000000000000000000000000000000000000000000000000000081525081526020016040518060400160405280600981526020017f63616e64796c616e64000000000000000000000000000000000000000000000081525081525061400f90601d6200072e92919062001543565b50604051806104a001604052806040518060400160405280600481526020017f676f6c640000000000000000000000000000000000000000000000000000000081525081526020016040518060400160405280600681526020017f73696c766572000000000000000000000000000000000000000000000000000081525081526020016040518060400160405280600481526020017f676f6c640000000000000000000000000000000000000000000000000000000081525081526020016040518060400160405280600681526020017f73696c766572000000000000000000000000000000000000000000000000000081525081526020016040518060400160405280600681526020017f73696c766572000000000000000000000000000000000000000000000000000081525081526020016040518060400160405280600581526020017f636f70657200000000000000000000000000000000000000000000000000000081525081526020016040518060400160405280600581526020017f636f70657200000000000000000000000000000000000000000000000000000081525081526020016040518060400160405280600581526020017f636f70657200000000000000000000000000000000000000000000000000000081525081526020016040518060400160405280600581526020017f636f70657200000000000000000000000000000000000000000000000000000081525081526020016040518060400160405280600481526020017f69726f6e0000000000000000000000000000000000000000000000000000000081525081526020016040518060400160405280600481526020017f69726f6e0000000000000000000000000000000000000000000000000000000081525081526020016040518060400160405280600481526020017f69726f6e0000000000000000000000000000000000000000000000000000000081525081526020016040518060400160405280600481526020017f69726f6e0000000000000000000000000000000000000000000000000000000081525081526020016040518060400160405280600481526020017f69726f6e0000000000000000000000000000000000000000000000000000000081525081526020016040518060400160405280600881526020017f706c6174696e756d00000000000000000000000000000000000000000000000081525081526020016040518060400160405280600b81526020017f756e6f627461696e69756d00000000000000000000000000000000000000000081525081526020016040518060400160405280600481526020017f73616e640000000000000000000000000000000000000000000000000000000081525081526020016040518060400160405280600481526020017f73616e640000000000000000000000000000000000000000000000000000000081525081526020016040518060400160405280600481526020017f73616e640000000000000000000000000000000000000000000000000000000081525081526020016040518060400160405280600481526020017f727562790000000000000000000000000000000000000000000000000000000081525081526020016040518060400160405280600481526020017f727562790000000000000000000000000000000000000000000000000000000081525081526020016040518060400160405280600581526020017f626f726f6e00000000000000000000000000000000000000000000000000000081525081526020016040518060400160405280600581526020017f626f726f6e00000000000000000000000000000000000000000000000000000081525081526020016040518060400160405280600481526020017f73616c740000000000000000000000000000000000000000000000000000000081525081526020016040518060400160405280600481526020017f73616c740000000000000000000000000000000000000000000000000000000081525081526020016040518060400160405280600481526020017f73616c740000000000000000000000000000000000000000000000000000000081525081526020016040518060400160405280600481526020017f73616c740000000000000000000000000000000000000000000000000000000081525081526020016040518060400160405280600881526020017f746962657269756d00000000000000000000000000000000000000000000000081525081526020016040518060400160405280600781526020017f6d79746872696c0000000000000000000000000000000000000000000000000081525081526020016040518060400160405280600481526020017f636f616c0000000000000000000000000000000000000000000000000000000081525081526020016040518060400160405280600481526020017f636f616c0000000000000000000000000000000000000000000000000000000081525081526020016040518060400160405280600481526020017f636f616c0000000000000000000000000000000000000000000000000000000081525081526020016040518060400160405280600481526020017f636f616c0000000000000000000000000000000000000000000000000000000081525081526020016040518060400160405280600481526020017f636f616c0000000000000000000000000000000000000000000000000000000081525081526020016040518060400160405280600381526020017f74696e000000000000000000000000000000000000000000000000000000000081525081526020016040518060400160405280600681526020017f636f62616c74000000000000000000000000000000000000000000000000000081525081526020016040518060400160405280600681526020017f636f62616c74000000000000000000000000000000000000000000000000000081525081525061401090602562000fd3929190620015aa565b506040518061010001604052806040518060400160405280600981526020017f64696e6f7361757273000000000000000000000000000000000000000000000081525081526020016040518060400160405280600781526020017f6d616d6d616c730000000000000000000000000000000000000000000000000081525081526020016040518060400160405280600781526020017f6d616d6d616c730000000000000000000000000000000000000000000000000081525081526020016040518060400160405280600781526020017f6d616d6d616c730000000000000000000000000000000000000000000000000081525081526020016040518060400160405280600781526020017f6d616d6d616c730000000000000000000000000000000000000000000000000081525081526020016040518060400160405280600781526020017f6d616d6d616c730000000000000000000000000000000000000000000000000081525081526020016040518060400160405280600a81526020017f6d617273757069616c730000000000000000000000000000000000000000000081525081526020016040518060400160405280600a81526020017f6d617273757069616c7300000000000000000000000000000000000000000000815250815250614011906008620011c992919062001611565b5060405162007736380380620077368339818101604052810190620011ef919062001c65565b6040518060400160405280600881526020017f4e6f6c616e6469610000000000000000000000000000000000000000000000008152506040518060400160405280600681526020017f4e4f4c414e44000000000000000000000000000000000000000000000000000081525081600290805190602001906200127392919062001678565b5080600390805190602001906200128c92919062001678565b505050620012af620012a3620012f660201b60201c565b620012fe60201b60201c565b8161400d9080519060200190620012c892919062001678565b50620012db8484620013c460201b60201c565b620012ec81620012fe60201b60201c565b5050505062001f00565b600033905090565b6000600860009054906101000a900473ffffffffffffffffffffffffffffffffffffffff16905081600860006101000a81548173ffffffffffffffffffffffffffffffffffffffff021916908373ffffffffffffffffffffffffffffffffffffffff1602179055508173ffffffffffffffffffffffffffffffffffffffff168173ffffffffffffffffffffffffffffffffffffffff167f8be0079c531659141344cd1fd0a4f28419497f9722a3daafe3b4186f6b6457e060405160405180910390a35050565b620013d4620012f660201b60201c565b73ffffffffffffffffffffffffffffffffffffffff16620013fa6200151960201b60201c565b73ffffffffffffffffffffffffffffffffffffffff161462001453576040517f08c379a00000000000000000000000000000000000000000000000000000000081526004016200144a9062001d95565b60405180910390fd5b80518251146200149a576040517f08c379a0000000000000000000000000000000000000000000000000000000008152600401620014919062001e07565b60405180910390fd5b6000825111620014e1576040517f08c379a0000000000000000000000000000000000000000000000000000000008152600401620014d89062001e79565b60405180910390fd5b816140129080519060200190620014fa92919062001709565b508061401390805190602001906200151492919062001798565b505050565b6000600860009054906101000a900473ffffffffffffffffffffffffffffffffffffffff16905090565b82805482825590600052602060002090810192821562001597579160200282015b82811115620015965782518290805190602001906200158592919062001678565b509160200191906001019062001564565b5b509050620015a69190620017ea565b5090565b828054828255906000526020600020908101928215620015fe579160200282015b82811115620015fd578251829080519060200190620015ec92919062001678565b5091602001919060010190620015cb565b5b5090506200160d9190620017ea565b5090565b82805482825590600052602060002090810192821562001665579160200282015b82811115620016645782518290805190602001906200165392919062001678565b509160200191906001019062001632565b5b509050620016749190620017ea565b5090565b828054620016869062001eca565b90600052602060002090601f016020900481019282620016aa5760008555620016f6565b82601f10620016c557805160ff1916838001178555620016f6565b82800160010185558215620016f6579182015b82811115620016f5578251825591602001919060010190620016d8565b5b50905062001705919062001812565b5090565b82805482825590600052602060002090810192821562001785579160200282015b82811115620017845782518260006101000a81548173ffffffffffffffffffffffffffffffffffffffff021916908373ffffffffffffffffffffffffffffffffffffffff160217905550916020019190600101906200172a565b5b50905062001794919062001812565b5090565b828054828255906000526020600020908101928215620017d7579160200282015b82811115620017d6578251825591602001919060010190620017b9565b5b509050620017e6919062001812565b5090565b5b808211156200180e576000818162001804919062001831565b50600101620017eb565b5090565b5b808211156200182d57600081600090555060010162001813565b5090565b5080546200183f9062001eca565b6000825580601f1062001853575062001874565b601f01602090049060005260206000209081019062001873919062001812565b5b50565b6000604051905090565b600080fd5b600080fd5b600080fd5b6000601f19601f8301169050919050565b7f4e487b7100000000000000000000000000000000000000000000000000000000600052604160045260246000fd5b620018db8262001890565b810181811067ffffffffffffffff82111715620018fd57620018fc620018a1565b5b80604052505050565b60006200191262001877565b9050620019208282620018d0565b919050565b600067ffffffffffffffff821115620019435762001942620018a1565b5b602082029050602081019050919050565b600080fd5b600073ffffffffffffffffffffffffffffffffffffffff82169050919050565b6000620019868262001959565b9050919050565b620019988162001979565b8114620019a457600080fd5b50565b600081519050620019b8816200198d565b92915050565b6000620019d5620019cf8462001925565b62001906565b90508083825260208201905060208402830185811115620019fb57620019fa62001954565b5b835b8181101562001a28578062001a138882620019a7565b845260208401935050602081019050620019fd565b5050509392505050565b600082601f83011262001a4a5762001a496200188b565b5b815162001a5c848260208601620019be565b91505092915050565b600067ffffffffffffffff82111562001a835762001a82620018a1565b5b602082029050602081019050919050565b6000819050919050565b62001aa98162001a94565b811462001ab557600080fd5b50565b60008151905062001ac98162001a9e565b92915050565b600062001ae662001ae08462001a65565b62001906565b9050808382526020820190506020840283018581111562001b0c5762001b0b62001954565b5b835b8181101562001b39578062001b24888262001ab8565b84526020840193505060208101905062001b0e565b5050509392505050565b600082601f83011262001b5b5762001b5a6200188b565b5b815162001b6d84826020860162001acf565b91505092915050565b600080fd5b600067ffffffffffffffff82111562001b995762001b98620018a1565b5b62001ba48262001890565b9050602081019050919050565b60005b8381101562001bd157808201518184015260208101905062001bb4565b8381111562001be1576000848401525b50505050565b600062001bfe62001bf88462001b7b565b62001906565b90508281526020810184848401111562001c1d5762001c1c62001b76565b5b62001c2a84828562001bb1565b509392505050565b600082601f83011262001c4a5762001c496200188b565b5b815162001c5c84826020860162001be7565b91505092915050565b6000806000806080858703121562001c825762001c8162001881565b5b600085015167ffffffffffffffff81111562001ca35762001ca262001886565b5b62001cb18782880162001a32565b945050602085015167ffffffffffffffff81111562001cd55762001cd462001886565b5b62001ce38782880162001b43565b935050604085015167ffffffffffffffff81111562001d075762001d0662001886565b5b62001d158782880162001c32565b925050606062001d2887828801620019a7565b91505092959194509250565b600082825260208201905092915050565b7f4f776e61626c653a2063616c6c6572206973206e6f7420746865206f776e6572600082015250565b600062001d7d60208362001d34565b915062001d8a8262001d45565b602082019050919050565b6000602082019050818103600083015262001db08162001d6e565b9050919050565b7f626164207061796d656e7420696e666f00000000000000000000000000000000600082015250565b600062001def60108362001d34565b915062001dfc8262001db7565b602082019050919050565b6000602082019050818103600083015262001e228162001de0565b9050919050565b7f6e6f20706179656520696e666f00000000000000000000000000000000000000600082015250565b600062001e61600d8362001d34565b915062001e6e8262001e29565b602082019050919050565b6000602082019050818103600083015262001e948162001e52565b9050919050565b7f4e487b7100000000000000000000000000000000000000000000000000000000600052602260045260246000fd5b6000600282049050600182168062001ee357607f821691505b6020821081141562001efa5762001ef962001e9b565b5b50919050565b6158268062001f106000396000f3fe6080604052600436106101815760003560e01c8063715018a6116100d1578063b88d4fde1161008a578063e0325e0f11610064578063e0325e0f1461059b578063e8a3d485146105d8578063e985e9c514610603578063f2fde38b1461064057610181565b8063b88d4fde1461050c578063bcc7445f14610535578063c87b56dd1461055e57610181565b8063715018a6146104225780638a74f60c146104395780638da5cb5b1461045057806391e982051461047b57806395d89b41146104b8578063a22cb465146104e357610181565b80632a55205a1161013e57806355f804b31161011857806355f804b31461033d57806361bf49ee146103665780636352211e146103a857806370a08231146103e557610181565b80632a55205a146102ad57806342842e0e146102eb5780634409a8761461031457610181565b8063014676bc1461018657806301ffc9a7146101b657806306fdde03146101f3578063081812fc1461021e578063095ea7b31461025b57806323b872dd14610284575b600080fd5b6101a0600480360381019061019b91906138e6565b610669565b6040516101ad9190613966565b60405180910390f35b3480156101c257600080fd5b506101dd60048036038101906101d891906139d9565b610ce3565b6040516101ea9190613a21565b60405180910390f35b3480156101ff57600080fd5b50610208610cf5565b6040516102159190613ad5565b60405180910390f35b34801561022a57600080fd5b5061024560048036038101906102409190613b23565b610d87565b6040516102529190613b91565b60405180910390f35b34801561026757600080fd5b50610282600480360381019061027d9190613bd8565b610e0c565b005b34801561029057600080fd5b506102ab60048036038101906102a69190613c18565b610f24565b005b3480156102b957600080fd5b506102d460048036038101906102cf9190613c6b565b610f84565b6040516102e2929190613cab565b60405180910390f35b3480156102f757600080fd5b50610312600480360381019061030d9190613c18565b61116f565b005b34801561032057600080fd5b5061033b60048036038101906103369190613d39565b61118f565b005b34801561034957600080fd5b50610364600480360381019061035f9190613def565b61140a565b005b34801561037257600080fd5b5061038d60048036038101906103889190613b23565b61149d565b60405161039f96959493929190613e4b565b60405180910390f35b3480156103b457600080fd5b506103cf60048036038101906103ca9190613b23565b61152e565b6040516103dc9190613b91565b60405180910390f35b3480156103f157600080fd5b5061040c60048036038101906104079190613eac565b6115e0565b6040516104199190613966565b60405180910390f35b34801561042e57600080fd5b50610437611698565b005b34801561044557600080fd5b5061044e611720565b005b34801561045c57600080fd5b506104656117b9565b6040516104729190613b91565b60405180910390f35b34801561048757600080fd5b506104a2600480360381019061049d9190613c6b565b6117e3565b6040516104af9190613966565b60405180910390f35b3480156104c457600080fd5b506104cd611811565b6040516104da9190613ad5565b60405180910390f35b3480156104ef57600080fd5b5061050a60048036038101906105059190613f05565b6118a3565b005b34801561051857600080fd5b50610533600480360381019061052e9190614075565b6118b9565b005b34801561054157600080fd5b5061055c6004803603810190610557919061427e565b61191b565b005b34801561056a57600080fd5b5061058560048036038101906105809190613b23565b611a53565b6040516105929190613ad5565b60405180910390f35b3480156105a757600080fd5b506105c260048036038101906105bd91906138e6565b611afa565b6040516105cf9190613966565b60405180910390f35b3480156105e457600080fd5b506105ed6121d3565b6040516105fa9190613ad5565b60405180910390f35b34801561060f57600080fd5b5061062a600480360381019061062591906142f6565b612201565b6040516106379190613a21565b60405180910390f35b34801561064c57600080fd5b5061066760048036038101906106629190613eac565b612295565b005b6000808560ff1610158015610682575060008460ff1610155b6106c1576040517f08c379a00000000000000000000000000000000000000000000000000000000081526004016106b890614382565b60405180910390fd5b60808360ff16111580156106d9575060808260ff1611155b610718576040517f08c379a000000000000000000000000000000000000000000000000000000000815260040161070f906143ee565b60405180910390fd5b8260ff168560ff1610801561073257508160ff168460ff16105b610771576040517f08c379a000000000000000000000000000000000000000000000000000000000815260040161076890614480565b60405180910390fd5b6000848361077f91906144cf565b868561078b91906144cf565b6107959190614503565b60ff16905034600b60009054906101000a900460ff1660ff16600a54836107bc919061453e565b6107c6919061453e565b14610806576040517f08c379a00000000000000000000000000000000000000000000000000000000081526004016107fd906145e4565b60405180910390fd5b610810600961238d565b600061081c60096123a3565b90506001151561082e888888886123b1565b151514610870576040517f08c379a000000000000000000000000000000000000000000000000000000000815260040161086790614676565b60405180910390fd5b61087861245b565b610885878787878561272e565b61088f33826127bb565b6040518060c001604052808860ff1681526020018760ff1681526020018660ff1681526020018560ff1681526020018281526020013373ffffffffffffffffffffffffffffffffffffffff1681525061400c600083815260200190815260200160002060008201518160000160006101000a81548160ff021916908360ff16021790555060208201518160000160016101000a81548160ff021916908360ff16021790555060408201518160000160026101000a81548160ff021916908360ff16021790555060608201518160000160036101000a81548160ff021916908360ff1602179055506080820151816001015560a08201518160020160006101000a81548173ffffffffffffffffffffffffffffffffffffffff021916908373ffffffffffffffffffffffffffffffffffffffff160217905550905050600060046109d66127d9565b6109e091906146c5565b836109eb919061453e565b90506000610aca614010805480602002602001604051908101604052809291908181526020016000905b82821015610ac1578382906000526020600020018054610a3490614725565b80601f0160208091040260200160405190810160405280929190818152602001828054610a6090614725565b8015610aad5780601f10610a8257610100808354040283529160200191610aad565b820191906000526020600020905b815481529060010190602001808311610a9057829003601f168201915b505050505081526020019060010190610a15565b5050505061282a565b90506000610ba961400f805480602002602001604051908101604052809291908181526020016000905b82821015610ba0578382906000526020600020018054610b1390614725565b80601f0160208091040260200160405190810160405280929190818152602001828054610b3f90614725565b8015610b8c5780601f10610b6157610100808354040283529160200191610b8c565b820191906000526020600020905b815481529060010190602001808311610b6f57829003601f168201915b505050505081526020019060010190610af4565b5050505061282a565b90506000610c88614011805480602002602001604051908101604052809291908181526020016000905b82821015610c7f578382906000526020600020018054610bf290614725565b80601f0160208091040260200160405190810160405280929190818152602001828054610c1e90614725565b8015610c6b5780601f10610c4057610100808354040283529160200191610c6b565b820191906000526020600020905b815481529060010190602001808311610c4e57829003601f168201915b505050505081526020019060010190610bd3565b5050505061282a565b9050847f6e2ffbd350baaa51738934b7e5f9ebb948a12cca6c5a62cb45e233e044db33c0338d8d8d8d8a8a8a8a604051610cca99989796959493929190614757565b60405180910390a2849650505050505050949350505050565b6000610cee82612861565b9050919050565b606060028054610d0490614725565b80601f0160208091040260200160405190810160405280929190818152602001828054610d3090614725565b8015610d7d5780601f10610d5257610100808354040283529160200191610d7d565b820191906000526020600020905b815481529060010190602001808311610d6057829003601f168201915b5050505050905090565b6000610d9282612943565b610dd1576040517f08c379a0000000000000000000000000000000000000000000000000000000008152600401610dc89061486b565b60405180910390fd5b6006600083815260200190815260200160002060009054906101000a900473ffffffffffffffffffffffffffffffffffffffff169050919050565b6000610e178261152e565b90508073ffffffffffffffffffffffffffffffffffffffff168373ffffffffffffffffffffffffffffffffffffffff161415610e88576040517f08c379a0000000000000000000000000000000000000000000000000000000008152600401610e7f906148fd565b60405180910390fd5b8073ffffffffffffffffffffffffffffffffffffffff16610ea76129af565b73ffffffffffffffffffffffffffffffffffffffff161480610ed65750610ed581610ed06129af565b612201565b5b610f15576040517f08c379a0000000000000000000000000000000000000000000000000000000008152600401610f0c9061498f565b60405180910390fd5b610f1f83836129b7565b505050565b610f35610f2f6129af565b82612a70565b610f74576040517f08c379a0000000000000000000000000000000000000000000000000000000008152600401610f6b90614a21565b60405180910390fd5b610f7f838383612b4e565b505050565b6000806000600160008681526020019081526020016000206040518060400160405290816000820160009054906101000a900473ffffffffffffffffffffffffffffffffffffffff1673ffffffffffffffffffffffffffffffffffffffff1673ffffffffffffffffffffffffffffffffffffffff1681526020016000820160149054906101000a90046bffffffffffffffffffffffff166bffffffffffffffffffffffff166bffffffffffffffffffffffff16815250509050600073ffffffffffffffffffffffffffffffffffffffff16816000015173ffffffffffffffffffffffffffffffffffffffff16141561111a5760006040518060400160405290816000820160009054906101000a900473ffffffffffffffffffffffffffffffffffffffff1673ffffffffffffffffffffffffffffffffffffffff1673ffffffffffffffffffffffffffffffffffffffff1681526020016000820160149054906101000a90046bffffffffffffffffffffffff166bffffffffffffffffffffffff166bffffffffffffffffffffffff168152505090505b6000611124612db5565b6bffffffffffffffffffffffff1682602001516bffffffffffffffffffffffff1686611150919061453e565b61115a9190614a41565b90508160000151819350935050509250929050565b61118a838383604051806020016040528060008152506118b9565b505050565b3373ffffffffffffffffffffffffffffffffffffffff166111af8261152e565b73ffffffffffffffffffffffffffffffffffffffff1614611205576040517f08c379a00000000000000000000000000000000000000000000000000000000081526004016111fc90614abe565b60405180910390fd5b600061400c60008381526020019081526020016000206040518060c00160405290816000820160009054906101000a900460ff1660ff1660ff1681526020016000820160019054906101000a900460ff1660ff1660ff1681526020016000820160029054906101000a900460ff1660ff1660ff1681526020016000820160039054906101000a900460ff1660ff1660ff168152602001600182015481526020016002820160009054906101000a900473ffffffffffffffffffffffffffffffffffffffff1673ffffffffffffffffffffffffffffffffffffffff1673ffffffffffffffffffffffffffffffffffffffff1681525050905060008160000151826040015161131291906144cf565b60ff16905060008260200151836060015161132d91906144cf565b60ff1690506000600b60019054906101000a900460ff1660ff16600b60009054906101000a900460ff1660ff1683856113669190614aee565b6113709190614aee565b61137a9190614aee565b9050868690508163ffffffff16146113c7576040517f08c379a00000000000000000000000000000000000000000000000000000000081526004016113be90614b78565b60405180910390fd5b847fade17c51d5840990bf9bfd0f37b213de83d8192c7ef345922962267e944abc3d88886040516113f9929190614c5b565b60405180910390a250505050505050565b6114126129af565b73ffffffffffffffffffffffffffffffffffffffff166114306117b9565b73ffffffffffffffffffffffffffffffffffffffff1614611486576040517f08c379a000000000000000000000000000000000000000000000000000000000815260040161147d90614ccb565b60405180910390fd5b818161400d919061149892919061371f565b505050565b61400c6020528060005260406000206000915090508060000160009054906101000a900460ff16908060000160019054906101000a900460ff16908060000160029054906101000a900460ff16908060000160039054906101000a900460ff16908060010154908060020160009054906101000a900473ffffffffffffffffffffffffffffffffffffffff16905086565b6000806004600084815260200190815260200160002060009054906101000a900473ffffffffffffffffffffffffffffffffffffffff169050600073ffffffffffffffffffffffffffffffffffffffff168173ffffffffffffffffffffffffffffffffffffffff1614156115d7576040517f08c379a00000000000000000000000000000000000000000000000000000000081526004016115ce90614d5d565b60405180910390fd5b80915050919050565b60008073ffffffffffffffffffffffffffffffffffffffff168273ffffffffffffffffffffffffffffffffffffffff161415611651576040517f08c379a000000000000000000000000000000000000000000000000000000000815260040161164890614def565b60405180910390fd5b600560008373ffffffffffffffffffffffffffffffffffffffff1673ffffffffffffffffffffffffffffffffffffffff168152602001908152602001600020549050919050565b6116a06129af565b73ffffffffffffffffffffffffffffffffffffffff166116be6117b9565b73ffffffffffffffffffffffffffffffffffffffff1614611714576040517f08c379a000000000000000000000000000000000000000000000000000000000815260040161170b90614ccb565b60405180910390fd5b61171e6000612dbf565b565b6117286129af565b73ffffffffffffffffffffffffffffffffffffffff166117466117b9565b73ffffffffffffffffffffffffffffffffffffffff161461179c576040517f08c379a000000000000000000000000000000000000000000000000000000000815260040161179390614ccb565b60405180910390fd5b6000600b60026101000a81548160ff021916908315150217905550565b6000600860009054906101000a900473ffffffffffffffffffffffffffffffffffffffff16905090565b600c82608081106117f357600080fd5b60800201816080811061180557600080fd5b01600091509150505481565b60606003805461182090614725565b80601f016020809104026020016040519081016040528092919081815260200182805461184c90614725565b80156118995780601f1061186e57610100808354040283529160200191611899565b820191906000526020600020905b81548152906001019060200180831161187c57829003601f168201915b5050505050905090565b6118b56118ae6129af565b8383612e85565b5050565b6118ca6118c46129af565b83612a70565b611909576040517f08c379a000000000000000000000000000000000000000000000000000000000815260040161190090614a21565b60405180910390fd5b61191584848484612ff2565b50505050565b6119236129af565b73ffffffffffffffffffffffffffffffffffffffff166119416117b9565b73ffffffffffffffffffffffffffffffffffffffff1614611997576040517f08c379a000000000000000000000000000000000000000000000000000000000815260040161198e90614ccb565b60405180910390fd5b80518251146119db576040517f08c379a00000000000000000000000000000000000000000000000000000000081526004016119d290614e5b565b60405180910390fd5b6000825111611a1f576040517f08c379a0000000000000000000000000000000000000000000000000000000008152600401611a1690614ec7565b60405180910390fd5b816140129080519060200190611a369291906137a5565b50806140139080519060200190611a4e92919061382f565b505050565b6060611a5e82612943565b611a9d576040517f08c379a0000000000000000000000000000000000000000000000000000000008152600401611a9490614f59565b60405180910390fd5b6000611aa761304e565b90506000815111611ac75760405180602001604052806000815250611af2565b80611ad1846130e1565b604051602001611ae2929190614fb5565b6040516020818303038152906040525b915050919050565b6000611b046129af565b73ffffffffffffffffffffffffffffffffffffffff16611b226117b9565b73ffffffffffffffffffffffffffffffffffffffff1614611b78576040517f08c379a0000000000000000000000000000000000000000000000000000000008152600401611b6f90614ccb565b60405180910390fd5b60011515600b60029054906101000a900460ff16151514611bce576040517f08c379a0000000000000000000000000000000000000000000000000000000008152600401611bc590615025565b60405180910390fd5b60008560ff1610158015611be6575060008460ff1610155b611c25576040517f08c379a0000000000000000000000000000000000000000000000000000000008152600401611c1c90614382565b60405180910390fd5b60808360ff1611158015611c3d575060808260ff1611155b611c7c576040517f08c379a0000000000000000000000000000000000000000000000000000000008152600401611c73906143ee565b60405180910390fd5b8260ff168560ff16108015611c9657508160ff168460ff16105b611cd5576040517f08c379a0000000000000000000000000000000000000000000000000000000008152600401611ccc90614480565b60405180910390fd5b60011515611ce5868686866123b1565b151514611d27576040517f08c379a0000000000000000000000000000000000000000000000000000000008152600401611d1e90614676565b60405180910390fd5b611d31600961238d565b6000611d3d60096123a3565b9050611d4c868686868561272e565b611d5633826127bb565b6040518060c001604052808760ff1681526020018660ff1681526020018560ff1681526020018460ff1681526020018281526020013373ffffffffffffffffffffffffffffffffffffffff1681525061400c600083815260200190815260200160002060008201518160000160006101000a81548160ff021916908360ff16021790555060208201518160000160016101000a81548160ff021916908360ff16021790555060408201518160000160026101000a81548160ff021916908360ff16021790555060608201518160000160036101000a81548160ff021916908360ff1602179055506080820151816001015560a08201518160020160006101000a81548173ffffffffffffffffffffffffffffffffffffffff021916908373ffffffffffffffffffffffffffffffffffffffff16021790555090505060008584611e9f91906144cf565b8786611eab91906144cf565b611eb59190614503565b60ff16905060006004611ec66127d9565b611ed091906146c5565b82611edb919061453e565b90506000611fba614010805480602002602001604051908101604052809291908181526020016000905b82821015611fb1578382906000526020600020018054611f2490614725565b80601f0160208091040260200160405190810160405280929190818152602001828054611f5090614725565b8015611f9d5780601f10611f7257610100808354040283529160200191611f9d565b820191906000526020600020905b815481529060010190602001808311611f8057829003601f168201915b505050505081526020019060010190611f05565b5050505061282a565b9050600061209961400f805480602002602001604051908101604052809291908181526020016000905b8282101561209057838290600052602060002001805461200390614725565b80601f016020809104026020016040519081016040528092919081815260200182805461202f90614725565b801561207c5780601f106120515761010080835404028352916020019161207c565b820191906000526020600020905b81548152906001019060200180831161205f57829003601f168201915b505050505081526020019060010190611fe4565b5050505061282a565b90506000612178614011805480602002602001604051908101604052809291908181526020016000905b8282101561216f5783829060005260206000200180546120e290614725565b80601f016020809104026020016040519081016040528092919081815260200182805461210e90614725565b801561215b5780601f106121305761010080835404028352916020019161215b565b820191906000526020600020905b81548152906001019060200180831161213e57829003601f168201915b5050505050815260200190600101906120c3565b5050505061282a565b9050857f6e2ffbd350baaa51738934b7e5f9ebb948a12cca6c5a62cb45e233e044db33c0338d8d8d8d8a8a8a8a6040516121ba99989796959493929190614757565b60405180910390a2859650505050505050949350505050565b60606121dd61304e565b6040516020016121ed9190615091565b604051602081830303815290604052905090565b6000600760008473ffffffffffffffffffffffffffffffffffffffff1673ffffffffffffffffffffffffffffffffffffffff16815260200190815260200160002060008373ffffffffffffffffffffffffffffffffffffffff1673ffffffffffffffffffffffffffffffffffffffff16815260200190815260200160002060009054906101000a900460ff16905092915050565b61229d6129af565b73ffffffffffffffffffffffffffffffffffffffff166122bb6117b9565b73ffffffffffffffffffffffffffffffffffffffff1614612311576040517f08c379a000000000000000000000000000000000000000000000000000000000815260040161230890614ccb565b60405180910390fd5b600073ffffffffffffffffffffffffffffffffffffffff168173ffffffffffffffffffffffffffffffffffffffff161415612381576040517f08c379a000000000000000000000000000000000000000000000000000000000815260040161237890615125565b60405180910390fd5b61238a81612dbf565b50565b6001816000016000828254019250508190555050565b600081600001549050919050565b6000808590505b8360ff168160ff16101561244d5760008590505b8360ff168160ff161015612439576000600c8360ff16608081106123f3576123f2615145565b5b608002018260ff166080811061240c5761240b615145565b5b0154905060008111156124255760009350505050612453565b50808061243190615174565b9150506123cc565b50808061244590615174565b9150506123b8565b50600190505b949350505050565b60008047905060005b614013805490508160ff1610156124b8576140138160ff168154811061248d5761248c615145565b5b9060005260206000200154836124a3919061519e565b925080806124b090615174565b915050612464565b5060005b6001614012805490506124cf91906151f4565b8160ff16101561261f576000836140138360ff16815481106124f4576124f3615145565b5b90600052602060002001548461250a919061453e565b6125149190614a41565b905060006140128360ff16815481106125305761252f615145565b5b9060005260206000200160009054906101000a900473ffffffffffffffffffffffffffffffffffffffff16905060008173ffffffffffffffffffffffffffffffffffffffff168360405161258390615259565b60006040518083038185875af1925050503d80600081146125c0576040519150601f19603f3d011682016040523d82523d6000602084013e6125c5565b606091505b5050905080612609576040517f08c379a0000000000000000000000000000000000000000000000000000000008152600401612600906152ba565b60405180910390fd5b505050808061261790615174565b9150506124bc565b50600061401260016140128054905061263891906151f4565b8154811061264957612648615145565b5b9060005260206000200160009054906101000a900473ffffffffffffffffffffffffffffffffffffffff169050600047905060008273ffffffffffffffffffffffffffffffffffffffff16826040516126a190615259565b60006040518083038185875af1925050503d80600081146126de576040519150601f19603f3d011682016040523d82523d6000602084013e6126e3565b606091505b5050905080612727576040517f08c379a000000000000000000000000000000000000000000000000000000000815260040161271e906152ba565b60405180910390fd5b5050505050565b60008590505b8360ff168160ff1610156127b35760008590505b8360ff168160ff16101561279f5782600c8360ff166080811061276e5761276d615145565b5b608002018260ff166080811061278757612786615145565b5b0181905550808061279790615174565b915050612748565b5080806127ab90615174565b915050612734565b505050505050565b6127d5828260405180602001604052806000815250613242565b5050565b600061400e60008154809291906127ef906152da565b9190505550444261400e5460405160200161280c93929190615344565b6040516020818303038152906040528051906020012060001c905090565b60608182516128376127d9565b61284191906146c5565b8151811061285257612851615145565b5b60200260200101519050919050565b60007f80ac58cd000000000000000000000000000000000000000000000000000000007bffffffffffffffffffffffffffffffffffffffffffffffffffffffff1916827bffffffffffffffffffffffffffffffffffffffffffffffffffffffff1916148061292c57507f5b5e139f000000000000000000000000000000000000000000000000000000007bffffffffffffffffffffffffffffffffffffffffffffffffffffffff1916827bffffffffffffffffffffffffffffffffffffffffffffffffffffffff1916145b8061293c575061293b8261329d565b5b9050919050565b60008073ffffffffffffffffffffffffffffffffffffffff166004600084815260200190815260200160002060009054906101000a900473ffffffffffffffffffffffffffffffffffffffff1673ffffffffffffffffffffffffffffffffffffffff1614159050919050565b600033905090565b816006600083815260200190815260200160002060006101000a81548173ffffffffffffffffffffffffffffffffffffffff021916908373ffffffffffffffffffffffffffffffffffffffff160217905550808273ffffffffffffffffffffffffffffffffffffffff16612a2a8361152e565b73ffffffffffffffffffffffffffffffffffffffff167f8c5be1e5ebec7d5bd14f71427d1e84f3dd0314c0f7b2291e5b200ac8c7c3b92560405160405180910390a45050565b6000612a7b82612943565b612aba576040517f08c379a0000000000000000000000000000000000000000000000000000000008152600401612ab1906153f3565b60405180910390fd5b6000612ac58361152e565b90508073ffffffffffffffffffffffffffffffffffffffff168473ffffffffffffffffffffffffffffffffffffffff161480612b075750612b068185612201565b5b80612b4557508373ffffffffffffffffffffffffffffffffffffffff16612b2d84610d87565b73ffffffffffffffffffffffffffffffffffffffff16145b91505092915050565b8273ffffffffffffffffffffffffffffffffffffffff16612b6e8261152e565b73ffffffffffffffffffffffffffffffffffffffff1614612bc4576040517f08c379a0000000000000000000000000000000000000000000000000000000008152600401612bbb90615485565b60405180910390fd5b600073ffffffffffffffffffffffffffffffffffffffff168273ffffffffffffffffffffffffffffffffffffffff161415612c34576040517f08c379a0000000000000000000000000000000000000000000000000000000008152600401612c2b90615517565b60405180910390fd5b612c3f838383613317565b612c4a6000826129b7565b6001600560008573ffffffffffffffffffffffffffffffffffffffff1673ffffffffffffffffffffffffffffffffffffffff1681526020019081526020016000206000828254612c9a91906151f4565b925050819055506001600560008473ffffffffffffffffffffffffffffffffffffffff1673ffffffffffffffffffffffffffffffffffffffff1681526020019081526020016000206000828254612cf1919061519e565b92505081905550816004600083815260200190815260200160002060006101000a81548173ffffffffffffffffffffffffffffffffffffffff021916908373ffffffffffffffffffffffffffffffffffffffff160217905550808273ffffffffffffffffffffffffffffffffffffffff168473ffffffffffffffffffffffffffffffffffffffff167fddf252ad1be2c89b69c2b068fc378daa952ba7f163c4a11628f55a4df523b3ef60405160405180910390a4612db083838361331c565b505050565b6000612710905090565b6000600860009054906101000a900473ffffffffffffffffffffffffffffffffffffffff16905081600860006101000a81548173ffffffffffffffffffffffffffffffffffffffff021916908373ffffffffffffffffffffffffffffffffffffffff1602179055508173ffffffffffffffffffffffffffffffffffffffff168173ffffffffffffffffffffffffffffffffffffffff167f8be0079c531659141344cd1fd0a4f28419497f9722a3daafe3b4186f6b6457e060405160405180910390a35050565b8173ffffffffffffffffffffffffffffffffffffffff168373ffffffffffffffffffffffffffffffffffffffff161415612ef4576040517f08c379a0000000000000000000000000000000000000000000000000000000008152600401612eeb90615583565b60405180910390fd5b80600760008573ffffffffffffffffffffffffffffffffffffffff1673ffffffffffffffffffffffffffffffffffffffff16815260200190815260200160002060008473ffffffffffffffffffffffffffffffffffffffff1673ffffffffffffffffffffffffffffffffffffffff16815260200190815260200160002060006101000a81548160ff0219169083151502179055508173ffffffffffffffffffffffffffffffffffffffff168373ffffffffffffffffffffffffffffffffffffffff167f17307eab39ab6107e8899845ad3d59bd9653f200f220920489ca2b5937696c3183604051612fe59190613a21565b60405180910390a3505050565b612ffd848484612b4e565b61300984848484613321565b613048576040517f08c379a000000000000000000000000000000000000000000000000000000000815260040161303f90615615565b60405180910390fd5b50505050565b606061400d805461305e90614725565b80601f016020809104026020016040519081016040528092919081815260200182805461308a90614725565b80156130d75780601f106130ac576101008083540402835291602001916130d7565b820191906000526020600020905b8154815290600101906020018083116130ba57829003601f168201915b5050505050905090565b60606000821415613129576040518060400160405280600181526020017f3000000000000000000000000000000000000000000000000000000000000000815250905061323d565b600082905060005b6000821461315b578080613144906152da565b915050600a826131549190614a41565b9150613131565b60008167ffffffffffffffff81111561317757613176613f4a565b5b6040519080825280601f01601f1916602001820160405280156131a95781602001600182028036833780820191505090505b5090505b60008514613236576001826131c291906151f4565b9150600a856131d191906146c5565b60306131dd919061519e565b60f81b8183815181106131f3576131f2615145565b5b60200101907effffffffffffffffffffffffffffffffffffffffffffffffffffffffffffff1916908160001a905350600a8561322f9190614a41565b94506131ad565b8093505050505b919050565b61324c83836134b8565b6132596000848484613321565b613298576040517f08c379a000000000000000000000000000000000000000000000000000000000815260040161328f90615615565b60405180910390fd5b505050565b60007f2a55205a000000000000000000000000000000000000000000000000000000007bffffffffffffffffffffffffffffffffffffffffffffffffffffffff1916827bffffffffffffffffffffffffffffffffffffffffffffffffffffffff19161480613310575061330f82613692565b5b9050919050565b505050565b505050565b60006133428473ffffffffffffffffffffffffffffffffffffffff166136fc565b156134ab578373ffffffffffffffffffffffffffffffffffffffff1663150b7a0261336b6129af565b8786866040518563ffffffff1660e01b815260040161338d949392919061568a565b602060405180830381600087803b1580156133a757600080fd5b505af19250505080156133d857506040513d601f19601f820116820180604052508101906133d591906156eb565b60015b61345b573d8060008114613408576040519150601f19603f3d011682016040523d82523d6000602084013e61340d565b606091505b50600081511415613453576040517f08c379a000000000000000000000000000000000000000000000000000000000815260040161344a90615615565b60405180910390fd5b805181602001fd5b63150b7a0260e01b7bffffffffffffffffffffffffffffffffffffffffffffffffffffffff1916817bffffffffffffffffffffffffffffffffffffffffffffffffffffffff1916149150506134b0565b600190505b949350505050565b600073ffffffffffffffffffffffffffffffffffffffff168273ffffffffffffffffffffffffffffffffffffffff161415613528576040517f08c379a000000000000000000000000000000000000000000000000000000000815260040161351f90615764565b60405180910390fd5b61353181612943565b15613571576040517f08c379a0000000000000000000000000000000000000000000000000000000008152600401613568906157d0565b60405180910390fd5b61357d60008383613317565b6001600560008473ffffffffffffffffffffffffffffffffffffffff1673ffffffffffffffffffffffffffffffffffffffff16815260200190815260200160002060008282546135cd919061519e565b92505081905550816004600083815260200190815260200160002060006101000a81548173ffffffffffffffffffffffffffffffffffffffff021916908373ffffffffffffffffffffffffffffffffffffffff160217905550808273ffffffffffffffffffffffffffffffffffffffff16600073ffffffffffffffffffffffffffffffffffffffff167fddf252ad1be2c89b69c2b068fc378daa952ba7f163c4a11628f55a4df523b3ef60405160405180910390a461368e6000838361331c565b5050565b60007f01ffc9a7000000000000000000000000000000000000000000000000000000007bffffffffffffffffffffffffffffffffffffffffffffffffffffffff1916827bffffffffffffffffffffffffffffffffffffffffffffffffffffffff1916149050919050565b6000808273ffffffffffffffffffffffffffffffffffffffff163b119050919050565b82805461372b90614725565b90600052602060002090601f01602090048101928261374d5760008555613794565b82601f1061376657803560ff1916838001178555613794565b82800160010185558215613794579182015b82811115613793578235825591602001919060010190613778565b5b5090506137a1919061387c565b5090565b82805482825590600052602060002090810192821561381e579160200282015b8281111561381d5782518260006101000a81548173ffffffffffffffffffffffffffffffffffffffff021916908373ffffffffffffffffffffffffffffffffffffffff160217905550916020019190600101906137c5565b5b50905061382b919061387c565b5090565b82805482825590600052602060002090810192821561386b579160200282015b8281111561386a57825182559160200191906001019061384f565b5b509050613878919061387c565b5090565b5b8082111561389557600081600090555060010161387d565b5090565b6000604051905090565b600080fd5b600080fd5b600060ff82169050919050565b6138c3816138ad565b81146138ce57600080fd5b50565b6000813590506138e0816138ba565b92915050565b60008060008060808587031215613900576138ff6138a3565b5b600061390e878288016138d1565b945050602061391f878288016138d1565b9350506040613930878288016138d1565b9250506060613941878288016138d1565b91505092959194509250565b6000819050919050565b6139608161394d565b82525050565b600060208201905061397b6000830184613957565b92915050565b60007fffffffff0000000000000000000000000000000000000000000000000000000082169050919050565b6139b681613981565b81146139c157600080fd5b50565b6000813590506139d3816139ad565b92915050565b6000602082840312156139ef576139ee6138a3565b5b60006139fd848285016139c4565b91505092915050565b60008115159050919050565b613a1b81613a06565b82525050565b6000602082019050613a366000830184613a12565b92915050565b600081519050919050565b600082825260208201905092915050565b60005b83811015613a76578082015181840152602081019050613a5b565b83811115613a85576000848401525b50505050565b6000601f19601f8301169050919050565b6000613aa782613a3c565b613ab18185613a47565b9350613ac1818560208601613a58565b613aca81613a8b565b840191505092915050565b60006020820190508181036000830152613aef8184613a9c565b905092915050565b613b008161394d565b8114613b0b57600080fd5b50565b600081359050613b1d81613af7565b92915050565b600060208284031215613b3957613b386138a3565b5b6000613b4784828501613b0e565b91505092915050565b600073ffffffffffffffffffffffffffffffffffffffff82169050919050565b6000613b7b82613b50565b9050919050565b613b8b81613b70565b82525050565b6000602082019050613ba66000830184613b82565b92915050565b613bb581613b70565b8114613bc057600080fd5b50565b600081359050613bd281613bac565b92915050565b60008060408385031215613bef57613bee6138a3565b5b6000613bfd85828601613bc3565b9250506020613c0e85828601613b0e565b9150509250929050565b600080600060608486031215613c3157613c306138a3565b5b6000613c3f86828701613bc3565b9350506020613c5086828701613bc3565b9250506040613c6186828701613b0e565b9150509250925092565b60008060408385031215613c8257613c816138a3565b5b6000613c9085828601613b0e565b9250506020613ca185828601613b0e565b9150509250929050565b6000604082019050613cc06000830185613b82565b613ccd6020830184613957565b9392505050565b600080fd5b600080fd5b600080fd5b60008083601f840112613cf957613cf8613cd4565b5b8235905067ffffffffffffffff811115613d1657613d15613cd9565b5b602083019150836020820283011115613d3257613d31613cde565b5b9250929050565b600080600060408486031215613d5257613d516138a3565b5b600084013567ffffffffffffffff811115613d7057613d6f6138a8565b5b613d7c86828701613ce3565b93509350506020613d8f86828701613b0e565b9150509250925092565b60008083601f840112613daf57613dae613cd4565b5b8235905067ffffffffffffffff811115613dcc57613dcb613cd9565b5b602083019150836001820283011115613de857613de7613cde565b5b9250929050565b60008060208385031215613e0657613e056138a3565b5b600083013567ffffffffffffffff811115613e2457613e236138a8565b5b613e3085828601613d99565b92509250509250929050565b613e45816138ad565b82525050565b600060c082019050613e606000830189613e3c565b613e6d6020830188613e3c565b613e7a6040830187613e3c565b613e876060830186613e3c565b613e946080830185613957565b613ea160a0830184613b82565b979650505050505050565b600060208284031215613ec257613ec16138a3565b5b6000613ed084828501613bc3565b91505092915050565b613ee281613a06565b8114613eed57600080fd5b50565b600081359050613eff81613ed9565b92915050565b60008060408385031215613f1c57613f1b6138a3565b5b6000613f2a85828601613bc3565b9250506020613f3b85828601613ef0565b9150509250929050565b600080fd5b7f4e487b7100000000000000000000000000000000000000000000000000000000600052604160045260246000fd5b613f8282613a8b565b810181811067ffffffffffffffff82111715613fa157613fa0613f4a565b5b80604052505050565b6000613fb4613899565b9050613fc08282613f79565b919050565b600067ffffffffffffffff821115613fe057613fdf613f4a565b5b613fe982613a8b565b9050602081019050919050565b82818337600083830152505050565b600061401861401384613fc5565b613faa565b90508281526020810184848401111561403457614033613f45565b5b61403f848285613ff6565b509392505050565b600082601f83011261405c5761405b613cd4565b5b813561406c848260208601614005565b91505092915050565b6000806000806080858703121561408f5761408e6138a3565b5b600061409d87828801613bc3565b94505060206140ae87828801613bc3565b93505060406140bf87828801613b0e565b925050606085013567ffffffffffffffff8111156140e0576140df6138a8565b5b6140ec87828801614047565b91505092959194509250565b600067ffffffffffffffff82111561411357614112613f4a565b5b602082029050602081019050919050565b6000614137614132846140f8565b613faa565b9050808382526020820190506020840283018581111561415a57614159613cde565b5b835b81811015614183578061416f8882613bc3565b84526020840193505060208101905061415c565b5050509392505050565b600082601f8301126141a2576141a1613cd4565b5b81356141b2848260208601614124565b91505092915050565b600067ffffffffffffffff8211156141d6576141d5613f4a565b5b602082029050602081019050919050565b60006141fa6141f5846141bb565b613faa565b9050808382526020820190506020840283018581111561421d5761421c613cde565b5b835b8181101561424657806142328882613b0e565b84526020840193505060208101905061421f565b5050509392505050565b600082601f83011261426557614264613cd4565b5b81356142758482602086016141e7565b91505092915050565b60008060408385031215614295576142946138a3565b5b600083013567ffffffffffffffff8111156142b3576142b26138a8565b5b6142bf8582860161418d565b925050602083013567ffffffffffffffff8111156142e0576142df6138a8565b5b6142ec85828601614250565b9150509250929050565b6000806040838503121561430d5761430c6138a3565b5b600061431b85828601613bc3565b925050602061432c85828601613bc3565b9150509250929050565b7f666972737420636f6f72642030206f7220626967676572000000000000000000600082015250565b600061436c601783613a47565b915061437782614336565b602082019050919050565b6000602082019050818103600083015261439b8161435f565b9050919050565b7f7365636f6e6420636f6f726420313238206f7220736d616c6c65720000000000600082015250565b60006143d8601b83613a47565b91506143e3826143a2565b602082019050919050565b60006020820190508181036000830152614407816143cb565b9050919050565b7f326e6420636f6f726420736d616c6c6572207468616e20666972737420636f6f60008201527f7264000000000000000000000000000000000000000000000000000000000000602082015250565b600061446a602283613a47565b91506144758261440e565b604082019050919050565b600060208201905081810360008301526144998161445d565b9050919050565b7f4e487b7100000000000000000000000000000000000000000000000000000000600052601160045260246000fd5b60006144da826138ad565b91506144e5836138ad565b9250828210156144f8576144f76144a0565b5b828203905092915050565b600061450e826138ad565b9150614519836138ad565b92508160ff0483118215151615614533576145326144a0565b5b828202905092915050565b60006145498261394d565b91506145548361394d565b9250817fffffffffffffffffffffffffffffffffffffffffffffffffffffffffffffffff048311821515161561458d5761458c6144a0565b5b828202905092915050565b7f77726f6e6720616d6f756e740000000000000000000000000000000000000000600082015250565b60006145ce600c83613a47565b91506145d982614598565b602082019050919050565b600060208201905081810360008301526145fd816145c1565b9050919050565b7f612073656c65637465642070617263656c20697320616c7265616479206f776e60008201527f6564000000000000000000000000000000000000000000000000000000000000602082015250565b6000614660602283613a47565b915061466b82614604565b604082019050919050565b6000602082019050818103600083015261468f81614653565b9050919050565b7f4e487b7100000000000000000000000000000000000000000000000000000000600052601260045260246000fd5b60006146d08261394d565b91506146db8361394d565b9250826146eb576146ea614696565b5b828206905092915050565b7f4e487b7100000000000000000000000000000000000000000000000000000000600052602260045260246000fd5b6000600282049050600182168061473d57607f821691505b60208210811415614751576147506146f6565b5b50919050565b60006101208201905061476d600083018c613b82565b61477a602083018b613e3c565b614787604083018a613e3c565b6147946060830189613e3c565b6147a16080830188613e3c565b6147ae60a0830187613957565b81810360c08301526147c08186613a9c565b905081810360e08301526147d48185613a9c565b90508181036101008301526147e98184613a9c565b90509a9950505050505050505050565b7f4552433732313a20617070726f76656420717565727920666f72206e6f6e657860008201527f697374656e7420746f6b656e0000000000000000000000000000000000000000602082015250565b6000614855602c83613a47565b9150614860826147f9565b604082019050919050565b6000602082019050818103600083015261488481614848565b9050919050565b7f4552433732313a20617070726f76616c20746f2063757272656e74206f776e6560008201527f7200000000000000000000000000000000000000000000000000000000000000602082015250565b60006148e7602183613a47565b91506148f28261488b565b604082019050919050565b60006020820190508181036000830152614916816148da565b9050919050565b7f4552433732313a20617070726f76652063616c6c6572206973206e6f74206f7760008201527f6e6572206e6f7220617070726f76656420666f7220616c6c0000000000000000602082015250565b6000614979603883613a47565b91506149848261491d565b604082019050919050565b600060208201905081810360008301526149a88161496c565b9050919050565b7f4552433732313a207472616e736665722063616c6c6572206973206e6f74206f60008201527f776e6572206e6f7220617070726f766564000000000000000000000000000000602082015250565b6000614a0b603183613a47565b9150614a16826149af565b604082019050919050565b60006020820190508181036000830152614a3a816149fe565b9050919050565b6000614a4c8261394d565b9150614a578361394d565b925082614a6757614a66614696565b5b828204905092915050565b7f7520646f6e74206f776e20746869730000000000000000000000000000000000600082015250565b6000614aa8600f83613a47565b9150614ab382614a72565b602082019050919050565b60006020820190508181036000830152614ad781614a9b565b9050919050565b600063ffffffff82169050919050565b6000614af982614ade565b9150614b0483614ade565b92508163ffffffff0483118215151615614b2157614b206144a0565b5b828202905092915050565b7f77726f6e6720616d6f756e74206f662070780000000000000000000000000000600082015250565b6000614b62601283613a47565b9150614b6d82614b2c565b602082019050919050565b60006020820190508181036000830152614b9181614b55565b9050919050565b600082825260208201905092915050565b6000819050919050565b614bbc816138ad565b82525050565b6000614bce8383614bb3565b60208301905092915050565b6000614be960208401846138d1565b905092915050565b6000602082019050919050565b6000614c0a8385614b98565b9350614c1582614ba9565b8060005b85811015614c4e57614c2b8284614bda565b614c358882614bc2565b9750614c4083614bf1565b925050600181019050614c19565b5085925050509392505050565b60006020820190508181036000830152614c76818486614bfe565b90509392505050565b7f4f776e61626c653a2063616c6c6572206973206e6f7420746865206f776e6572600082015250565b6000614cb5602083613a47565b9150614cc082614c7f565b602082019050919050565b60006020820190508181036000830152614ce481614ca8565b9050919050565b7f4552433732313a206f776e657220717565727920666f72206e6f6e657869737460008201527f656e7420746f6b656e0000000000000000000000000000000000000000000000602082015250565b6000614d47602983613a47565b9150614d5282614ceb565b604082019050919050565b60006020820190508181036000830152614d7681614d3a565b9050919050565b7f4552433732313a2062616c616e636520717565727920666f7220746865207a6560008201527f726f206164647265737300000000000000000000000000000000000000000000602082015250565b6000614dd9602a83613a47565b9150614de482614d7d565b604082019050919050565b60006020820190508181036000830152614e0881614dcc565b9050919050565b7f626164207061796d656e7420696e666f00000000000000000000000000000000600082015250565b6000614e45601083613a47565b9150614e5082614e0f565b602082019050919050565b60006020820190508181036000830152614e7481614e38565b9050919050565b7f6e6f20706179656520696e666f00000000000000000000000000000000000000600082015250565b6000614eb1600d83613a47565b9150614ebc82614e7b565b602082019050919050565b60006020820190508181036000830152614ee081614ea4565b9050919050565b7f4552433732314d657461646174613a2055524920717565727920666f72206e6f60008201527f6e6578697374656e7420746f6b656e0000000000000000000000000000000000602082015250565b6000614f43602f83613a47565b9150614f4e82614ee7565b604082019050919050565b60006020820190508181036000830152614f7281614f36565b9050919050565b600081905092915050565b6000614f8f82613a3c565b614f998185614f79565b9350614fa9818560208601613a58565b80840191505092915050565b6000614fc18285614f84565b9150614fcd8284614f84565b91508190509392505050565b7f5072652d4d696e7420697320436c6f7365640000000000000000000000000000600082015250565b600061500f601283613a47565b915061501a82614fd9565b602082019050919050565b6000602082019050818103600083015261503e81615002565b9050919050565b7f636f6e74726163742d6d65746100000000000000000000000000000000000000600082015250565b600061507b600d83614f79565b915061508682615045565b600d82019050919050565b600061509d8284614f84565b91506150a88261506e565b915081905092915050565b7f4f776e61626c653a206e6577206f776e657220697320746865207a65726f206160008201527f6464726573730000000000000000000000000000000000000000000000000000602082015250565b600061510f602683613a47565b915061511a826150b3565b604082019050919050565b6000602082019050818103600083015261513e81615102565b9050919050565b7f4e487b7100000000000000000000000000000000000000000000000000000000600052603260045260246000fd5b600061517f826138ad565b915060ff821415615193576151926144a0565b5b600182019050919050565b60006151a98261394d565b91506151b48361394d565b9250827fffffffffffffffffffffffffffffffffffffffffffffffffffffffffffffffff038211156151e9576151e86144a0565b5b828201905092915050565b60006151ff8261394d565b915061520a8361394d565b92508282101561521d5761521c6144a0565b5b828203905092915050565b600081905092915050565b50565b6000615243600083615228565b915061524e82615233565b600082019050919050565b600061526482615236565b9150819050919050565b7f4661696c656420746f2073656e64207061796d656e7900000000000000000000600082015250565b60006152a4601683613a47565b91506152af8261526e565b602082019050919050565b600060208201905081810360008301526152d381615297565b9050919050565b60006152e58261394d565b91507fffffffffffffffffffffffffffffffffffffffffffffffffffffffffffffffff821415615318576153176144a0565b5b600182019050919050565b6000819050919050565b61533e6153398261394d565b615323565b82525050565b6000615350828661532d565b602082019150615360828561532d565b602082019150615370828461532d565b602082019150819050949350505050565b7f4552433732313a206f70657261746f7220717565727920666f72206e6f6e657860008201527f697374656e7420746f6b656e0000000000000000000000000000000000000000602082015250565b60006153dd602c83613a47565b91506153e882615381565b604082019050919050565b6000602082019050818103600083015261540c816153d0565b9050919050565b7f4552433732313a207472616e736665722066726f6d20696e636f72726563742060008201527f6f776e6572000000000000000000000000000000000000000000000000000000602082015250565b600061546f602583613a47565b915061547a82615413565b604082019050919050565b6000602082019050818103600083015261549e81615462565b9050919050565b7f4552433732313a207472616e7366657220746f20746865207a65726f2061646460008201527f7265737300000000000000000000000000000000000000000000000000000000602082015250565b6000615501602483613a47565b915061550c826154a5565b604082019050919050565b60006020820190508181036000830152615530816154f4565b9050919050565b7f4552433732313a20617070726f766520746f2063616c6c657200000000000000600082015250565b600061556d601983613a47565b915061557882615537565b602082019050919050565b6000602082019050818103600083015261559c81615560565b9050919050565b7f4552433732313a207472616e7366657220746f206e6f6e20455243373231526560008201527f63656976657220696d706c656d656e7465720000000000000000000000000000602082015250565b60006155ff603283613a47565b915061560a826155a3565b604082019050919050565b6000602082019050818103600083015261562e816155f2565b9050919050565b600081519050919050565b600082825260208201905092915050565b600061565c82615635565b6156668185615640565b9350615676818560208601613a58565b61567f81613a8b565b840191505092915050565b600060808201905061569f6000830187613b82565b6156ac6020830186613b82565b6156b96040830185613957565b81810360608301526156cb8184615651565b905095945050505050565b6000815190506156e5816139ad565b92915050565b600060208284031215615701576157006138a3565b5b600061570f848285016156d6565b91505092915050565b7f4552433732313a206d696e7420746f20746865207a65726f2061646472657373600082015250565b600061574e602083613a47565b915061575982615718565b602082019050919050565b6000602082019050818103600083015261577d81615741565b9050919050565b7f4552433732313a20746f6b656e20616c7265616479206d696e74656400000000600082015250565b60006157ba601c83613a47565b91506157c582615784565b602082019050919050565b600060208201905081810360008301526157e9816157ad565b905091905056fea264697066735822122002d1b44e8ca684f2a5fd50a1d744f81316a9e7841adfbbc5388c13ec59c7bcc264736f6c63430008090033",
  "linkReferences": {},
  "deployedLinkReferences": {}
}