{
  "_format": "hh-sol-artifact-1",
  "contractName": "Nolandia",
  "sourceName": "contracts/MetaNol2.sol",
  "abi": [
    {
      "inputs": [
        {
          "internalType": "address[]",
          "name": "_payees",
          "type": "address[]"
        },
        {
          "internalType": "uint256[]",
          "name": "_shares",
          "type": "uint256[]"
        }
      ],
      "stateMutability": "payable",
      "type": "constructor"
    },
    {
      "anonymous": false,
      "inputs": [
        {
          "indexed": true,
          "internalType": "address",
          "name": "owner",
          "type": "address"
        },
        {
          "indexed": true,
          "internalType": "address",
          "name": "approved",
          "type": "address"
        },
        {
          "indexed": true,
          "internalType": "uint256",
          "name": "tokenId",
          "type": "uint256"
        }
      ],
      "name": "Approval",
      "type": "event"
    },
    {
      "anonymous": false,
      "inputs": [
        {
          "indexed": true,
          "internalType": "address",
          "name": "owner",
          "type": "address"
        },
        {
          "indexed": true,
          "internalType": "address",
          "name": "operator",
          "type": "address"
        },
        {
          "indexed": false,
          "internalType": "bool",
          "name": "approved",
          "type": "bool"
        }
      ],
      "name": "ApprovalForAll",
      "type": "event"
    },
    {
      "anonymous": false,
      "inputs": [
        {
          "indexed": true,
          "internalType": "contract IERC20",
          "name": "token",
          "type": "address"
        },
        {
          "indexed": false,
          "internalType": "address",
          "name": "to",
          "type": "address"
        },
        {
          "indexed": false,
          "internalType": "uint256",
          "name": "amount",
          "type": "uint256"
        }
      ],
      "name": "ERC20PaymentReleased",
      "type": "event"
    },
    {
      "anonymous": false,
      "inputs": [
        {
          "indexed": true,
          "internalType": "address",
          "name": "previousOwner",
          "type": "address"
        },
        {
          "indexed": true,
          "internalType": "address",
          "name": "newOwner",
          "type": "address"
        }
      ],
      "name": "OwnershipTransferred",
      "type": "event"
    },
    {
      "anonymous": false,
      "inputs": [
        {
          "indexed": false,
          "internalType": "address",
          "name": "account",
          "type": "address"
        },
        {
          "indexed": false,
          "internalType": "uint256",
          "name": "shares",
          "type": "uint256"
        }
      ],
      "name": "PayeeAdded",
      "type": "event"
    },
    {
      "anonymous": false,
      "inputs": [
        {
          "indexed": false,
          "internalType": "address",
          "name": "from",
          "type": "address"
        },
        {
          "indexed": false,
          "internalType": "uint256",
          "name": "amount",
          "type": "uint256"
        }
      ],
      "name": "PaymentReceived",
      "type": "event"
    },
    {
      "anonymous": false,
      "inputs": [
        {
          "indexed": false,
          "internalType": "address",
          "name": "to",
          "type": "address"
        },
        {
          "indexed": false,
          "internalType": "uint256",
          "name": "amount",
          "type": "uint256"
        }
      ],
      "name": "PaymentReleased",
      "type": "event"
    },
    {
      "anonymous": false,
      "inputs": [
        {
          "indexed": true,
          "internalType": "uint256",
          "name": "plotId",
          "type": "uint256"
        },
        {
          "indexed": false,
          "internalType": "uint8[]",
          "name": "imageData",
          "type": "uint8[]"
        }
      ],
      "name": "PlotPixelsSet",
      "type": "event"
    },
    {
      "anonymous": false,
      "inputs": [
        {
          "indexed": true,
          "internalType": "uint256",
          "name": "plotId",
          "type": "uint256"
        },
        {
          "indexed": false,
          "internalType": "address",
          "name": "plotOwner",
          "type": "address"
        },
        {
          "indexed": false,
          "internalType": "uint8",
          "name": "x1",
          "type": "uint8"
        },
        {
          "indexed": false,
          "internalType": "uint8",
          "name": "y1",
          "type": "uint8"
        },
        {
          "indexed": false,
          "internalType": "uint8",
          "name": "x2",
          "type": "uint8"
        },
        {
          "indexed": false,
          "internalType": "uint8",
          "name": "y2",
          "type": "uint8"
        }
      ],
      "name": "PlotPurchased",
      "type": "event"
    },
    {
      "anonymous": false,
      "inputs": [
        {
          "indexed": true,
          "internalType": "address",
          "name": "from",
          "type": "address"
        },
        {
          "indexed": true,
          "internalType": "address",
          "name": "to",
          "type": "address"
        },
        {
          "indexed": true,
          "internalType": "uint256",
          "name": "tokenId",
          "type": "uint256"
        }
      ],
      "name": "Transfer",
      "type": "event"
    },
    {
      "inputs": [
        {
          "internalType": "address",
          "name": "to",
          "type": "address"
        },
        {
          "internalType": "uint256",
          "name": "tokenId",
          "type": "uint256"
        }
      ],
      "name": "approve",
      "outputs": [],
      "stateMutability": "nonpayable",
      "type": "function"
    },
    {
      "inputs": [
        {
          "internalType": "address",
          "name": "owner",
          "type": "address"
        }
      ],
      "name": "balanceOf",
      "outputs": [
        {
          "internalType": "uint256",
          "name": "",
          "type": "uint256"
        }
      ],
      "stateMutability": "view",
      "type": "function"
    },
    {
      "inputs": [
        {
          "internalType": "uint8",
          "name": "x1",
          "type": "uint8"
        },
        {
          "internalType": "uint8",
          "name": "y1",
          "type": "uint8"
        },
        {
          "internalType": "uint8",
          "name": "x2",
          "type": "uint8"
        },
        {
          "internalType": "uint8",
          "name": "y2",
          "type": "uint8"
        }
      ],
      "name": "buyPlot",
      "outputs": [
        {
          "internalType": "uint256",
          "name": "",
          "type": "uint256"
        }
      ],
      "stateMutability": "payable",
      "type": "function"
    },
    {
      "inputs": [
        {
          "internalType": "uint256",
          "name": "tokenId",
          "type": "uint256"
        }
      ],
      "name": "getApproved",
      "outputs": [
        {
          "internalType": "address",
          "name": "",
          "type": "address"
        }
      ],
      "stateMutability": "view",
      "type": "function"
    },
    {
      "inputs": [
        {
          "internalType": "address",
          "name": "owner",
          "type": "address"
        },
        {
          "internalType": "address",
          "name": "operator",
          "type": "address"
        }
      ],
      "name": "isApprovedForAll",
      "outputs": [
        {
          "internalType": "bool",
          "name": "",
          "type": "bool"
        }
      ],
      "stateMutability": "view",
      "type": "function"
    },
    {
      "inputs": [],
      "name": "name",
      "outputs": [
        {
          "internalType": "string",
          "name": "",
          "type": "string"
        }
      ],
      "stateMutability": "view",
      "type": "function"
    },
    {
      "inputs": [],
      "name": "owner",
      "outputs": [
        {
          "internalType": "address",
          "name": "",
          "type": "address"
        }
      ],
      "stateMutability": "view",
      "type": "function"
    },
    {
      "inputs": [
        {
          "internalType": "uint256",
          "name": "tokenId",
          "type": "uint256"
        }
      ],
      "name": "ownerOf",
      "outputs": [
        {
          "internalType": "address",
          "name": "",
          "type": "address"
        }
      ],
      "stateMutability": "view",
      "type": "function"
    },
    {
      "inputs": [
        {
          "internalType": "uint256",
          "name": "",
          "type": "uint256"
        },
        {
          "internalType": "uint256",
          "name": "",
          "type": "uint256"
        }
      ],
      "name": "parcels",
      "outputs": [
        {
          "internalType": "uint256",
          "name": "",
          "type": "uint256"
        }
      ],
      "stateMutability": "view",
      "type": "function"
    },
    {
      "inputs": [
        {
          "internalType": "uint256",
          "name": "index",
          "type": "uint256"
        }
      ],
      "name": "payee",
      "outputs": [
        {
          "internalType": "address",
          "name": "",
          "type": "address"
        }
      ],
      "stateMutability": "view",
      "type": "function"
    },
    {
      "inputs": [
        {
          "internalType": "address payable",
          "name": "account",
          "type": "address"
        }
      ],
      "name": "release",
      "outputs": [],
      "stateMutability": "nonpayable",
      "type": "function"
    },
    {
      "inputs": [
        {
          "internalType": "contract IERC20",
          "name": "token",
          "type": "address"
        },
        {
          "internalType": "address",
          "name": "account",
          "type": "address"
        }
      ],
      "name": "release",
      "outputs": [],
      "stateMutability": "nonpayable",
      "type": "function"
    },
    {
      "inputs": [
        {
          "internalType": "contract IERC20",
          "name": "token",
          "type": "address"
        },
        {
          "internalType": "address",
          "name": "account",
          "type": "address"
        }
      ],
      "name": "released",
      "outputs": [
        {
          "internalType": "uint256",
          "name": "",
          "type": "uint256"
        }
      ],
      "stateMutability": "view",
      "type": "function"
    },
    {
      "inputs": [
        {
          "internalType": "address",
          "name": "account",
          "type": "address"
        }
      ],
      "name": "released",
      "outputs": [
        {
          "internalType": "uint256",
          "name": "",
          "type": "uint256"
        }
      ],
      "stateMutability": "view",
      "type": "function"
    },
    {
      "inputs": [],
      "name": "renounceOwnership",
      "outputs": [],
      "stateMutability": "nonpayable",
      "type": "function"
    },
    {
      "inputs": [
        {
          "internalType": "address",
          "name": "from",
          "type": "address"
        },
        {
          "internalType": "address",
          "name": "to",
          "type": "address"
        },
        {
          "internalType": "uint256",
          "name": "tokenId",
          "type": "uint256"
        }
      ],
      "name": "safeTransferFrom",
      "outputs": [],
      "stateMutability": "nonpayable",
      "type": "function"
    },
    {
      "inputs": [
        {
          "internalType": "address",
          "name": "from",
          "type": "address"
        },
        {
          "internalType": "address",
          "name": "to",
          "type": "address"
        },
        {
          "internalType": "uint256",
          "name": "tokenId",
          "type": "uint256"
        },
        {
          "internalType": "bytes",
          "name": "_data",
          "type": "bytes"
        }
      ],
      "name": "safeTransferFrom",
      "outputs": [],
      "stateMutability": "nonpayable",
      "type": "function"
    },
    {
      "inputs": [
        {
          "internalType": "address",
          "name": "operator",
          "type": "address"
        },
        {
          "internalType": "bool",
          "name": "approved",
          "type": "bool"
        }
      ],
      "name": "setApprovalForAll",
      "outputs": [],
      "stateMutability": "nonpayable",
      "type": "function"
    },
    {
      "inputs": [
        {
          "internalType": "uint8[]",
          "name": "pixels",
          "type": "uint8[]"
        },
        {
          "internalType": "uint256",
          "name": "plotId",
          "type": "uint256"
        }
      ],
      "name": "setPixels",
      "outputs": [],
      "stateMutability": "nonpayable",
      "type": "function"
    },
    {
      "inputs": [
        {
          "internalType": "address",
          "name": "account",
          "type": "address"
        }
      ],
      "name": "shares",
      "outputs": [
        {
          "internalType": "uint256",
          "name": "",
          "type": "uint256"
        }
      ],
      "stateMutability": "view",
      "type": "function"
    },
    {
      "inputs": [
        {
          "internalType": "bytes4",
          "name": "interfaceId",
          "type": "bytes4"
        }
      ],
      "name": "supportsInterface",
      "outputs": [
        {
          "internalType": "bool",
          "name": "",
          "type": "bool"
        }
      ],
      "stateMutability": "view",
      "type": "function"
    },
    {
      "inputs": [],
      "name": "symbol",
      "outputs": [
        {
          "internalType": "string",
          "name": "",
          "type": "string"
        }
      ],
      "stateMutability": "view",
      "type": "function"
    },
    {
      "inputs": [
        {
          "internalType": "uint256",
          "name": "tokenId",
          "type": "uint256"
        }
      ],
      "name": "tokenURI",
      "outputs": [
        {
          "internalType": "string",
          "name": "",
          "type": "string"
        }
      ],
      "stateMutability": "view",
      "type": "function"
    },
    {
      "inputs": [
        {
          "internalType": "contract IERC20",
          "name": "token",
          "type": "address"
        }
      ],
      "name": "totalReleased",
      "outputs": [
        {
          "internalType": "uint256",
          "name": "",
          "type": "uint256"
        }
      ],
      "stateMutability": "view",
      "type": "function"
    },
    {
      "inputs": [],
      "name": "totalReleased",
      "outputs": [
        {
          "internalType": "uint256",
          "name": "",
          "type": "uint256"
        }
      ],
      "stateMutability": "view",
      "type": "function"
    },
    {
      "inputs": [],
      "name": "totalShares",
      "outputs": [
        {
          "internalType": "uint256",
          "name": "",
          "type": "uint256"
        }
      ],
      "stateMutability": "view",
      "type": "function"
    },
    {
      "inputs": [
        {
          "internalType": "address",
          "name": "from",
          "type": "address"
        },
        {
          "internalType": "address",
          "name": "to",
          "type": "address"
        },
        {
          "internalType": "uint256",
          "name": "tokenId",
          "type": "uint256"
        }
      ],
      "name": "transferFrom",
      "outputs": [],
      "stateMutability": "nonpayable",
      "type": "function"
    },
    {
      "inputs": [
        {
          "internalType": "address",
          "name": "newOwner",
          "type": "address"
        }
      ],
      "name": "transferOwnership",
      "outputs": [],
      "stateMutability": "nonpayable",
      "type": "function"
    },
    {
      "stateMutability": "payable",
      "type": "receive"
    }
  ],
  "bytecode": "0x60806040526001600f556040601060006101000a81548160ff021916908360ff1602179055506004601060016101000a81548160ff021916908360ff160217905550604051620063c9380380620063c98339818101604052810190620000669190620008e7565b81816040518060400160405280600881526020017f4e6f6c616e6469610000000000000000000000000000000000000000000000008152506040518060400160405280600681526020017f4e4f4c414e4400000000000000000000000000000000000000000000000000008152508160009080519060200190620000ec92919062000538565b5080600190805190602001906200010592919062000538565b505050620001286200011c6200023060201b60201c565b6200023860201b60201c565b80518251146200016f576040517f08c379a00000000000000000000000000000000000000000000000000000000081526004016200016690620009f3565b60405180910390fd5b6000825111620001b6576040517f08c379a0000000000000000000000000000000000000000000000000000000008152600401620001ad9062000a65565b60405180910390fd5b60005b825181101562000225576200020f838281518110620001dd57620001dc62000a87565b5b6020026020010151838381518110620001fb57620001fa62000a87565b5b6020026020010151620002fe60201b60201c565b80806200021c9062000ae5565b915050620001b9565b505050505062000de6565b600033905090565b6000600660009054906101000a900473ffffffffffffffffffffffffffffffffffffffff16905081600660006101000a81548173ffffffffffffffffffffffffffffffffffffffff021916908373ffffffffffffffffffffffffffffffffffffffff1602179055508173ffffffffffffffffffffffffffffffffffffffff168173ffffffffffffffffffffffffffffffffffffffff167f8be0079c531659141344cd1fd0a4f28419497f9722a3daafe3b4186f6b6457e060405160405180910390a35050565b600073ffffffffffffffffffffffffffffffffffffffff168273ffffffffffffffffffffffffffffffffffffffff16141562000371576040517f08c379a0000000000000000000000000000000000000000000000000000000008152600401620003689062000ba9565b60405180910390fd5b60008111620003b7576040517f08c379a0000000000000000000000000000000000000000000000000000000008152600401620003ae9062000c1b565b60405180910390fd5b6000600960008473ffffffffffffffffffffffffffffffffffffffff1673ffffffffffffffffffffffffffffffffffffffff16815260200190815260200160002054146200043c576040517f08c379a0000000000000000000000000000000000000000000000000000000008152600401620004339062000cb3565b60405180910390fd5b600b829080600181540180825580915050600190039060005260206000200160009091909190916101000a81548173ffffffffffffffffffffffffffffffffffffffff021916908373ffffffffffffffffffffffffffffffffffffffff16021790555080600960008473ffffffffffffffffffffffffffffffffffffffff1673ffffffffffffffffffffffffffffffffffffffff1681526020019081526020016000208190555080600754620004f3919062000cd5565b6007819055507f40c340f65e17194d14ddddb073d3c9f888e3cb52b5aae0c6c7706b4fbc905fac82826040516200052c92919062000d54565b60405180910390a15050565b828054620005469062000db0565b90600052602060002090601f0160209004810192826200056a5760008555620005b6565b82601f106200058557805160ff1916838001178555620005b6565b82800160010185558215620005b6579182015b82811115620005b557825182559160200191906001019062000598565b5b509050620005c59190620005c9565b5090565b5b80821115620005e4576000816000905550600101620005ca565b5090565b6000604051905090565b600080fd5b600080fd5b600080fd5b6000601f19601f8301169050919050565b7f4e487b7100000000000000000000000000000000000000000000000000000000600052604160045260246000fd5b6200064c8262000601565b810181811067ffffffffffffffff821117156200066e576200066d62000612565b5b80604052505050565b600062000683620005e8565b905062000691828262000641565b919050565b600067ffffffffffffffff821115620006b457620006b362000612565b5b602082029050602081019050919050565b600080fd5b600073ffffffffffffffffffffffffffffffffffffffff82169050919050565b6000620006f782620006ca565b9050919050565b6200070981620006ea565b81146200071557600080fd5b50565b6000815190506200072981620006fe565b92915050565b600062000746620007408462000696565b62000677565b905080838252602082019050602084028301858111156200076c576200076b620006c5565b5b835b8181101562000799578062000784888262000718565b8452602084019350506020810190506200076e565b5050509392505050565b600082601f830112620007bb57620007ba620005fc565b5b8151620007cd8482602086016200072f565b91505092915050565b600067ffffffffffffffff821115620007f457620007f362000612565b5b602082029050602081019050919050565b6000819050919050565b6200081a8162000805565b81146200082657600080fd5b50565b6000815190506200083a816200080f565b92915050565b6000620008576200085184620007d6565b62000677565b905080838252602082019050602084028301858111156200087d576200087c620006c5565b5b835b81811015620008aa578062000895888262000829565b8452602084019350506020810190506200087f565b5050509392505050565b600082601f830112620008cc57620008cb620005fc565b5b8151620008de84826020860162000840565b91505092915050565b60008060408385031215620009015762000900620005f2565b5b600083015167ffffffffffffffff811115620009225762000921620005f7565b5b6200093085828601620007a3565b925050602083015167ffffffffffffffff811115620009545762000953620005f7565b5b6200096285828601620008b4565b9150509250929050565b600082825260208201905092915050565b7f5061796d656e7453706c69747465723a2070617965657320616e64207368617260008201527f6573206c656e677468206d69736d617463680000000000000000000000000000602082015250565b6000620009db6032836200096c565b9150620009e8826200097d565b604082019050919050565b6000602082019050818103600083015262000a0e81620009cc565b9050919050565b7f5061796d656e7453706c69747465723a206e6f20706179656573000000000000600082015250565b600062000a4d601a836200096c565b915062000a5a8262000a15565b602082019050919050565b6000602082019050818103600083015262000a808162000a3e565b9050919050565b7f4e487b7100000000000000000000000000000000000000000000000000000000600052603260045260246000fd5b7f4e487b7100000000000000000000000000000000000000000000000000000000600052601160045260246000fd5b600062000af28262000805565b91507fffffffffffffffffffffffffffffffffffffffffffffffffffffffffffffffff82141562000b285762000b2762000ab6565b5b600182019050919050565b7f5061796d656e7453706c69747465723a206163636f756e74206973207468652060008201527f7a65726f20616464726573730000000000000000000000000000000000000000602082015250565b600062000b91602c836200096c565b915062000b9e8262000b33565b604082019050919050565b6000602082019050818103600083015262000bc48162000b82565b9050919050565b7f5061796d656e7453706c69747465723a20736861726573206172652030000000600082015250565b600062000c03601d836200096c565b915062000c108262000bcb565b602082019050919050565b6000602082019050818103600083015262000c368162000bf4565b9050919050565b7f5061796d656e7453706c69747465723a206163636f756e7420616c726561647960008201527f2068617320736861726573000000000000000000000000000000000000000000602082015250565b600062000c9b602b836200096c565b915062000ca88262000c3d565b604082019050919050565b6000602082019050818103600083015262000cce8162000c8c565b9050919050565b600062000ce28262000805565b915062000cef8362000805565b9250827fffffffffffffffffffffffffffffffffffffffffffffffffffffffffffffffff0382111562000d275762000d2662000ab6565b5b828201905092915050565b62000d3d81620006ea565b82525050565b62000d4e8162000805565b82525050565b600060408201905062000d6b600083018562000d32565b62000d7a602083018462000d43565b9392505050565b7f4e487b7100000000000000000000000000000000000000000000000000000000600052602260045260246000fd5b6000600282049050600182168062000dc957607f821691505b6020821081141562000de05762000ddf62000d81565b5b50919050565b6155d38062000df66000396000f3fe6080604052600436106101bb5760003560e01c8063715018a6116100ec578063b88d4fde1161008a578063d79779b211610064578063d79779b2146106a4578063e33b7de3146106e1578063e985e9c51461070c578063f2fde38b1461074957610202565b8063b88d4fde14610601578063c87b56dd1461062a578063ce7c2ac21461066757610202565b806391e98205116100c657806391e982051461053357806395d89b41146105705780639852595c1461059b578063a22cb465146105d857610202565b8063715018a6146104b45780638b83209b146104cb5780638da5cb5b1461050857610202565b80633a98ef39116101595780634409a876116101335780634409a876146103e857806348b75044146104115780636352211e1461043a57806370a082311461047757610202565b80633a98ef3914610357578063406072a91461038257806342842e0e146103bf57610202565b8063081812fc11610195578063081812fc1461029f578063095ea7b3146102dc578063191655871461030557806323b872dd1461032e57610202565b8063014676bc1461020757806301ffc9a71461023757806306fdde031461027457610202565b36610202577f6ef95f06320e7a25a04a175ca677b7052bdd97131872c2192525a629f51be7706101e9610772565b346040516101f89291906131bc565b60405180910390a1005b600080fd5b610221600480360381019061021c9190613232565b61077a565b60405161022e9190613299565b60405180910390f35b34801561024357600080fd5b5061025e6004803603810190610259919061330c565b610b20565b60405161026b9190613354565b60405180910390f35b34801561028057600080fd5b50610289610c02565b6040516102969190613408565b60405180910390f35b3480156102ab57600080fd5b506102c660048036038101906102c19190613456565b610c94565b6040516102d39190613483565b60405180910390f35b3480156102e857600080fd5b5061030360048036038101906102fe91906134ca565b610d19565b005b34801561031157600080fd5b5061032c60048036038101906103279190613548565b610e31565b005b34801561033a57600080fd5b5061035560048036038101906103509190613575565b610fdc565b005b34801561036357600080fd5b5061036c61103c565b6040516103799190613299565b60405180910390f35b34801561038e57600080fd5b506103a960048036038101906103a49190613606565b611046565b6040516103b69190613299565b60405180910390f35b3480156103cb57600080fd5b506103e660048036038101906103e19190613575565b6110cd565b005b3480156103f457600080fd5b5061040f600480360381019061040a91906136ab565b6110ed565b005b34801561041d57600080fd5b5061043860048036038101906104339190613606565b611370565b005b34801561044657600080fd5b50610461600480360381019061045c9190613456565b611638565b60405161046e9190613483565b60405180910390f35b34801561048357600080fd5b5061049e6004803603810190610499919061370b565b6116ea565b6040516104ab9190613299565b60405180910390f35b3480156104c057600080fd5b506104c96117a2565b005b3480156104d757600080fd5b506104f260048036038101906104ed9190613456565b61182a565b6040516104ff9190613483565b60405180910390f35b34801561051457600080fd5b5061051d611872565b60405161052a9190613483565b60405180910390f35b34801561053f57600080fd5b5061055a60048036038101906105559190613738565b61189c565b6040516105679190613299565b60405180910390f35b34801561057c57600080fd5b506105856118ca565b6040516105929190613408565b60405180910390f35b3480156105a757600080fd5b506105c260048036038101906105bd919061370b565b61195c565b6040516105cf9190613299565b60405180910390f35b3480156105e457600080fd5b506105ff60048036038101906105fa91906137a4565b6119a5565b005b34801561060d57600080fd5b5061062860048036038101906106239190613914565b6119bb565b005b34801561063657600080fd5b50610651600480360381019061064c9190613456565b611a1d565b60405161065e9190613408565b60405180910390f35b34801561067357600080fd5b5061068e6004803603810190610689919061370b565b611b0c565b60405161069b9190613299565b60405180910390f35b3480156106b057600080fd5b506106cb60048036038101906106c69190613997565b611b55565b6040516106d89190613299565b60405180910390f35b3480156106ed57600080fd5b506106f6611b9e565b6040516107039190613299565b60405180910390f35b34801561071857600080fd5b50610733600480360381019061072e91906139c4565b611ba8565b6040516107409190613354565b60405180910390f35b34801561075557600080fd5b50610770600480360381019061076b919061370b565b611c3c565b005b600033905090565b6000808560ff1610158015610793575060008460ff1610155b6107d2576040517f08c379a00000000000000000000000000000000000000000000000000000000081526004016107c990613a50565b60405180910390fd5b60808360ff16111580156107ea575060808260ff1611155b610829576040517f08c379a000000000000000000000000000000000000000000000000000000000815260040161082090613abc565b60405180910390fd5b8260ff168560ff1610801561084357508160ff168460ff16105b610882576040517f08c379a000000000000000000000000000000000000000000000000000000000815260040161087990613b4e565b60405180910390fd5b600084836108909190613b9d565b868561089c9190613b9d565b6108a69190613bd1565b60ff16905034601060009054906101000a900460ff1660ff16600f54836108cd9190613c0c565b6108d79190613c0c565b14610917576040517f08c379a000000000000000000000000000000000000000000000000000000000815260040161090e90613cb2565b60405180910390fd5b610921600e611d34565b600061092d600e611d4a565b90506001151561093f88888888611d58565b151514610981576040517f08c379a000000000000000000000000000000000000000000000000000000000815260040161097890613d44565b60405180910390fd5b61098e8787878785611e02565b6109983382611e8f565b6040518060c001604052808860ff1681526020018760ff1681526020018660ff1681526020018560ff1681526020018281526020013373ffffffffffffffffffffffffffffffffffffffff16815250614011600083815260200190815260200160002060008201518160000160006101000a81548160ff021916908360ff16021790555060208201518160000160016101000a81548160ff021916908360ff16021790555060408201518160000160026101000a81548160ff021916908360ff16021790555060608201518160000160036101000a81548160ff021916908360ff1602179055506080820151816001015560a08201518160020160006101000a81548173ffffffffffffffffffffffffffffffffffffffff021916908373ffffffffffffffffffffffffffffffffffffffff160217905550905050807fc7f9c709a3443a1baf574de6971f85729bd1c8c9fb18266c9d8d078e89456c133389898989604051610b0b959493929190613d73565b60405180910390a28092505050949350505050565b60007f80ac58cd000000000000000000000000000000000000000000000000000000007bffffffffffffffffffffffffffffffffffffffffffffffffffffffff1916827bffffffffffffffffffffffffffffffffffffffffffffffffffffffff19161480610beb57507f5b5e139f000000000000000000000000000000000000000000000000000000007bffffffffffffffffffffffffffffffffffffffffffffffffffffffff1916827bffffffffffffffffffffffffffffffffffffffffffffffffffffffff1916145b80610bfb5750610bfa82611ead565b5b9050919050565b606060008054610c1190613df5565b80601f0160208091040260200160405190810160405280929190818152602001828054610c3d90613df5565b8015610c8a5780601f10610c5f57610100808354040283529160200191610c8a565b820191906000526020600020905b815481529060010190602001808311610c6d57829003601f168201915b5050505050905090565b6000610c9f82611f17565b610cde576040517f08c379a0000000000000000000000000000000000000000000000000000000008152600401610cd590613e99565b60405180910390fd5b6004600083815260200190815260200160002060009054906101000a900473ffffffffffffffffffffffffffffffffffffffff169050919050565b6000610d2482611638565b90508073ffffffffffffffffffffffffffffffffffffffff168373ffffffffffffffffffffffffffffffffffffffff161415610d95576040517f08c379a0000000000000000000000000000000000000000000000000000000008152600401610d8c90613f2b565b60405180910390fd5b8073ffffffffffffffffffffffffffffffffffffffff16610db4610772565b73ffffffffffffffffffffffffffffffffffffffff161480610de35750610de281610ddd610772565b611ba8565b5b610e22576040517f08c379a0000000000000000000000000000000000000000000000000000000008152600401610e1990613fbd565b60405180910390fd5b610e2c8383611f83565b505050565b6000600960008373ffffffffffffffffffffffffffffffffffffffff1673ffffffffffffffffffffffffffffffffffffffff1681526020019081526020016000205411610eb3576040517f08c379a0000000000000000000000000000000000000000000000000000000008152600401610eaa9061404f565b60405180910390fd5b6000610ebd611b9e565b47610ec8919061406f565b90506000610edf8383610eda8661195c565b61203c565b90506000811415610f25576040517f08c379a0000000000000000000000000000000000000000000000000000000008152600401610f1c90614137565b60405180910390fd5b80600a60008573ffffffffffffffffffffffffffffffffffffffff1673ffffffffffffffffffffffffffffffffffffffff1681526020019081526020016000206000828254610f74919061406f565b925050819055508060086000828254610f8d919061406f565b92505081905550610f9e83826120aa565b7fdf20fd1e76bc69d672e4814fafb2c449bba3a5369d8359adf9e05e6fde87b0568382604051610fcf9291906141b6565b60405180910390a1505050565b610fed610fe7610772565b8261219e565b61102c576040517f08c379a000000000000000000000000000000000000000000000000000000000815260040161102390614251565b60405180910390fd5b61103783838361227c565b505050565b6000600754905090565b6000600d60008473ffffffffffffffffffffffffffffffffffffffff1673ffffffffffffffffffffffffffffffffffffffff16815260200190815260200160002060008373ffffffffffffffffffffffffffffffffffffffff1673ffffffffffffffffffffffffffffffffffffffff16815260200190815260200160002054905092915050565b6110e8838383604051806020016040528060008152506119bb565b505050565b3373ffffffffffffffffffffffffffffffffffffffff1661110d82611638565b73ffffffffffffffffffffffffffffffffffffffff1614611163576040517f08c379a000000000000000000000000000000000000000000000000000000000815260040161115a906142bd565b60405180910390fd5b600061401160008381526020019081526020016000206040518060c00160405290816000820160009054906101000a900460ff1660ff1660ff1681526020016000820160019054906101000a900460ff1660ff1660ff1681526020016000820160029054906101000a900460ff1660ff1660ff1681526020016000820160039054906101000a900460ff1660ff1660ff168152602001600182015481526020016002820160009054906101000a900473ffffffffffffffffffffffffffffffffffffffff1673ffffffffffffffffffffffffffffffffffffffff1673ffffffffffffffffffffffffffffffffffffffff168152505090506000601060019054906101000a900460ff16601060009054906101000a900460ff16836020015184606001516112909190613b9d565b846000015185604001516112a49190613b9d565b6112ae9190613bd1565b6112b89190613bd1565b6112c29190613bd1565b60ff16905084849050601060009054906101000a900460ff1660ff16826112e991906142ed565b63ffffffff161461132f576040517f08c379a000000000000000000000000000000000000000000000000000000000815260040161132690614377565b60405180910390fd5b827fade17c51d5840990bf9bfd0f37b213de83d8192c7ef345922962267e944abc3d868660405161136192919061445a565b60405180910390a25050505050565b6000600960008373ffffffffffffffffffffffffffffffffffffffff1673ffffffffffffffffffffffffffffffffffffffff16815260200190815260200160002054116113f2576040517f08c379a00000000000000000000000000000000000000000000000000000000081526004016113e99061404f565b60405180910390fd5b60006113fd83611b55565b8373ffffffffffffffffffffffffffffffffffffffff166370a08231306040518263ffffffff1660e01b81526004016114369190613483565b60206040518083038186803b15801561144e57600080fd5b505afa158015611462573d6000803e3d6000fd5b505050506040513d601f19601f820116820180604052508101906114869190614493565b611490919061406f565b905060006114a883836114a38787611046565b61203c565b905060008114156114ee576040517f08c379a00000000000000000000000000000000000000000000000000000000081526004016114e590614137565b60405180910390fd5b80600d60008673ffffffffffffffffffffffffffffffffffffffff1673ffffffffffffffffffffffffffffffffffffffff16815260200190815260200160002060008573ffffffffffffffffffffffffffffffffffffffff1673ffffffffffffffffffffffffffffffffffffffff168152602001908152602001600020600082825461157a919061406f565b9250508190555080600c60008673ffffffffffffffffffffffffffffffffffffffff1673ffffffffffffffffffffffffffffffffffffffff16815260200190815260200160002060008282546115d0919061406f565b925050819055506115e28484836124e3565b8373ffffffffffffffffffffffffffffffffffffffff167f3be5b7a71e84ed12875d241991c70855ac5817d847039e17a9d895c1ceb0f18a848360405161162a9291906131bc565b60405180910390a250505050565b6000806002600084815260200190815260200160002060009054906101000a900473ffffffffffffffffffffffffffffffffffffffff169050600073ffffffffffffffffffffffffffffffffffffffff168173ffffffffffffffffffffffffffffffffffffffff1614156116e1576040517f08c379a00000000000000000000000000000000000000000000000000000000081526004016116d890614532565b60405180910390fd5b80915050919050565b60008073ffffffffffffffffffffffffffffffffffffffff168273ffffffffffffffffffffffffffffffffffffffff16141561175b576040517f08c379a0000000000000000000000000000000000000000000000000000000008152600401611752906145c4565b60405180910390fd5b600360008373ffffffffffffffffffffffffffffffffffffffff1673ffffffffffffffffffffffffffffffffffffffff168152602001908152602001600020549050919050565b6117aa610772565b73ffffffffffffffffffffffffffffffffffffffff166117c8611872565b73ffffffffffffffffffffffffffffffffffffffff161461181e576040517f08c379a000000000000000000000000000000000000000000000000000000000815260040161181590614630565b60405180910390fd5b6118286000612569565b565b6000600b82815481106118405761183f614650565b5b9060005260206000200160009054906101000a900473ffffffffffffffffffffffffffffffffffffffff169050919050565b6000600660009054906101000a900473ffffffffffffffffffffffffffffffffffffffff16905090565b601182608081106118ac57600080fd5b6080020181608081106118be57600080fd5b01600091509150505481565b6060600180546118d990613df5565b80601f016020809104026020016040519081016040528092919081815260200182805461190590613df5565b80156119525780601f1061192757610100808354040283529160200191611952565b820191906000526020600020905b81548152906001019060200180831161193557829003601f168201915b5050505050905090565b6000600a60008373ffffffffffffffffffffffffffffffffffffffff1673ffffffffffffffffffffffffffffffffffffffff168152602001908152602001600020549050919050565b6119b76119b0610772565b838361262f565b5050565b6119cc6119c6610772565b8361219e565b611a0b576040517f08c379a0000000000000000000000000000000000000000000000000000000008152600401611a0290614251565b60405180910390fd5b611a178484848461279c565b50505050565b6060611a2882611f17565b611a67576040517f08c379a0000000000000000000000000000000000000000000000000000000008152600401611a5e906146f1565b60405180910390fd5b60006040518060400160405280601081526020017f6d79496d616765557269787878787878000000000000000000000000000000008152509050611aa96127f8565b611ae4611ab4610c02565b611abd86612835565b84604051602001611ad093929190614b03565b604051602081830303815290604052612996565b604051602001611af5929190614ba2565b604051602081830303815290604052915050919050565b6000600960008373ffffffffffffffffffffffffffffffffffffffff1673ffffffffffffffffffffffffffffffffffffffff168152602001908152602001600020549050919050565b6000600c60008373ffffffffffffffffffffffffffffffffffffffff1673ffffffffffffffffffffffffffffffffffffffff168152602001908152602001600020549050919050565b6000600854905090565b6000600560008473ffffffffffffffffffffffffffffffffffffffff1673ffffffffffffffffffffffffffffffffffffffff16815260200190815260200160002060008373ffffffffffffffffffffffffffffffffffffffff1673ffffffffffffffffffffffffffffffffffffffff16815260200190815260200160002060009054906101000a900460ff16905092915050565b611c44610772565b73ffffffffffffffffffffffffffffffffffffffff16611c62611872565b73ffffffffffffffffffffffffffffffffffffffff1614611cb8576040517f08c379a0000000000000000000000000000000000000000000000000000000008152600401611caf90614630565b60405180910390fd5b600073ffffffffffffffffffffffffffffffffffffffff168173ffffffffffffffffffffffffffffffffffffffff161415611d28576040517f08c379a0000000000000000000000000000000000000000000000000000000008152600401611d1f90614c38565b60405180910390fd5b611d3181612569565b50565b6001816000016000828254019250508190555050565b600081600001549050919050565b6000808590505b8360ff168160ff161015611df45760008590505b8360ff168160ff161015611de057600060118360ff1660808110611d9a57611d99614650565b5b608002018260ff1660808110611db357611db2614650565b5b015490506000811115611dcc5760009350505050611dfa565b508080611dd890614c58565b915050611d73565b508080611dec90614c58565b915050611d5f565b50600190505b949350505050565b60008590505b8360ff168160ff161015611e875760008590505b8360ff168160ff161015611e73578260118360ff1660808110611e4257611e41614650565b5b608002018260ff1660808110611e5b57611e5a614650565b5b01819055508080611e6b90614c58565b915050611e1c565b508080611e7f90614c58565b915050611e08565b505050505050565b611ea9828260405180602001604052806000815250612b0f565b5050565b60007f01ffc9a7000000000000000000000000000000000000000000000000000000007bffffffffffffffffffffffffffffffffffffffffffffffffffffffff1916827bffffffffffffffffffffffffffffffffffffffffffffffffffffffff1916149050919050565b60008073ffffffffffffffffffffffffffffffffffffffff166002600084815260200190815260200160002060009054906101000a900473ffffffffffffffffffffffffffffffffffffffff1673ffffffffffffffffffffffffffffffffffffffff1614159050919050565b816004600083815260200190815260200160002060006101000a81548173ffffffffffffffffffffffffffffffffffffffff021916908373ffffffffffffffffffffffffffffffffffffffff160217905550808273ffffffffffffffffffffffffffffffffffffffff16611ff683611638565b73ffffffffffffffffffffffffffffffffffffffff167f8c5be1e5ebec7d5bd14f71427d1e84f3dd0314c0f7b2291e5b200ac8c7c3b92560405160405180910390a45050565b600081600754600960008773ffffffffffffffffffffffffffffffffffffffff1673ffffffffffffffffffffffffffffffffffffffff168152602001908152602001600020548561208d9190613c0c565b6120979190614cb1565b6120a19190614ce2565b90509392505050565b804710156120ed576040517f08c379a00000000000000000000000000000000000000000000000000000000081526004016120e490614d62565b60405180910390fd5b60008273ffffffffffffffffffffffffffffffffffffffff168260405161211390614db3565b60006040518083038185875af1925050503d8060008114612150576040519150601f19603f3d011682016040523d82523d6000602084013e612155565b606091505b5050905080612199576040517f08c379a000000000000000000000000000000000000000000000000000000000815260040161219090614e3a565b60405180910390fd5b505050565b60006121a982611f17565b6121e8576040517f08c379a00000000000000000000000000000000000000000000000000000000081526004016121df90614ecc565b60405180910390fd5b60006121f383611638565b90508073ffffffffffffffffffffffffffffffffffffffff168473ffffffffffffffffffffffffffffffffffffffff16148061223557506122348185611ba8565b5b8061227357508373ffffffffffffffffffffffffffffffffffffffff1661225b84610c94565b73ffffffffffffffffffffffffffffffffffffffff16145b91505092915050565b8273ffffffffffffffffffffffffffffffffffffffff1661229c82611638565b73ffffffffffffffffffffffffffffffffffffffff16146122f2576040517f08c379a00000000000000000000000000000000000000000000000000000000081526004016122e990614f5e565b60405180910390fd5b600073ffffffffffffffffffffffffffffffffffffffff168273ffffffffffffffffffffffffffffffffffffffff161415612362576040517f08c379a000000000000000000000000000000000000000000000000000000000815260040161235990614ff0565b60405180910390fd5b61236d838383612b6a565b612378600082611f83565b6001600360008573ffffffffffffffffffffffffffffffffffffffff1673ffffffffffffffffffffffffffffffffffffffff16815260200190815260200160002060008282546123c89190614ce2565b925050819055506001600360008473ffffffffffffffffffffffffffffffffffffffff1673ffffffffffffffffffffffffffffffffffffffff168152602001908152602001600020600082825461241f919061406f565b92505081905550816002600083815260200190815260200160002060006101000a81548173ffffffffffffffffffffffffffffffffffffffff021916908373ffffffffffffffffffffffffffffffffffffffff160217905550808273ffffffffffffffffffffffffffffffffffffffff168473ffffffffffffffffffffffffffffffffffffffff167fddf252ad1be2c89b69c2b068fc378daa952ba7f163c4a11628f55a4df523b3ef60405160405180910390a46124de838383612b6f565b505050565b6125648363a9059cbb60e01b84846040516024016125029291906131bc565b604051602081830303815290604052907bffffffffffffffffffffffffffffffffffffffffffffffffffffffff19166020820180517bffffffffffffffffffffffffffffffffffffffffffffffffffffffff8381831617835250505050612b74565b505050565b6000600660009054906101000a900473ffffffffffffffffffffffffffffffffffffffff16905081600660006101000a81548173ffffffffffffffffffffffffffffffffffffffff021916908373ffffffffffffffffffffffffffffffffffffffff1602179055508173ffffffffffffffffffffffffffffffffffffffff168173ffffffffffffffffffffffffffffffffffffffff167f8be0079c531659141344cd1fd0a4f28419497f9722a3daafe3b4186f6b6457e060405160405180910390a35050565b8173ffffffffffffffffffffffffffffffffffffffff168373ffffffffffffffffffffffffffffffffffffffff16141561269e576040517f08c379a00000000000000000000000000000000000000000000000000000000081526004016126959061505c565b60405180910390fd5b80600560008573ffffffffffffffffffffffffffffffffffffffff1673ffffffffffffffffffffffffffffffffffffffff16815260200190815260200160002060008473ffffffffffffffffffffffffffffffffffffffff1673ffffffffffffffffffffffffffffffffffffffff16815260200190815260200160002060006101000a81548160ff0219169083151502179055508173ffffffffffffffffffffffffffffffffffffffff168373ffffffffffffffffffffffffffffffffffffffff167f17307eab39ab6107e8899845ad3d59bd9653f200f220920489ca2b5937696c318360405161278f9190613354565b60405180910390a3505050565b6127a784848461227c565b6127b384848484612c3b565b6127f2576040517f08c379a00000000000000000000000000000000000000000000000000000000081526004016127e9906150ee565b60405180910390fd5b50505050565b60606040518060400160405280601d81526020017f646174613a6170706c69636174696f6e2f6a736f6e3b6261736536342c000000815250905090565b6060600082141561287d576040518060400160405280600181526020017f30000000000000000000000000000000000000000000000000000000000000008152509050612991565b600082905060005b600082146128af5780806128989061510e565b915050600a826128a89190614cb1565b9150612885565b60008167ffffffffffffffff8111156128cb576128ca6137e9565b5b6040519080825280601f01601f1916602001820160405280156128fd5781602001600182028036833780820191505090505b5090505b6000851461298a576001826129169190614ce2565b9150600a856129259190615157565b6030612931919061406f565b60f81b81838151811061294757612946614650565b5b60200101907effffffffffffffffffffffffffffffffffffffffffffffffffffffffffffff1916908160001a905350600a856129839190614cb1565b9450612901565b8093505050505b919050565b60606000825114156129b957604051806020016040528060008152509050612b0a565b600060405180606001604052806040815260200161555e60409139905060006003600285516129e8919061406f565b6129f29190614cb1565b60046129fe9190613c0c565b90506000602082612a0f919061406f565b67ffffffffffffffff811115612a2857612a276137e9565b5b6040519080825280601f01601f191660200182016040528015612a5a5781602001600182028036833780820191505090505b509050818152600183018586518101602084015b81831015612ac9576003830192508251603f8160121c168501518253600182019150603f81600c1c168501518253600182019150603f8160061c168501518253600182019150603f8116850151825360018201915050612a6e565b600389510660018114612ae35760028114612af357612afe565b613d3d60f01b6002830352612afe565b603d60f81b60018303525b50505050508093505050505b919050565b612b198383612dd2565b612b266000848484612c3b565b612b65576040517f08c379a0000000000000000000000000000000000000000000000000000000008152600401612b5c906150ee565b60405180910390fd5b505050565b505050565b505050565b6000612bd6826040518060400160405280602081526020017f5361666545524332303a206c6f772d6c6576656c2063616c6c206661696c65648152508573ffffffffffffffffffffffffffffffffffffffff16612fac9092919063ffffffff16565b9050600081511115612c365780806020019051810190612bf6919061519d565b612c35576040517f08c379a0000000000000000000000000000000000000000000000000000000008152600401612c2c9061523c565b60405180910390fd5b5b505050565b6000612c5c8473ffffffffffffffffffffffffffffffffffffffff16612fc4565b15612dc5578373ffffffffffffffffffffffffffffffffffffffff1663150b7a02612c85610772565b8786866040518563ffffffff1660e01b8152600401612ca794939291906152b1565b602060405180830381600087803b158015612cc157600080fd5b505af1925050508015612cf257506040513d601f19601f82011682018060405250810190612cef9190615312565b60015b612d75573d8060008114612d22576040519150601f19603f3d011682016040523d82523d6000602084013e612d27565b606091505b50600081511415612d6d576040517f08c379a0000000000000000000000000000000000000000000000000000000008152600401612d64906150ee565b60405180910390fd5b805181602001fd5b63150b7a0260e01b7bffffffffffffffffffffffffffffffffffffffffffffffffffffffff1916817bffffffffffffffffffffffffffffffffffffffffffffffffffffffff191614915050612dca565b600190505b949350505050565b600073ffffffffffffffffffffffffffffffffffffffff168273ffffffffffffffffffffffffffffffffffffffff161415612e42576040517f08c379a0000000000000000000000000000000000000000000000000000000008152600401612e399061538b565b60405180910390fd5b612e4b81611f17565b15612e8b576040517f08c379a0000000000000000000000000000000000000000000000000000000008152600401612e82906153f7565b60405180910390fd5b612e9760008383612b6a565b6001600360008473ffffffffffffffffffffffffffffffffffffffff1673ffffffffffffffffffffffffffffffffffffffff1681526020019081526020016000206000828254612ee7919061406f565b92505081905550816002600083815260200190815260200160002060006101000a81548173ffffffffffffffffffffffffffffffffffffffff021916908373ffffffffffffffffffffffffffffffffffffffff160217905550808273ffffffffffffffffffffffffffffffffffffffff16600073ffffffffffffffffffffffffffffffffffffffff167fddf252ad1be2c89b69c2b068fc378daa952ba7f163c4a11628f55a4df523b3ef60405160405180910390a4612fa860008383612b6f565b5050565b6060612fbb8484600085612fe7565b90509392505050565b6000808273ffffffffffffffffffffffffffffffffffffffff163b119050919050565b60608247101561302c576040517f08c379a000000000000000000000000000000000000000000000000000000000815260040161302390615489565b60405180910390fd5b61303585612fc4565b613074576040517f08c379a000000000000000000000000000000000000000000000000000000000815260040161306b906154f5565b60405180910390fd5b6000808673ffffffffffffffffffffffffffffffffffffffff16858760405161309d9190615546565b60006040518083038185875af1925050503d80600081146130da576040519150601f19603f3d011682016040523d82523d6000602084013e6130df565b606091505b50915091506130ef8282866130fb565b92505050949350505050565b6060831561310b5782905061315b565b60008351111561311e5782518084602001fd5b816040517f08c379a00000000000000000000000000000000000000000000000000000000081526004016131529190613408565b60405180910390fd5b9392505050565b600073ffffffffffffffffffffffffffffffffffffffff82169050919050565b600061318d82613162565b9050919050565b61319d81613182565b82525050565b6000819050919050565b6131b6816131a3565b82525050565b60006040820190506131d16000830185613194565b6131de60208301846131ad565b9392505050565b6000604051905090565b600080fd5b600080fd5b600060ff82169050919050565b61320f816131f9565b811461321a57600080fd5b50565b60008135905061322c81613206565b92915050565b6000806000806080858703121561324c5761324b6131ef565b5b600061325a8782880161321d565b945050602061326b8782880161321d565b935050604061327c8782880161321d565b925050606061328d8782880161321d565b91505092959194509250565b60006020820190506132ae60008301846131ad565b92915050565b60007fffffffff0000000000000000000000000000000000000000000000000000000082169050919050565b6132e9816132b4565b81146132f457600080fd5b50565b600081359050613306816132e0565b92915050565b600060208284031215613322576133216131ef565b5b6000613330848285016132f7565b91505092915050565b60008115159050919050565b61334e81613339565b82525050565b60006020820190506133696000830184613345565b92915050565b600081519050919050565b600082825260208201905092915050565b60005b838110156133a957808201518184015260208101905061338e565b838111156133b8576000848401525b50505050565b6000601f19601f8301169050919050565b60006133da8261336f565b6133e4818561337a565b93506133f481856020860161338b565b6133fd816133be565b840191505092915050565b6000602082019050818103600083015261342281846133cf565b905092915050565b613433816131a3565b811461343e57600080fd5b50565b6000813590506134508161342a565b92915050565b60006020828403121561346c5761346b6131ef565b5b600061347a84828501613441565b91505092915050565b60006020820190506134986000830184613194565b92915050565b6134a781613182565b81146134b257600080fd5b50565b6000813590506134c48161349e565b92915050565b600080604083850312156134e1576134e06131ef565b5b60006134ef858286016134b5565b925050602061350085828601613441565b9150509250929050565b600061351582613162565b9050919050565b6135258161350a565b811461353057600080fd5b50565b6000813590506135428161351c565b92915050565b60006020828403121561355e5761355d6131ef565b5b600061356c84828501613533565b91505092915050565b60008060006060848603121561358e5761358d6131ef565b5b600061359c868287016134b5565b93505060206135ad868287016134b5565b92505060406135be86828701613441565b9150509250925092565b60006135d382613182565b9050919050565b6135e3816135c8565b81146135ee57600080fd5b50565b600081359050613600816135da565b92915050565b6000806040838503121561361d5761361c6131ef565b5b600061362b858286016135f1565b925050602061363c858286016134b5565b9150509250929050565b600080fd5b600080fd5b600080fd5b60008083601f84011261366b5761366a613646565b5b8235905067ffffffffffffffff8111156136885761368761364b565b5b6020830191508360208202830111156136a4576136a3613650565b5b9250929050565b6000806000604084860312156136c4576136c36131ef565b5b600084013567ffffffffffffffff8111156136e2576136e16131f4565b5b6136ee86828701613655565b9350935050602061370186828701613441565b9150509250925092565b600060208284031215613721576137206131ef565b5b600061372f848285016134b5565b91505092915050565b6000806040838503121561374f5761374e6131ef565b5b600061375d85828601613441565b925050602061376e85828601613441565b9150509250929050565b61378181613339565b811461378c57600080fd5b50565b60008135905061379e81613778565b92915050565b600080604083850312156137bb576137ba6131ef565b5b60006137c9858286016134b5565b92505060206137da8582860161378f565b9150509250929050565b600080fd5b7f4e487b7100000000000000000000000000000000000000000000000000000000600052604160045260246000fd5b613821826133be565b810181811067ffffffffffffffff821117156138405761383f6137e9565b5b80604052505050565b60006138536131e5565b905061385f8282613818565b919050565b600067ffffffffffffffff82111561387f5761387e6137e9565b5b613888826133be565b9050602081019050919050565b82818337600083830152505050565b60006138b76138b284613864565b613849565b9050828152602081018484840111156138d3576138d26137e4565b5b6138de848285613895565b509392505050565b600082601f8301126138fb576138fa613646565b5b813561390b8482602086016138a4565b91505092915050565b6000806000806080858703121561392e5761392d6131ef565b5b600061393c878288016134b5565b945050602061394d878288016134b5565b935050604061395e87828801613441565b925050606085013567ffffffffffffffff81111561397f5761397e6131f4565b5b61398b878288016138e6565b91505092959194509250565b6000602082840312156139ad576139ac6131ef565b5b60006139bb848285016135f1565b91505092915050565b600080604083850312156139db576139da6131ef565b5b60006139e9858286016134b5565b92505060206139fa858286016134b5565b9150509250929050565b7f666972737420636f6f72642030206f7220626967676572000000000000000000600082015250565b6000613a3a60178361337a565b9150613a4582613a04565b602082019050919050565b60006020820190508181036000830152613a6981613a2d565b9050919050565b7f7365636f6e6420636f6f726420313238206f7220736d616c6c65720000000000600082015250565b6000613aa6601b8361337a565b9150613ab182613a70565b602082019050919050565b60006020820190508181036000830152613ad581613a99565b9050919050565b7f326e6420636f6f726420736d616c6c6572207468616e20666972737420636f6f60008201527f7264000000000000000000000000000000000000000000000000000000000000602082015250565b6000613b3860228361337a565b9150613b4382613adc565b604082019050919050565b60006020820190508181036000830152613b6781613b2b565b9050919050565b7f4e487b7100000000000000000000000000000000000000000000000000000000600052601160045260246000fd5b6000613ba8826131f9565b9150613bb3836131f9565b925082821015613bc657613bc5613b6e565b5b828203905092915050565b6000613bdc826131f9565b9150613be7836131f9565b92508160ff0483118215151615613c0157613c00613b6e565b5b828202905092915050565b6000613c17826131a3565b9150613c22836131a3565b9250817fffffffffffffffffffffffffffffffffffffffffffffffffffffffffffffffff0483118215151615613c5b57613c5a613b6e565b5b828202905092915050565b7f77726f6e6720616d6f756e740000000000000000000000000000000000000000600082015250565b6000613c9c600c8361337a565b9150613ca782613c66565b602082019050919050565b60006020820190508181036000830152613ccb81613c8f565b9050919050565b7f612073656c65637465642070617263656c20697320616c7265616479206f776e60008201527f6564000000000000000000000000000000000000000000000000000000000000602082015250565b6000613d2e60228361337a565b9150613d3982613cd2565b604082019050919050565b60006020820190508181036000830152613d5d81613d21565b9050919050565b613d6d816131f9565b82525050565b600060a082019050613d886000830188613194565b613d956020830187613d64565b613da26040830186613d64565b613daf6060830185613d64565b613dbc6080830184613d64565b9695505050505050565b7f4e487b7100000000000000000000000000000000000000000000000000000000600052602260045260246000fd5b60006002820490506001821680613e0d57607f821691505b60208210811415613e2157613e20613dc6565b5b50919050565b7f4552433732313a20617070726f76656420717565727920666f72206e6f6e657860008201527f697374656e7420746f6b656e0000000000000000000000000000000000000000602082015250565b6000613e83602c8361337a565b9150613e8e82613e27565b604082019050919050565b60006020820190508181036000830152613eb281613e76565b9050919050565b7f4552433732313a20617070726f76616c20746f2063757272656e74206f776e6560008201527f7200000000000000000000000000000000000000000000000000000000000000602082015250565b6000613f1560218361337a565b9150613f2082613eb9565b604082019050919050565b60006020820190508181036000830152613f4481613f08565b9050919050565b7f4552433732313a20617070726f76652063616c6c6572206973206e6f74206f7760008201527f6e6572206e6f7220617070726f76656420666f7220616c6c0000000000000000602082015250565b6000613fa760388361337a565b9150613fb282613f4b565b604082019050919050565b60006020820190508181036000830152613fd681613f9a565b9050919050565b7f5061796d656e7453706c69747465723a206163636f756e7420686173206e6f2060008201527f7368617265730000000000000000000000000000000000000000000000000000602082015250565b600061403960268361337a565b915061404482613fdd565b604082019050919050565b600060208201905081810360008301526140688161402c565b9050919050565b600061407a826131a3565b9150614085836131a3565b9250827fffffffffffffffffffffffffffffffffffffffffffffffffffffffffffffffff038211156140ba576140b9613b6e565b5b828201905092915050565b7f5061796d656e7453706c69747465723a206163636f756e74206973206e6f742060008201527f647565207061796d656e74000000000000000000000000000000000000000000602082015250565b6000614121602b8361337a565b915061412c826140c5565b604082019050919050565b6000602082019050818103600083015261415081614114565b9050919050565b6000819050919050565b600061417c61417761417284613162565b614157565b613162565b9050919050565b600061418e82614161565b9050919050565b60006141a082614183565b9050919050565b6141b081614195565b82525050565b60006040820190506141cb60008301856141a7565b6141d860208301846131ad565b9392505050565b7f4552433732313a207472616e736665722063616c6c6572206973206e6f74206f60008201527f776e6572206e6f7220617070726f766564000000000000000000000000000000602082015250565b600061423b60318361337a565b9150614246826141df565b604082019050919050565b6000602082019050818103600083015261426a8161422e565b9050919050565b7f7520646f6e74206f776e20746869730000000000000000000000000000000000600082015250565b60006142a7600f8361337a565b91506142b282614271565b602082019050919050565b600060208201905081810360008301526142d68161429a565b9050919050565b600063ffffffff82169050919050565b60006142f8826142dd565b9150614303836142dd565b92508163ffffffff04831182151516156143205761431f613b6e565b5b828202905092915050565b7f77726f6e6720616d6f756e74206f662070780000000000000000000000000000600082015250565b600061436160128361337a565b915061436c8261432b565b602082019050919050565b6000602082019050818103600083015261439081614354565b9050919050565b600082825260208201905092915050565b6000819050919050565b6143bb816131f9565b82525050565b60006143cd83836143b2565b60208301905092915050565b60006143e8602084018461321d565b905092915050565b6000602082019050919050565b60006144098385614397565b9350614414826143a8565b8060005b8581101561444d5761442a82846143d9565b61443488826143c1565b975061443f836143f0565b925050600181019050614418565b5085925050509392505050565b600060208201905081810360008301526144758184866143fd565b90509392505050565b60008151905061448d8161342a565b92915050565b6000602082840312156144a9576144a86131ef565b5b60006144b78482850161447e565b91505092915050565b7f4552433732313a206f776e657220717565727920666f72206e6f6e657869737460008201527f656e7420746f6b656e0000000000000000000000000000000000000000000000602082015250565b600061451c60298361337a565b9150614527826144c0565b604082019050919050565b6000602082019050818103600083015261454b8161450f565b9050919050565b7f4552433732313a2062616c616e636520717565727920666f7220746865207a6560008201527f726f206164647265737300000000000000000000000000000000000000000000602082015250565b60006145ae602a8361337a565b91506145b982614552565b604082019050919050565b600060208201905081810360008301526145dd816145a1565b9050919050565b7f4f776e61626c653a2063616c6c6572206973206e6f7420746865206f776e6572600082015250565b600061461a60208361337a565b9150614625826145e4565b602082019050919050565b600060208201905081810360008301526146498161460d565b9050919050565b7f4e487b7100000000000000000000000000000000000000000000000000000000600052603260045260246000fd5b7f4552433732314d657461646174613a2055524920717565727920666f72206e6f60008201527f6e6578697374656e7420746f6b656e0000000000000000000000000000000000602082015250565b60006146db602f8361337a565b91506146e68261467f565b604082019050919050565b6000602082019050818103600083015261470a816146ce565b9050919050565b600081905092915050565b7f7b226e616d65223a220000000000000000000000000000000000000000000000600082015250565b6000614752600983614711565b915061475d8261471c565b600982019050919050565b60006147738261336f565b61477d8185614711565b935061478d81856020860161338b565b80840191505092915050565b7f202d20506c6f7420000000000000000000000000000000000000000000000000600082015250565b60006147cf600883614711565b91506147da82614799565b600882019050919050565b7f222c20226465736372697074696f6e223a224120506c6f74206f66204e6f6c6160008201527f6e6469616e204d6574616c616e64222c20000000000000000000000000000000602082015250565b6000614841603183614711565b915061484c826147e5565b603182019050919050565b7f2261747472696275746573223a205b0000000000000000000000000000000000600082015250565b600061488d600f83614711565b915061489882614857565b600f82019050919050565b7f7b2274726169745f74797065223a2022636f6f726431222c202276616c75652260008201527f3a205b31302c2031305d7d2c0000000000000000000000000000000000000000602082015250565b60006148ff602c83614711565b915061490a826148a3565b602c82019050919050565b7f7b2274726169745f74797065223a2022636f6f726432222c202276616c75652260008201527f3a205b31312c2031315d7d2c0000000000000000000000000000000000000000602082015250565b6000614971602c83614711565b915061497c82614915565b602c82019050919050565b7f7b2274726169745f74797065223a2022746f74616c506978656c73222c20227660008201527f616c7565223a2036347d2c000000000000000000000000000000000000000000602082015250565b60006149e3602b83614711565b91506149ee82614987565b602b82019050919050565b7f7b2274726169745f74797065223a20227465727261696e222c202276616c756560008201527f223a20226d6f756e7461696e227d000000000000000000000000000000000000602082015250565b6000614a55602e83614711565b9150614a60826149f9565b602e82019050919050565b7f5d2c2022696d616765223a220000000000000000000000000000000000000000600082015250565b6000614aa1600c83614711565b9150614aac82614a6b565b600c82019050919050565b7f227d000000000000000000000000000000000000000000000000000000000000600082015250565b6000614aed600283614711565b9150614af882614ab7565b600282019050919050565b6000614b0e82614745565b9150614b1a8286614768565b9150614b25826147c2565b9150614b318285614768565b9150614b3c82614834565b9150614b4782614880565b9150614b52826148f2565b9150614b5d82614964565b9150614b68826149d6565b9150614b7382614a48565b9150614b7e82614a94565b9150614b8a8284614768565b9150614b9582614ae0565b9150819050949350505050565b6000614bae8285614768565b9150614bba8284614768565b91508190509392505050565b7f4f776e61626c653a206e6577206f776e657220697320746865207a65726f206160008201527f6464726573730000000000000000000000000000000000000000000000000000602082015250565b6000614c2260268361337a565b9150614c2d82614bc6565b604082019050919050565b60006020820190508181036000830152614c5181614c15565b9050919050565b6000614c63826131f9565b915060ff821415614c7757614c76613b6e565b5b600182019050919050565b7f4e487b7100000000000000000000000000000000000000000000000000000000600052601260045260246000fd5b6000614cbc826131a3565b9150614cc7836131a3565b925082614cd757614cd6614c82565b5b828204905092915050565b6000614ced826131a3565b9150614cf8836131a3565b925082821015614d0b57614d0a613b6e565b5b828203905092915050565b7f416464726573733a20696e73756666696369656e742062616c616e6365000000600082015250565b6000614d4c601d8361337a565b9150614d5782614d16565b602082019050919050565b60006020820190508181036000830152614d7b81614d3f565b9050919050565b600081905092915050565b50565b6000614d9d600083614d82565b9150614da882614d8d565b600082019050919050565b6000614dbe82614d90565b9150819050919050565b7f416464726573733a20756e61626c6520746f2073656e642076616c75652c207260008201527f6563697069656e74206d61792068617665207265766572746564000000000000602082015250565b6000614e24603a8361337a565b9150614e2f82614dc8565b604082019050919050565b60006020820190508181036000830152614e5381614e17565b9050919050565b7f4552433732313a206f70657261746f7220717565727920666f72206e6f6e657860008201527f697374656e7420746f6b656e0000000000000000000000000000000000000000602082015250565b6000614eb6602c8361337a565b9150614ec182614e5a565b604082019050919050565b60006020820190508181036000830152614ee581614ea9565b9050919050565b7f4552433732313a207472616e736665722066726f6d20696e636f72726563742060008201527f6f776e6572000000000000000000000000000000000000000000000000000000602082015250565b6000614f4860258361337a565b9150614f5382614eec565b604082019050919050565b60006020820190508181036000830152614f7781614f3b565b9050919050565b7f4552433732313a207472616e7366657220746f20746865207a65726f2061646460008201527f7265737300000000000000000000000000000000000000000000000000000000602082015250565b6000614fda60248361337a565b9150614fe582614f7e565b604082019050919050565b6000602082019050818103600083015261500981614fcd565b9050919050565b7f4552433732313a20617070726f766520746f2063616c6c657200000000000000600082015250565b600061504660198361337a565b915061505182615010565b602082019050919050565b6000602082019050818103600083015261507581615039565b9050919050565b7f4552433732313a207472616e7366657220746f206e6f6e20455243373231526560008201527f63656976657220696d706c656d656e7465720000000000000000000000000000602082015250565b60006150d860328361337a565b91506150e38261507c565b604082019050919050565b60006020820190508181036000830152615107816150cb565b9050919050565b6000615119826131a3565b91507fffffffffffffffffffffffffffffffffffffffffffffffffffffffffffffffff82141561514c5761514b613b6e565b5b600182019050919050565b6000615162826131a3565b915061516d836131a3565b92508261517d5761517c614c82565b5b828206905092915050565b60008151905061519781613778565b92915050565b6000602082840312156151b3576151b26131ef565b5b60006151c184828501615188565b91505092915050565b7f5361666545524332303a204552433230206f7065726174696f6e20646964206e60008201527f6f74207375636365656400000000000000000000000000000000000000000000602082015250565b6000615226602a8361337a565b9150615231826151ca565b604082019050919050565b6000602082019050818103600083015261525581615219565b9050919050565b600081519050919050565b600082825260208201905092915050565b60006152838261525c565b61528d8185615267565b935061529d81856020860161338b565b6152a6816133be565b840191505092915050565b60006080820190506152c66000830187613194565b6152d36020830186613194565b6152e060408301856131ad565b81810360608301526152f28184615278565b905095945050505050565b60008151905061530c816132e0565b92915050565b600060208284031215615328576153276131ef565b5b6000615336848285016152fd565b91505092915050565b7f4552433732313a206d696e7420746f20746865207a65726f2061646472657373600082015250565b600061537560208361337a565b91506153808261533f565b602082019050919050565b600060208201905081810360008301526153a481615368565b9050919050565b7f4552433732313a20746f6b656e20616c7265616479206d696e74656400000000600082015250565b60006153e1601c8361337a565b91506153ec826153ab565b602082019050919050565b60006020820190508181036000830152615410816153d4565b9050919050565b7f416464726573733a20696e73756666696369656e742062616c616e636520666f60008201527f722063616c6c0000000000000000000000000000000000000000000000000000602082015250565b600061547360268361337a565b915061547e82615417565b604082019050919050565b600060208201905081810360008301526154a281615466565b9050919050565b7f416464726573733a2063616c6c20746f206e6f6e2d636f6e7472616374000000600082015250565b60006154df601d8361337a565b91506154ea826154a9565b602082019050919050565b6000602082019050818103600083015261550e816154d2565b9050919050565b60006155208261525c565b61552a8185614d82565b935061553a81856020860161338b565b80840191505092915050565b60006155528284615515565b91508190509291505056fe4142434445464748494a4b4c4d4e4f505152535455565758595a6162636465666768696a6b6c6d6e6f707172737475767778797a303132333435363738392b2fa2646970667358221220f910f617458dff77bece930804899c59f23abf99744df5f6a2f0494bfecf727364736f6c63430008090033",
  "linkReferences": {},
  "deployedLinkReferences": {}
}