{
  "_format": "hh-sol-artifact-1",
  "contractName": "Nolandia",
  "sourceName": "contracts/MetaNol2.sol",
  "abi": [
    {
      "inputs": [
        {
          "internalType": "address[]",
          "name": "_payees",
          "type": "address[]"
        },
        {
          "internalType": "uint256[]",
          "name": "_shares",
          "type": "uint256[]"
        }
      ],
      "stateMutability": "payable",
      "type": "constructor"
    },
    {
      "anonymous": false,
      "inputs": [
        {
          "indexed": true,
          "internalType": "address",
          "name": "owner",
          "type": "address"
        },
        {
          "indexed": true,
          "internalType": "address",
          "name": "approved",
          "type": "address"
        },
        {
          "indexed": true,
          "internalType": "uint256",
          "name": "tokenId",
          "type": "uint256"
        }
      ],
      "name": "Approval",
      "type": "event"
    },
    {
      "anonymous": false,
      "inputs": [
        {
          "indexed": true,
          "internalType": "address",
          "name": "owner",
          "type": "address"
        },
        {
          "indexed": true,
          "internalType": "address",
          "name": "operator",
          "type": "address"
        },
        {
          "indexed": false,
          "internalType": "bool",
          "name": "approved",
          "type": "bool"
        }
      ],
      "name": "ApprovalForAll",
      "type": "event"
    },
    {
      "anonymous": false,
      "inputs": [
        {
          "indexed": true,
          "internalType": "contract IERC20",
          "name": "token",
          "type": "address"
        },
        {
          "indexed": false,
          "internalType": "address",
          "name": "to",
          "type": "address"
        },
        {
          "indexed": false,
          "internalType": "uint256",
          "name": "amount",
          "type": "uint256"
        }
      ],
      "name": "ERC20PaymentReleased",
      "type": "event"
    },
    {
      "anonymous": false,
      "inputs": [
        {
          "indexed": true,
          "internalType": "address",
          "name": "previousOwner",
          "type": "address"
        },
        {
          "indexed": true,
          "internalType": "address",
          "name": "newOwner",
          "type": "address"
        }
      ],
      "name": "OwnershipTransferred",
      "type": "event"
    },
    {
      "anonymous": false,
      "inputs": [
        {
          "indexed": false,
          "internalType": "address",
          "name": "account",
          "type": "address"
        },
        {
          "indexed": false,
          "internalType": "uint256",
          "name": "shares",
          "type": "uint256"
        }
      ],
      "name": "PayeeAdded",
      "type": "event"
    },
    {
      "anonymous": false,
      "inputs": [
        {
          "indexed": false,
          "internalType": "address",
          "name": "from",
          "type": "address"
        },
        {
          "indexed": false,
          "internalType": "uint256",
          "name": "amount",
          "type": "uint256"
        }
      ],
      "name": "PaymentReceived",
      "type": "event"
    },
    {
      "anonymous": false,
      "inputs": [
        {
          "indexed": false,
          "internalType": "address",
          "name": "to",
          "type": "address"
        },
        {
          "indexed": false,
          "internalType": "uint256",
          "name": "amount",
          "type": "uint256"
        }
      ],
      "name": "PaymentReleased",
      "type": "event"
    },
    {
      "anonymous": false,
      "inputs": [
        {
          "indexed": true,
          "internalType": "uint256",
          "name": "plotId",
          "type": "uint256"
        },
        {
          "indexed": false,
          "internalType": "uint8[]",
          "name": "imageData",
          "type": "uint8[]"
        }
      ],
      "name": "PlotPixelsSet",
      "type": "event"
    },
    {
      "anonymous": false,
      "inputs": [
        {
          "indexed": true,
          "internalType": "uint256",
          "name": "plotId",
          "type": "uint256"
        },
        {
          "indexed": false,
          "internalType": "address",
          "name": "plotOwner",
          "type": "address"
        },
        {
          "indexed": false,
          "internalType": "uint8",
          "name": "x1",
          "type": "uint8"
        },
        {
          "indexed": false,
          "internalType": "uint8",
          "name": "y1",
          "type": "uint8"
        },
        {
          "indexed": false,
          "internalType": "uint8",
          "name": "x2",
          "type": "uint8"
        },
        {
          "indexed": false,
          "internalType": "uint8",
          "name": "y2",
          "type": "uint8"
        }
      ],
      "name": "PlotPurchased",
      "type": "event"
    },
    {
      "anonymous": false,
      "inputs": [
        {
          "indexed": true,
          "internalType": "address",
          "name": "from",
          "type": "address"
        },
        {
          "indexed": true,
          "internalType": "address",
          "name": "to",
          "type": "address"
        },
        {
          "indexed": true,
          "internalType": "uint256",
          "name": "tokenId",
          "type": "uint256"
        }
      ],
      "name": "Transfer",
      "type": "event"
    },
    {
      "inputs": [
        {
          "internalType": "address",
          "name": "to",
          "type": "address"
        },
        {
          "internalType": "uint256",
          "name": "tokenId",
          "type": "uint256"
        }
      ],
      "name": "approve",
      "outputs": [],
      "stateMutability": "nonpayable",
      "type": "function"
    },
    {
      "inputs": [
        {
          "internalType": "address",
          "name": "owner",
          "type": "address"
        }
      ],
      "name": "balanceOf",
      "outputs": [
        {
          "internalType": "uint256",
          "name": "",
          "type": "uint256"
        }
      ],
      "stateMutability": "view",
      "type": "function"
    },
    {
      "inputs": [
        {
          "internalType": "uint8",
          "name": "x1",
          "type": "uint8"
        },
        {
          "internalType": "uint8",
          "name": "y1",
          "type": "uint8"
        },
        {
          "internalType": "uint8",
          "name": "x2",
          "type": "uint8"
        },
        {
          "internalType": "uint8",
          "name": "y2",
          "type": "uint8"
        }
      ],
      "name": "buyPlot",
      "outputs": [
        {
          "internalType": "uint256",
          "name": "",
          "type": "uint256"
        }
      ],
      "stateMutability": "payable",
      "type": "function"
    },
    {
      "inputs": [
        {
          "internalType": "uint256",
          "name": "tokenId",
          "type": "uint256"
        }
      ],
      "name": "getApproved",
      "outputs": [
        {
          "internalType": "address",
          "name": "",
          "type": "address"
        }
      ],
      "stateMutability": "view",
      "type": "function"
    },
    {
      "inputs": [
        {
          "internalType": "address",
          "name": "owner",
          "type": "address"
        },
        {
          "internalType": "address",
          "name": "operator",
          "type": "address"
        }
      ],
      "name": "isApprovedForAll",
      "outputs": [
        {
          "internalType": "bool",
          "name": "",
          "type": "bool"
        }
      ],
      "stateMutability": "view",
      "type": "function"
    },
    {
      "inputs": [],
      "name": "name",
      "outputs": [
        {
          "internalType": "string",
          "name": "",
          "type": "string"
        }
      ],
      "stateMutability": "view",
      "type": "function"
    },
    {
      "inputs": [],
      "name": "owner",
      "outputs": [
        {
          "internalType": "address",
          "name": "",
          "type": "address"
        }
      ],
      "stateMutability": "view",
      "type": "function"
    },
    {
      "inputs": [
        {
          "internalType": "uint256",
          "name": "tokenId",
          "type": "uint256"
        }
      ],
      "name": "ownerOf",
      "outputs": [
        {
          "internalType": "address",
          "name": "",
          "type": "address"
        }
      ],
      "stateMutability": "view",
      "type": "function"
    },
    {
      "inputs": [
        {
          "internalType": "uint256",
          "name": "",
          "type": "uint256"
        },
        {
          "internalType": "uint256",
          "name": "",
          "type": "uint256"
        }
      ],
      "name": "parcels",
      "outputs": [
        {
          "internalType": "uint256",
          "name": "",
          "type": "uint256"
        }
      ],
      "stateMutability": "view",
      "type": "function"
    },
    {
      "inputs": [
        {
          "internalType": "uint256",
          "name": "index",
          "type": "uint256"
        }
      ],
      "name": "payee",
      "outputs": [
        {
          "internalType": "address",
          "name": "",
          "type": "address"
        }
      ],
      "stateMutability": "view",
      "type": "function"
    },
    {
      "inputs": [
        {
          "internalType": "address payable",
          "name": "account",
          "type": "address"
        }
      ],
      "name": "release",
      "outputs": [],
      "stateMutability": "nonpayable",
      "type": "function"
    },
    {
      "inputs": [
        {
          "internalType": "contract IERC20",
          "name": "token",
          "type": "address"
        },
        {
          "internalType": "address",
          "name": "account",
          "type": "address"
        }
      ],
      "name": "release",
      "outputs": [],
      "stateMutability": "nonpayable",
      "type": "function"
    },
    {
      "inputs": [
        {
          "internalType": "contract IERC20",
          "name": "token",
          "type": "address"
        },
        {
          "internalType": "address",
          "name": "account",
          "type": "address"
        }
      ],
      "name": "released",
      "outputs": [
        {
          "internalType": "uint256",
          "name": "",
          "type": "uint256"
        }
      ],
      "stateMutability": "view",
      "type": "function"
    },
    {
      "inputs": [
        {
          "internalType": "address",
          "name": "account",
          "type": "address"
        }
      ],
      "name": "released",
      "outputs": [
        {
          "internalType": "uint256",
          "name": "",
          "type": "uint256"
        }
      ],
      "stateMutability": "view",
      "type": "function"
    },
    {
      "inputs": [],
      "name": "renounceOwnership",
      "outputs": [],
      "stateMutability": "nonpayable",
      "type": "function"
    },
    {
      "inputs": [
        {
          "internalType": "address",
          "name": "from",
          "type": "address"
        },
        {
          "internalType": "address",
          "name": "to",
          "type": "address"
        },
        {
          "internalType": "uint256",
          "name": "tokenId",
          "type": "uint256"
        }
      ],
      "name": "safeTransferFrom",
      "outputs": [],
      "stateMutability": "nonpayable",
      "type": "function"
    },
    {
      "inputs": [
        {
          "internalType": "address",
          "name": "from",
          "type": "address"
        },
        {
          "internalType": "address",
          "name": "to",
          "type": "address"
        },
        {
          "internalType": "uint256",
          "name": "tokenId",
          "type": "uint256"
        },
        {
          "internalType": "bytes",
          "name": "_data",
          "type": "bytes"
        }
      ],
      "name": "safeTransferFrom",
      "outputs": [],
      "stateMutability": "nonpayable",
      "type": "function"
    },
    {
      "inputs": [
        {
          "internalType": "address",
          "name": "operator",
          "type": "address"
        },
        {
          "internalType": "bool",
          "name": "approved",
          "type": "bool"
        }
      ],
      "name": "setApprovalForAll",
      "outputs": [],
      "stateMutability": "nonpayable",
      "type": "function"
    },
    {
      "inputs": [
        {
          "internalType": "uint8[]",
          "name": "pixels",
          "type": "uint8[]"
        },
        {
          "internalType": "uint256",
          "name": "plotId",
          "type": "uint256"
        }
      ],
      "name": "setPixels",
      "outputs": [],
      "stateMutability": "nonpayable",
      "type": "function"
    },
    {
      "inputs": [
        {
          "internalType": "address",
          "name": "account",
          "type": "address"
        }
      ],
      "name": "shares",
      "outputs": [
        {
          "internalType": "uint256",
          "name": "",
          "type": "uint256"
        }
      ],
      "stateMutability": "view",
      "type": "function"
    },
    {
      "inputs": [
        {
          "internalType": "bytes4",
          "name": "interfaceId",
          "type": "bytes4"
        }
      ],
      "name": "supportsInterface",
      "outputs": [
        {
          "internalType": "bool",
          "name": "",
          "type": "bool"
        }
      ],
      "stateMutability": "view",
      "type": "function"
    },
    {
      "inputs": [],
      "name": "symbol",
      "outputs": [
        {
          "internalType": "string",
          "name": "",
          "type": "string"
        }
      ],
      "stateMutability": "view",
      "type": "function"
    },
    {
      "inputs": [
        {
          "internalType": "uint256",
          "name": "tokenId",
          "type": "uint256"
        }
      ],
      "name": "tokenURI",
      "outputs": [
        {
          "internalType": "string",
          "name": "",
          "type": "string"
        }
      ],
      "stateMutability": "view",
      "type": "function"
    },
    {
      "inputs": [
        {
          "internalType": "contract IERC20",
          "name": "token",
          "type": "address"
        }
      ],
      "name": "totalReleased",
      "outputs": [
        {
          "internalType": "uint256",
          "name": "",
          "type": "uint256"
        }
      ],
      "stateMutability": "view",
      "type": "function"
    },
    {
      "inputs": [],
      "name": "totalReleased",
      "outputs": [
        {
          "internalType": "uint256",
          "name": "",
          "type": "uint256"
        }
      ],
      "stateMutability": "view",
      "type": "function"
    },
    {
      "inputs": [],
      "name": "totalShares",
      "outputs": [
        {
          "internalType": "uint256",
          "name": "",
          "type": "uint256"
        }
      ],
      "stateMutability": "view",
      "type": "function"
    },
    {
      "inputs": [
        {
          "internalType": "address",
          "name": "from",
          "type": "address"
        },
        {
          "internalType": "address",
          "name": "to",
          "type": "address"
        },
        {
          "internalType": "uint256",
          "name": "tokenId",
          "type": "uint256"
        }
      ],
      "name": "transferFrom",
      "outputs": [],
      "stateMutability": "nonpayable",
      "type": "function"
    },
    {
      "inputs": [
        {
          "internalType": "address",
          "name": "newOwner",
          "type": "address"
        }
      ],
      "name": "transferOwnership",
      "outputs": [],
      "stateMutability": "nonpayable",
      "type": "function"
    },
    {
      "stateMutability": "payable",
      "type": "receive"
    }
  ],
  "bytecode": "0x60806040526001600f556040601060006101000a81548160ff021916908360ff1602179055506004601060016101000a81548160ff021916908360ff160217905550604051620063c1380380620063c18339818101604052810190620000669190620008e7565b81816040518060400160405280600881526020017f4e6f6c616e6469610000000000000000000000000000000000000000000000008152506040518060400160405280600681526020017f4e4f4c414e4400000000000000000000000000000000000000000000000000008152508160009080519060200190620000ec92919062000538565b5080600190805190602001906200010592919062000538565b505050620001286200011c6200023060201b60201c565b6200023860201b60201c565b80518251146200016f576040517f08c379a00000000000000000000000000000000000000000000000000000000081526004016200016690620009f3565b60405180910390fd5b6000825111620001b6576040517f08c379a0000000000000000000000000000000000000000000000000000000008152600401620001ad9062000a65565b60405180910390fd5b60005b825181101562000225576200020f838281518110620001dd57620001dc62000a87565b5b6020026020010151838381518110620001fb57620001fa62000a87565b5b6020026020010151620002fe60201b60201c565b80806200021c9062000ae5565b915050620001b9565b505050505062000de6565b600033905090565b6000600660009054906101000a900473ffffffffffffffffffffffffffffffffffffffff16905081600660006101000a81548173ffffffffffffffffffffffffffffffffffffffff021916908373ffffffffffffffffffffffffffffffffffffffff1602179055508173ffffffffffffffffffffffffffffffffffffffff168173ffffffffffffffffffffffffffffffffffffffff167f8be0079c531659141344cd1fd0a4f28419497f9722a3daafe3b4186f6b6457e060405160405180910390a35050565b600073ffffffffffffffffffffffffffffffffffffffff168273ffffffffffffffffffffffffffffffffffffffff16141562000371576040517f08c379a0000000000000000000000000000000000000000000000000000000008152600401620003689062000ba9565b60405180910390fd5b60008111620003b7576040517f08c379a0000000000000000000000000000000000000000000000000000000008152600401620003ae9062000c1b565b60405180910390fd5b6000600960008473ffffffffffffffffffffffffffffffffffffffff1673ffffffffffffffffffffffffffffffffffffffff16815260200190815260200160002054146200043c576040517f08c379a0000000000000000000000000000000000000000000000000000000008152600401620004339062000cb3565b60405180910390fd5b600b829080600181540180825580915050600190039060005260206000200160009091909190916101000a81548173ffffffffffffffffffffffffffffffffffffffff021916908373ffffffffffffffffffffffffffffffffffffffff16021790555080600960008473ffffffffffffffffffffffffffffffffffffffff1673ffffffffffffffffffffffffffffffffffffffff1681526020019081526020016000208190555080600754620004f3919062000cd5565b6007819055507f40c340f65e17194d14ddddb073d3c9f888e3cb52b5aae0c6c7706b4fbc905fac82826040516200052c92919062000d54565b60405180910390a15050565b828054620005469062000db0565b90600052602060002090601f0160209004810192826200056a5760008555620005b6565b82601f106200058557805160ff1916838001178555620005b6565b82800160010185558215620005b6579182015b82811115620005b557825182559160200191906001019062000598565b5b509050620005c59190620005c9565b5090565b5b80821115620005e4576000816000905550600101620005ca565b5090565b6000604051905090565b600080fd5b600080fd5b600080fd5b6000601f19601f8301169050919050565b7f4e487b7100000000000000000000000000000000000000000000000000000000600052604160045260246000fd5b6200064c8262000601565b810181811067ffffffffffffffff821117156200066e576200066d62000612565b5b80604052505050565b600062000683620005e8565b905062000691828262000641565b919050565b600067ffffffffffffffff821115620006b457620006b362000612565b5b602082029050602081019050919050565b600080fd5b600073ffffffffffffffffffffffffffffffffffffffff82169050919050565b6000620006f782620006ca565b9050919050565b6200070981620006ea565b81146200071557600080fd5b50565b6000815190506200072981620006fe565b92915050565b600062000746620007408462000696565b62000677565b905080838252602082019050602084028301858111156200076c576200076b620006c5565b5b835b8181101562000799578062000784888262000718565b8452602084019350506020810190506200076e565b5050509392505050565b600082601f830112620007bb57620007ba620005fc565b5b8151620007cd8482602086016200072f565b91505092915050565b600067ffffffffffffffff821115620007f457620007f362000612565b5b602082029050602081019050919050565b6000819050919050565b6200081a8162000805565b81146200082657600080fd5b50565b6000815190506200083a816200080f565b92915050565b6000620008576200085184620007d6565b62000677565b905080838252602082019050602084028301858111156200087d576200087c620006c5565b5b835b81811015620008aa578062000895888262000829565b8452602084019350506020810190506200087f565b5050509392505050565b600082601f830112620008cc57620008cb620005fc565b5b8151620008de84826020860162000840565b91505092915050565b60008060408385031215620009015762000900620005f2565b5b600083015167ffffffffffffffff811115620009225762000921620005f7565b5b6200093085828601620007a3565b925050602083015167ffffffffffffffff811115620009545762000953620005f7565b5b6200096285828601620008b4565b9150509250929050565b600082825260208201905092915050565b7f5061796d656e7453706c69747465723a2070617965657320616e64207368617260008201527f6573206c656e677468206d69736d617463680000000000000000000000000000602082015250565b6000620009db6032836200096c565b9150620009e8826200097d565b604082019050919050565b6000602082019050818103600083015262000a0e81620009cc565b9050919050565b7f5061796d656e7453706c69747465723a206e6f20706179656573000000000000600082015250565b600062000a4d601a836200096c565b915062000a5a8262000a15565b602082019050919050565b6000602082019050818103600083015262000a808162000a3e565b9050919050565b7f4e487b7100000000000000000000000000000000000000000000000000000000600052603260045260246000fd5b7f4e487b7100000000000000000000000000000000000000000000000000000000600052601160045260246000fd5b600062000af28262000805565b91507fffffffffffffffffffffffffffffffffffffffffffffffffffffffffffffffff82141562000b285762000b2762000ab6565b5b600182019050919050565b7f5061796d656e7453706c69747465723a206163636f756e74206973207468652060008201527f7a65726f20616464726573730000000000000000000000000000000000000000602082015250565b600062000b91602c836200096c565b915062000b9e8262000b33565b604082019050919050565b6000602082019050818103600083015262000bc48162000b82565b9050919050565b7f5061796d656e7453706c69747465723a20736861726573206172652030000000600082015250565b600062000c03601d836200096c565b915062000c108262000bcb565b602082019050919050565b6000602082019050818103600083015262000c368162000bf4565b9050919050565b7f5061796d656e7453706c69747465723a206163636f756e7420616c726561647960008201527f2068617320736861726573000000000000000000000000000000000000000000602082015250565b600062000c9b602b836200096c565b915062000ca88262000c3d565b604082019050919050565b6000602082019050818103600083015262000cce8162000c8c565b9050919050565b600062000ce28262000805565b915062000cef8362000805565b9250827fffffffffffffffffffffffffffffffffffffffffffffffffffffffffffffffff0382111562000d275762000d2662000ab6565b5b828201905092915050565b62000d3d81620006ea565b82525050565b62000d4e8162000805565b82525050565b600060408201905062000d6b600083018562000d32565b62000d7a602083018462000d43565b9392505050565b7f4e487b7100000000000000000000000000000000000000000000000000000000600052602260045260246000fd5b6000600282049050600182168062000dc957607f821691505b6020821081141562000de05762000ddf62000d81565b5b50919050565b6155cb8062000df66000396000f3fe6080604052600436106101bb5760003560e01c8063715018a6116100ec578063b88d4fde1161008a578063d79779b211610064578063d79779b2146106a4578063e33b7de3146106e1578063e985e9c51461070c578063f2fde38b1461074957610202565b8063b88d4fde14610601578063c87b56dd1461062a578063ce7c2ac21461066757610202565b806391e98205116100c657806391e982051461053357806395d89b41146105705780639852595c1461059b578063a22cb465146105d857610202565b8063715018a6146104b45780638b83209b146104cb5780638da5cb5b1461050857610202565b80633a98ef39116101595780634409a876116101335780634409a876146103e857806348b75044146104115780636352211e1461043a57806370a082311461047757610202565b80633a98ef3914610357578063406072a91461038257806342842e0e146103bf57610202565b8063081812fc11610195578063081812fc1461029f578063095ea7b3146102dc578063191655871461030557806323b872dd1461032e57610202565b8063014676bc1461020757806301ffc9a71461023757806306fdde031461027457610202565b36610202577f6ef95f06320e7a25a04a175ca677b7052bdd97131872c2192525a629f51be7706101e9610772565b346040516101f89291906131b4565b60405180910390a1005b600080fd5b610221600480360381019061021c919061322a565b61077a565b60405161022e9190613291565b60405180910390f35b34801561024357600080fd5b5061025e60048036038101906102599190613304565b610b20565b60405161026b919061334c565b60405180910390f35b34801561028057600080fd5b50610289610c02565b6040516102969190613400565b60405180910390f35b3480156102ab57600080fd5b506102c660048036038101906102c1919061344e565b610c94565b6040516102d3919061347b565b60405180910390f35b3480156102e857600080fd5b5061030360048036038101906102fe91906134c2565b610d19565b005b34801561031157600080fd5b5061032c60048036038101906103279190613540565b610e31565b005b34801561033a57600080fd5b506103556004803603810190610350919061356d565b610fdc565b005b34801561036357600080fd5b5061036c61103c565b6040516103799190613291565b60405180910390f35b34801561038e57600080fd5b506103a960048036038101906103a491906135fe565b611046565b6040516103b69190613291565b60405180910390f35b3480156103cb57600080fd5b506103e660048036038101906103e1919061356d565b6110cd565b005b3480156103f457600080fd5b5061040f600480360381019061040a91906136a3565b6110ed565b005b34801561041d57600080fd5b50610438600480360381019061043391906135fe565b611368565b005b34801561044657600080fd5b50610461600480360381019061045c919061344e565b611630565b60405161046e919061347b565b60405180910390f35b34801561048357600080fd5b5061049e60048036038101906104999190613703565b6116e2565b6040516104ab9190613291565b60405180910390f35b3480156104c057600080fd5b506104c961179a565b005b3480156104d757600080fd5b506104f260048036038101906104ed919061344e565b611822565b6040516104ff919061347b565b60405180910390f35b34801561051457600080fd5b5061051d61186a565b60405161052a919061347b565b60405180910390f35b34801561053f57600080fd5b5061055a60048036038101906105559190613730565b611894565b6040516105679190613291565b60405180910390f35b34801561057c57600080fd5b506105856118c2565b6040516105929190613400565b60405180910390f35b3480156105a757600080fd5b506105c260048036038101906105bd9190613703565b611954565b6040516105cf9190613291565b60405180910390f35b3480156105e457600080fd5b506105ff60048036038101906105fa919061379c565b61199d565b005b34801561060d57600080fd5b506106286004803603810190610623919061390c565b6119b3565b005b34801561063657600080fd5b50610651600480360381019061064c919061344e565b611a15565b60405161065e9190613400565b60405180910390f35b34801561067357600080fd5b5061068e60048036038101906106899190613703565b611b04565b60405161069b9190613291565b60405180910390f35b3480156106b057600080fd5b506106cb60048036038101906106c6919061398f565b611b4d565b6040516106d89190613291565b60405180910390f35b3480156106ed57600080fd5b506106f6611b96565b6040516107039190613291565b60405180910390f35b34801561071857600080fd5b50610733600480360381019061072e91906139bc565b611ba0565b604051610740919061334c565b60405180910390f35b34801561075557600080fd5b50610770600480360381019061076b9190613703565b611c34565b005b600033905090565b6000808560ff1610158015610793575060008460ff1610155b6107d2576040517f08c379a00000000000000000000000000000000000000000000000000000000081526004016107c990613a48565b60405180910390fd5b60808360ff16111580156107ea575060808260ff1611155b610829576040517f08c379a000000000000000000000000000000000000000000000000000000000815260040161082090613ab4565b60405180910390fd5b8260ff168560ff1610801561084357508160ff168460ff16105b610882576040517f08c379a000000000000000000000000000000000000000000000000000000000815260040161087990613b46565b60405180910390fd5b600084836108909190613b95565b868561089c9190613b95565b6108a69190613bc9565b60ff16905034601060009054906101000a900460ff1660ff16600f54836108cd9190613c04565b6108d79190613c04565b14610917576040517f08c379a000000000000000000000000000000000000000000000000000000000815260040161090e90613caa565b60405180910390fd5b610921600e611d2c565b600061092d600e611d42565b90506001151561093f88888888611d50565b151514610981576040517f08c379a000000000000000000000000000000000000000000000000000000000815260040161097890613d3c565b60405180910390fd5b61098e8787878785611dfa565b6109983382611e87565b6040518060c001604052808860ff1681526020018760ff1681526020018660ff1681526020018560ff1681526020018281526020013373ffffffffffffffffffffffffffffffffffffffff16815250614011600083815260200190815260200160002060008201518160000160006101000a81548160ff021916908360ff16021790555060208201518160000160016101000a81548160ff021916908360ff16021790555060408201518160000160026101000a81548160ff021916908360ff16021790555060608201518160000160036101000a81548160ff021916908360ff1602179055506080820151816001015560a08201518160020160006101000a81548173ffffffffffffffffffffffffffffffffffffffff021916908373ffffffffffffffffffffffffffffffffffffffff160217905550905050807fc7f9c709a3443a1baf574de6971f85729bd1c8c9fb18266c9d8d078e89456c133389898989604051610b0b959493929190613d6b565b60405180910390a28092505050949350505050565b60007f80ac58cd000000000000000000000000000000000000000000000000000000007bffffffffffffffffffffffffffffffffffffffffffffffffffffffff1916827bffffffffffffffffffffffffffffffffffffffffffffffffffffffff19161480610beb57507f5b5e139f000000000000000000000000000000000000000000000000000000007bffffffffffffffffffffffffffffffffffffffffffffffffffffffff1916827bffffffffffffffffffffffffffffffffffffffffffffffffffffffff1916145b80610bfb5750610bfa82611ea5565b5b9050919050565b606060008054610c1190613ded565b80601f0160208091040260200160405190810160405280929190818152602001828054610c3d90613ded565b8015610c8a5780601f10610c5f57610100808354040283529160200191610c8a565b820191906000526020600020905b815481529060010190602001808311610c6d57829003601f168201915b5050505050905090565b6000610c9f82611f0f565b610cde576040517f08c379a0000000000000000000000000000000000000000000000000000000008152600401610cd590613e91565b60405180910390fd5b6004600083815260200190815260200160002060009054906101000a900473ffffffffffffffffffffffffffffffffffffffff169050919050565b6000610d2482611630565b90508073ffffffffffffffffffffffffffffffffffffffff168373ffffffffffffffffffffffffffffffffffffffff161415610d95576040517f08c379a0000000000000000000000000000000000000000000000000000000008152600401610d8c90613f23565b60405180910390fd5b8073ffffffffffffffffffffffffffffffffffffffff16610db4610772565b73ffffffffffffffffffffffffffffffffffffffff161480610de35750610de281610ddd610772565b611ba0565b5b610e22576040517f08c379a0000000000000000000000000000000000000000000000000000000008152600401610e1990613fb5565b60405180910390fd5b610e2c8383611f7b565b505050565b6000600960008373ffffffffffffffffffffffffffffffffffffffff1673ffffffffffffffffffffffffffffffffffffffff1681526020019081526020016000205411610eb3576040517f08c379a0000000000000000000000000000000000000000000000000000000008152600401610eaa90614047565b60405180910390fd5b6000610ebd611b96565b47610ec89190614067565b90506000610edf8383610eda86611954565b612034565b90506000811415610f25576040517f08c379a0000000000000000000000000000000000000000000000000000000008152600401610f1c9061412f565b60405180910390fd5b80600a60008573ffffffffffffffffffffffffffffffffffffffff1673ffffffffffffffffffffffffffffffffffffffff1681526020019081526020016000206000828254610f749190614067565b925050819055508060086000828254610f8d9190614067565b92505081905550610f9e83826120a2565b7fdf20fd1e76bc69d672e4814fafb2c449bba3a5369d8359adf9e05e6fde87b0568382604051610fcf9291906141ae565b60405180910390a1505050565b610fed610fe7610772565b82612196565b61102c576040517f08c379a000000000000000000000000000000000000000000000000000000000815260040161102390614249565b60405180910390fd5b611037838383612274565b505050565b6000600754905090565b6000600d60008473ffffffffffffffffffffffffffffffffffffffff1673ffffffffffffffffffffffffffffffffffffffff16815260200190815260200160002060008373ffffffffffffffffffffffffffffffffffffffff1673ffffffffffffffffffffffffffffffffffffffff16815260200190815260200160002054905092915050565b6110e8838383604051806020016040528060008152506119b3565b505050565b3373ffffffffffffffffffffffffffffffffffffffff1661110d82611630565b73ffffffffffffffffffffffffffffffffffffffff1614611163576040517f08c379a000000000000000000000000000000000000000000000000000000000815260040161115a906142b5565b60405180910390fd5b600061401160008381526020019081526020016000206040518060c00160405290816000820160009054906101000a900460ff1660ff1660ff1681526020016000820160019054906101000a900460ff1660ff1660ff1681526020016000820160029054906101000a900460ff1660ff1660ff1681526020016000820160039054906101000a900460ff1660ff1660ff168152602001600182015481526020016002820160009054906101000a900473ffffffffffffffffffffffffffffffffffffffff1673ffffffffffffffffffffffffffffffffffffffff1673ffffffffffffffffffffffffffffffffffffffff168152505090506000816000015182604001516112709190613b95565b60ff16905060008260200151836060015161128b9190613b95565b60ff1690506000601060019054906101000a900460ff1660ff16601060009054906101000a900460ff1660ff1683856112c491906142e5565b6112ce91906142e5565b6112d891906142e5565b9050868690508163ffffffff1614611325576040517f08c379a000000000000000000000000000000000000000000000000000000000815260040161131c9061436f565b60405180910390fd5b847fade17c51d5840990bf9bfd0f37b213de83d8192c7ef345922962267e944abc3d8888604051611357929190614452565b60405180910390a250505050505050565b6000600960008373ffffffffffffffffffffffffffffffffffffffff1673ffffffffffffffffffffffffffffffffffffffff16815260200190815260200160002054116113ea576040517f08c379a00000000000000000000000000000000000000000000000000000000081526004016113e190614047565b60405180910390fd5b60006113f583611b4d565b8373ffffffffffffffffffffffffffffffffffffffff166370a08231306040518263ffffffff1660e01b815260040161142e919061347b565b60206040518083038186803b15801561144657600080fd5b505afa15801561145a573d6000803e3d6000fd5b505050506040513d601f19601f8201168201806040525081019061147e919061448b565b6114889190614067565b905060006114a0838361149b8787611046565b612034565b905060008114156114e6576040517f08c379a00000000000000000000000000000000000000000000000000000000081526004016114dd9061412f565b60405180910390fd5b80600d60008673ffffffffffffffffffffffffffffffffffffffff1673ffffffffffffffffffffffffffffffffffffffff16815260200190815260200160002060008573ffffffffffffffffffffffffffffffffffffffff1673ffffffffffffffffffffffffffffffffffffffff16815260200190815260200160002060008282546115729190614067565b9250508190555080600c60008673ffffffffffffffffffffffffffffffffffffffff1673ffffffffffffffffffffffffffffffffffffffff16815260200190815260200160002060008282546115c89190614067565b925050819055506115da8484836124db565b8373ffffffffffffffffffffffffffffffffffffffff167f3be5b7a71e84ed12875d241991c70855ac5817d847039e17a9d895c1ceb0f18a84836040516116229291906131b4565b60405180910390a250505050565b6000806002600084815260200190815260200160002060009054906101000a900473ffffffffffffffffffffffffffffffffffffffff169050600073ffffffffffffffffffffffffffffffffffffffff168173ffffffffffffffffffffffffffffffffffffffff1614156116d9576040517f08c379a00000000000000000000000000000000000000000000000000000000081526004016116d09061452a565b60405180910390fd5b80915050919050565b60008073ffffffffffffffffffffffffffffffffffffffff168273ffffffffffffffffffffffffffffffffffffffff161415611753576040517f08c379a000000000000000000000000000000000000000000000000000000000815260040161174a906145bc565b60405180910390fd5b600360008373ffffffffffffffffffffffffffffffffffffffff1673ffffffffffffffffffffffffffffffffffffffff168152602001908152602001600020549050919050565b6117a2610772565b73ffffffffffffffffffffffffffffffffffffffff166117c061186a565b73ffffffffffffffffffffffffffffffffffffffff1614611816576040517f08c379a000000000000000000000000000000000000000000000000000000000815260040161180d90614628565b60405180910390fd5b6118206000612561565b565b6000600b828154811061183857611837614648565b5b9060005260206000200160009054906101000a900473ffffffffffffffffffffffffffffffffffffffff169050919050565b6000600660009054906101000a900473ffffffffffffffffffffffffffffffffffffffff16905090565b601182608081106118a457600080fd5b6080020181608081106118b657600080fd5b01600091509150505481565b6060600180546118d190613ded565b80601f01602080910402602001604051908101604052809291908181526020018280546118fd90613ded565b801561194a5780601f1061191f5761010080835404028352916020019161194a565b820191906000526020600020905b81548152906001019060200180831161192d57829003601f168201915b5050505050905090565b6000600a60008373ffffffffffffffffffffffffffffffffffffffff1673ffffffffffffffffffffffffffffffffffffffff168152602001908152602001600020549050919050565b6119af6119a8610772565b8383612627565b5050565b6119c46119be610772565b83612196565b611a03576040517f08c379a00000000000000000000000000000000000000000000000000000000081526004016119fa90614249565b60405180910390fd5b611a0f84848484612794565b50505050565b6060611a2082611f0f565b611a5f576040517f08c379a0000000000000000000000000000000000000000000000000000000008152600401611a56906146e9565b60405180910390fd5b60006040518060400160405280601081526020017f6d79496d616765557269787878787878000000000000000000000000000000008152509050611aa16127f0565b611adc611aac610c02565b611ab58661282d565b84604051602001611ac893929190614afb565b60405160208183030381529060405261298e565b604051602001611aed929190614b9a565b604051602081830303815290604052915050919050565b6000600960008373ffffffffffffffffffffffffffffffffffffffff1673ffffffffffffffffffffffffffffffffffffffff168152602001908152602001600020549050919050565b6000600c60008373ffffffffffffffffffffffffffffffffffffffff1673ffffffffffffffffffffffffffffffffffffffff168152602001908152602001600020549050919050565b6000600854905090565b6000600560008473ffffffffffffffffffffffffffffffffffffffff1673ffffffffffffffffffffffffffffffffffffffff16815260200190815260200160002060008373ffffffffffffffffffffffffffffffffffffffff1673ffffffffffffffffffffffffffffffffffffffff16815260200190815260200160002060009054906101000a900460ff16905092915050565b611c3c610772565b73ffffffffffffffffffffffffffffffffffffffff16611c5a61186a565b73ffffffffffffffffffffffffffffffffffffffff1614611cb0576040517f08c379a0000000000000000000000000000000000000000000000000000000008152600401611ca790614628565b60405180910390fd5b600073ffffffffffffffffffffffffffffffffffffffff168173ffffffffffffffffffffffffffffffffffffffff161415611d20576040517f08c379a0000000000000000000000000000000000000000000000000000000008152600401611d1790614c30565b60405180910390fd5b611d2981612561565b50565b6001816000016000828254019250508190555050565b600081600001549050919050565b6000808590505b8360ff168160ff161015611dec5760008590505b8360ff168160ff161015611dd857600060118360ff1660808110611d9257611d91614648565b5b608002018260ff1660808110611dab57611daa614648565b5b015490506000811115611dc45760009350505050611df2565b508080611dd090614c50565b915050611d6b565b508080611de490614c50565b915050611d57565b50600190505b949350505050565b60008590505b8360ff168160ff161015611e7f5760008590505b8360ff168160ff161015611e6b578260118360ff1660808110611e3a57611e39614648565b5b608002018260ff1660808110611e5357611e52614648565b5b01819055508080611e6390614c50565b915050611e14565b508080611e7790614c50565b915050611e00565b505050505050565b611ea1828260405180602001604052806000815250612b07565b5050565b60007f01ffc9a7000000000000000000000000000000000000000000000000000000007bffffffffffffffffffffffffffffffffffffffffffffffffffffffff1916827bffffffffffffffffffffffffffffffffffffffffffffffffffffffff1916149050919050565b60008073ffffffffffffffffffffffffffffffffffffffff166002600084815260200190815260200160002060009054906101000a900473ffffffffffffffffffffffffffffffffffffffff1673ffffffffffffffffffffffffffffffffffffffff1614159050919050565b816004600083815260200190815260200160002060006101000a81548173ffffffffffffffffffffffffffffffffffffffff021916908373ffffffffffffffffffffffffffffffffffffffff160217905550808273ffffffffffffffffffffffffffffffffffffffff16611fee83611630565b73ffffffffffffffffffffffffffffffffffffffff167f8c5be1e5ebec7d5bd14f71427d1e84f3dd0314c0f7b2291e5b200ac8c7c3b92560405160405180910390a45050565b600081600754600960008773ffffffffffffffffffffffffffffffffffffffff1673ffffffffffffffffffffffffffffffffffffffff16815260200190815260200160002054856120859190613c04565b61208f9190614ca9565b6120999190614cda565b90509392505050565b804710156120e5576040517f08c379a00000000000000000000000000000000000000000000000000000000081526004016120dc90614d5a565b60405180910390fd5b60008273ffffffffffffffffffffffffffffffffffffffff168260405161210b90614dab565b60006040518083038185875af1925050503d8060008114612148576040519150601f19603f3d011682016040523d82523d6000602084013e61214d565b606091505b5050905080612191576040517f08c379a000000000000000000000000000000000000000000000000000000000815260040161218890614e32565b60405180910390fd5b505050565b60006121a182611f0f565b6121e0576040517f08c379a00000000000000000000000000000000000000000000000000000000081526004016121d790614ec4565b60405180910390fd5b60006121eb83611630565b90508073ffffffffffffffffffffffffffffffffffffffff168473ffffffffffffffffffffffffffffffffffffffff16148061222d575061222c8185611ba0565b5b8061226b57508373ffffffffffffffffffffffffffffffffffffffff1661225384610c94565b73ffffffffffffffffffffffffffffffffffffffff16145b91505092915050565b8273ffffffffffffffffffffffffffffffffffffffff1661229482611630565b73ffffffffffffffffffffffffffffffffffffffff16146122ea576040517f08c379a00000000000000000000000000000000000000000000000000000000081526004016122e190614f56565b60405180910390fd5b600073ffffffffffffffffffffffffffffffffffffffff168273ffffffffffffffffffffffffffffffffffffffff16141561235a576040517f08c379a000000000000000000000000000000000000000000000000000000000815260040161235190614fe8565b60405180910390fd5b612365838383612b62565b612370600082611f7b565b6001600360008573ffffffffffffffffffffffffffffffffffffffff1673ffffffffffffffffffffffffffffffffffffffff16815260200190815260200160002060008282546123c09190614cda565b925050819055506001600360008473ffffffffffffffffffffffffffffffffffffffff1673ffffffffffffffffffffffffffffffffffffffff16815260200190815260200160002060008282546124179190614067565b92505081905550816002600083815260200190815260200160002060006101000a81548173ffffffffffffffffffffffffffffffffffffffff021916908373ffffffffffffffffffffffffffffffffffffffff160217905550808273ffffffffffffffffffffffffffffffffffffffff168473ffffffffffffffffffffffffffffffffffffffff167fddf252ad1be2c89b69c2b068fc378daa952ba7f163c4a11628f55a4df523b3ef60405160405180910390a46124d6838383612b67565b505050565b61255c8363a9059cbb60e01b84846040516024016124fa9291906131b4565b604051602081830303815290604052907bffffffffffffffffffffffffffffffffffffffffffffffffffffffff19166020820180517bffffffffffffffffffffffffffffffffffffffffffffffffffffffff8381831617835250505050612b6c565b505050565b6000600660009054906101000a900473ffffffffffffffffffffffffffffffffffffffff16905081600660006101000a81548173ffffffffffffffffffffffffffffffffffffffff021916908373ffffffffffffffffffffffffffffffffffffffff1602179055508173ffffffffffffffffffffffffffffffffffffffff168173ffffffffffffffffffffffffffffffffffffffff167f8be0079c531659141344cd1fd0a4f28419497f9722a3daafe3b4186f6b6457e060405160405180910390a35050565b8173ffffffffffffffffffffffffffffffffffffffff168373ffffffffffffffffffffffffffffffffffffffff161415612696576040517f08c379a000000000000000000000000000000000000000000000000000000000815260040161268d90615054565b60405180910390fd5b80600560008573ffffffffffffffffffffffffffffffffffffffff1673ffffffffffffffffffffffffffffffffffffffff16815260200190815260200160002060008473ffffffffffffffffffffffffffffffffffffffff1673ffffffffffffffffffffffffffffffffffffffff16815260200190815260200160002060006101000a81548160ff0219169083151502179055508173ffffffffffffffffffffffffffffffffffffffff168373ffffffffffffffffffffffffffffffffffffffff167f17307eab39ab6107e8899845ad3d59bd9653f200f220920489ca2b5937696c3183604051612787919061334c565b60405180910390a3505050565b61279f848484612274565b6127ab84848484612c33565b6127ea576040517f08c379a00000000000000000000000000000000000000000000000000000000081526004016127e1906150e6565b60405180910390fd5b50505050565b60606040518060400160405280601d81526020017f646174613a6170706c69636174696f6e2f6a736f6e3b6261736536342c000000815250905090565b60606000821415612875576040518060400160405280600181526020017f30000000000000000000000000000000000000000000000000000000000000008152509050612989565b600082905060005b600082146128a757808061289090615106565b915050600a826128a09190614ca9565b915061287d565b60008167ffffffffffffffff8111156128c3576128c26137e1565b5b6040519080825280601f01601f1916602001820160405280156128f55781602001600182028036833780820191505090505b5090505b600085146129825760018261290e9190614cda565b9150600a8561291d919061514f565b60306129299190614067565b60f81b81838151811061293f5761293e614648565b5b60200101907effffffffffffffffffffffffffffffffffffffffffffffffffffffffffffff1916908160001a905350600a8561297b9190614ca9565b94506128f9565b8093505050505b919050565b60606000825114156129b157604051806020016040528060008152509050612b02565b600060405180606001604052806040815260200161555660409139905060006003600285516129e09190614067565b6129ea9190614ca9565b60046129f69190613c04565b90506000602082612a079190614067565b67ffffffffffffffff811115612a2057612a1f6137e1565b5b6040519080825280601f01601f191660200182016040528015612a525781602001600182028036833780820191505090505b509050818152600183018586518101602084015b81831015612ac1576003830192508251603f8160121c168501518253600182019150603f81600c1c168501518253600182019150603f8160061c168501518253600182019150603f8116850151825360018201915050612a66565b600389510660018114612adb5760028114612aeb57612af6565b613d3d60f01b6002830352612af6565b603d60f81b60018303525b50505050508093505050505b919050565b612b118383612dca565b612b1e6000848484612c33565b612b5d576040517f08c379a0000000000000000000000000000000000000000000000000000000008152600401612b54906150e6565b60405180910390fd5b505050565b505050565b505050565b6000612bce826040518060400160405280602081526020017f5361666545524332303a206c6f772d6c6576656c2063616c6c206661696c65648152508573ffffffffffffffffffffffffffffffffffffffff16612fa49092919063ffffffff16565b9050600081511115612c2e5780806020019051810190612bee9190615195565b612c2d576040517f08c379a0000000000000000000000000000000000000000000000000000000008152600401612c2490615234565b60405180910390fd5b5b505050565b6000612c548473ffffffffffffffffffffffffffffffffffffffff16612fbc565b15612dbd578373ffffffffffffffffffffffffffffffffffffffff1663150b7a02612c7d610772565b8786866040518563ffffffff1660e01b8152600401612c9f94939291906152a9565b602060405180830381600087803b158015612cb957600080fd5b505af1925050508015612cea57506040513d601f19601f82011682018060405250810190612ce7919061530a565b60015b612d6d573d8060008114612d1a576040519150601f19603f3d011682016040523d82523d6000602084013e612d1f565b606091505b50600081511415612d65576040517f08c379a0000000000000000000000000000000000000000000000000000000008152600401612d5c906150e6565b60405180910390fd5b805181602001fd5b63150b7a0260e01b7bffffffffffffffffffffffffffffffffffffffffffffffffffffffff1916817bffffffffffffffffffffffffffffffffffffffffffffffffffffffff191614915050612dc2565b600190505b949350505050565b600073ffffffffffffffffffffffffffffffffffffffff168273ffffffffffffffffffffffffffffffffffffffff161415612e3a576040517f08c379a0000000000000000000000000000000000000000000000000000000008152600401612e3190615383565b60405180910390fd5b612e4381611f0f565b15612e83576040517f08c379a0000000000000000000000000000000000000000000000000000000008152600401612e7a906153ef565b60405180910390fd5b612e8f60008383612b62565b6001600360008473ffffffffffffffffffffffffffffffffffffffff1673ffffffffffffffffffffffffffffffffffffffff1681526020019081526020016000206000828254612edf9190614067565b92505081905550816002600083815260200190815260200160002060006101000a81548173ffffffffffffffffffffffffffffffffffffffff021916908373ffffffffffffffffffffffffffffffffffffffff160217905550808273ffffffffffffffffffffffffffffffffffffffff16600073ffffffffffffffffffffffffffffffffffffffff167fddf252ad1be2c89b69c2b068fc378daa952ba7f163c4a11628f55a4df523b3ef60405160405180910390a4612fa060008383612b67565b5050565b6060612fb38484600085612fdf565b90509392505050565b6000808273ffffffffffffffffffffffffffffffffffffffff163b119050919050565b606082471015613024576040517f08c379a000000000000000000000000000000000000000000000000000000000815260040161301b90615481565b60405180910390fd5b61302d85612fbc565b61306c576040517f08c379a0000000000000000000000000000000000000000000000000000000008152600401613063906154ed565b60405180910390fd5b6000808673ffffffffffffffffffffffffffffffffffffffff168587604051613095919061553e565b60006040518083038185875af1925050503d80600081146130d2576040519150601f19603f3d011682016040523d82523d6000602084013e6130d7565b606091505b50915091506130e78282866130f3565b92505050949350505050565b6060831561310357829050613153565b6000835111156131165782518084602001fd5b816040517f08c379a000000000000000000000000000000000000000000000000000000000815260040161314a9190613400565b60405180910390fd5b9392505050565b600073ffffffffffffffffffffffffffffffffffffffff82169050919050565b60006131858261315a565b9050919050565b6131958161317a565b82525050565b6000819050919050565b6131ae8161319b565b82525050565b60006040820190506131c9600083018561318c565b6131d660208301846131a5565b9392505050565b6000604051905090565b600080fd5b600080fd5b600060ff82169050919050565b613207816131f1565b811461321257600080fd5b50565b600081359050613224816131fe565b92915050565b60008060008060808587031215613244576132436131e7565b5b600061325287828801613215565b945050602061326387828801613215565b935050604061327487828801613215565b925050606061328587828801613215565b91505092959194509250565b60006020820190506132a660008301846131a5565b92915050565b60007fffffffff0000000000000000000000000000000000000000000000000000000082169050919050565b6132e1816132ac565b81146132ec57600080fd5b50565b6000813590506132fe816132d8565b92915050565b60006020828403121561331a576133196131e7565b5b6000613328848285016132ef565b91505092915050565b60008115159050919050565b61334681613331565b82525050565b6000602082019050613361600083018461333d565b92915050565b600081519050919050565b600082825260208201905092915050565b60005b838110156133a1578082015181840152602081019050613386565b838111156133b0576000848401525b50505050565b6000601f19601f8301169050919050565b60006133d282613367565b6133dc8185613372565b93506133ec818560208601613383565b6133f5816133b6565b840191505092915050565b6000602082019050818103600083015261341a81846133c7565b905092915050565b61342b8161319b565b811461343657600080fd5b50565b60008135905061344881613422565b92915050565b600060208284031215613464576134636131e7565b5b600061347284828501613439565b91505092915050565b6000602082019050613490600083018461318c565b92915050565b61349f8161317a565b81146134aa57600080fd5b50565b6000813590506134bc81613496565b92915050565b600080604083850312156134d9576134d86131e7565b5b60006134e7858286016134ad565b92505060206134f885828601613439565b9150509250929050565b600061350d8261315a565b9050919050565b61351d81613502565b811461352857600080fd5b50565b60008135905061353a81613514565b92915050565b600060208284031215613556576135556131e7565b5b60006135648482850161352b565b91505092915050565b600080600060608486031215613586576135856131e7565b5b6000613594868287016134ad565b93505060206135a5868287016134ad565b92505060406135b686828701613439565b9150509250925092565b60006135cb8261317a565b9050919050565b6135db816135c0565b81146135e657600080fd5b50565b6000813590506135f8816135d2565b92915050565b60008060408385031215613615576136146131e7565b5b6000613623858286016135e9565b9250506020613634858286016134ad565b9150509250929050565b600080fd5b600080fd5b600080fd5b60008083601f8401126136635761366261363e565b5b8235905067ffffffffffffffff8111156136805761367f613643565b5b60208301915083602082028301111561369c5761369b613648565b5b9250929050565b6000806000604084860312156136bc576136bb6131e7565b5b600084013567ffffffffffffffff8111156136da576136d96131ec565b5b6136e68682870161364d565b935093505060206136f986828701613439565b9150509250925092565b600060208284031215613719576137186131e7565b5b6000613727848285016134ad565b91505092915050565b60008060408385031215613747576137466131e7565b5b600061375585828601613439565b925050602061376685828601613439565b9150509250929050565b61377981613331565b811461378457600080fd5b50565b60008135905061379681613770565b92915050565b600080604083850312156137b3576137b26131e7565b5b60006137c1858286016134ad565b92505060206137d285828601613787565b9150509250929050565b600080fd5b7f4e487b7100000000000000000000000000000000000000000000000000000000600052604160045260246000fd5b613819826133b6565b810181811067ffffffffffffffff82111715613838576138376137e1565b5b80604052505050565b600061384b6131dd565b90506138578282613810565b919050565b600067ffffffffffffffff821115613877576138766137e1565b5b613880826133b6565b9050602081019050919050565b82818337600083830152505050565b60006138af6138aa8461385c565b613841565b9050828152602081018484840111156138cb576138ca6137dc565b5b6138d684828561388d565b509392505050565b600082601f8301126138f3576138f261363e565b5b813561390384826020860161389c565b91505092915050565b60008060008060808587031215613926576139256131e7565b5b6000613934878288016134ad565b9450506020613945878288016134ad565b935050604061395687828801613439565b925050606085013567ffffffffffffffff811115613977576139766131ec565b5b613983878288016138de565b91505092959194509250565b6000602082840312156139a5576139a46131e7565b5b60006139b3848285016135e9565b91505092915050565b600080604083850312156139d3576139d26131e7565b5b60006139e1858286016134ad565b92505060206139f2858286016134ad565b9150509250929050565b7f666972737420636f6f72642030206f7220626967676572000000000000000000600082015250565b6000613a32601783613372565b9150613a3d826139fc565b602082019050919050565b60006020820190508181036000830152613a6181613a25565b9050919050565b7f7365636f6e6420636f6f726420313238206f7220736d616c6c65720000000000600082015250565b6000613a9e601b83613372565b9150613aa982613a68565b602082019050919050565b60006020820190508181036000830152613acd81613a91565b9050919050565b7f326e6420636f6f726420736d616c6c6572207468616e20666972737420636f6f60008201527f7264000000000000000000000000000000000000000000000000000000000000602082015250565b6000613b30602283613372565b9150613b3b82613ad4565b604082019050919050565b60006020820190508181036000830152613b5f81613b23565b9050919050565b7f4e487b7100000000000000000000000000000000000000000000000000000000600052601160045260246000fd5b6000613ba0826131f1565b9150613bab836131f1565b925082821015613bbe57613bbd613b66565b5b828203905092915050565b6000613bd4826131f1565b9150613bdf836131f1565b92508160ff0483118215151615613bf957613bf8613b66565b5b828202905092915050565b6000613c0f8261319b565b9150613c1a8361319b565b9250817fffffffffffffffffffffffffffffffffffffffffffffffffffffffffffffffff0483118215151615613c5357613c52613b66565b5b828202905092915050565b7f77726f6e6720616d6f756e740000000000000000000000000000000000000000600082015250565b6000613c94600c83613372565b9150613c9f82613c5e565b602082019050919050565b60006020820190508181036000830152613cc381613c87565b9050919050565b7f612073656c65637465642070617263656c20697320616c7265616479206f776e60008201527f6564000000000000000000000000000000000000000000000000000000000000602082015250565b6000613d26602283613372565b9150613d3182613cca565b604082019050919050565b60006020820190508181036000830152613d5581613d19565b9050919050565b613d65816131f1565b82525050565b600060a082019050613d80600083018861318c565b613d8d6020830187613d5c565b613d9a6040830186613d5c565b613da76060830185613d5c565b613db46080830184613d5c565b9695505050505050565b7f4e487b7100000000000000000000000000000000000000000000000000000000600052602260045260246000fd5b60006002820490506001821680613e0557607f821691505b60208210811415613e1957613e18613dbe565b5b50919050565b7f4552433732313a20617070726f76656420717565727920666f72206e6f6e657860008201527f697374656e7420746f6b656e0000000000000000000000000000000000000000602082015250565b6000613e7b602c83613372565b9150613e8682613e1f565b604082019050919050565b60006020820190508181036000830152613eaa81613e6e565b9050919050565b7f4552433732313a20617070726f76616c20746f2063757272656e74206f776e6560008201527f7200000000000000000000000000000000000000000000000000000000000000602082015250565b6000613f0d602183613372565b9150613f1882613eb1565b604082019050919050565b60006020820190508181036000830152613f3c81613f00565b9050919050565b7f4552433732313a20617070726f76652063616c6c6572206973206e6f74206f7760008201527f6e6572206e6f7220617070726f76656420666f7220616c6c0000000000000000602082015250565b6000613f9f603883613372565b9150613faa82613f43565b604082019050919050565b60006020820190508181036000830152613fce81613f92565b9050919050565b7f5061796d656e7453706c69747465723a206163636f756e7420686173206e6f2060008201527f7368617265730000000000000000000000000000000000000000000000000000602082015250565b6000614031602683613372565b915061403c82613fd5565b604082019050919050565b6000602082019050818103600083015261406081614024565b9050919050565b60006140728261319b565b915061407d8361319b565b9250827fffffffffffffffffffffffffffffffffffffffffffffffffffffffffffffffff038211156140b2576140b1613b66565b5b828201905092915050565b7f5061796d656e7453706c69747465723a206163636f756e74206973206e6f742060008201527f647565207061796d656e74000000000000000000000000000000000000000000602082015250565b6000614119602b83613372565b9150614124826140bd565b604082019050919050565b600060208201905081810360008301526141488161410c565b9050919050565b6000819050919050565b600061417461416f61416a8461315a565b61414f565b61315a565b9050919050565b600061418682614159565b9050919050565b60006141988261417b565b9050919050565b6141a88161418d565b82525050565b60006040820190506141c3600083018561419f565b6141d060208301846131a5565b9392505050565b7f4552433732313a207472616e736665722063616c6c6572206973206e6f74206f60008201527f776e6572206e6f7220617070726f766564000000000000000000000000000000602082015250565b6000614233603183613372565b915061423e826141d7565b604082019050919050565b6000602082019050818103600083015261426281614226565b9050919050565b7f7520646f6e74206f776e20746869730000000000000000000000000000000000600082015250565b600061429f600f83613372565b91506142aa82614269565b602082019050919050565b600060208201905081810360008301526142ce81614292565b9050919050565b600063ffffffff82169050919050565b60006142f0826142d5565b91506142fb836142d5565b92508163ffffffff048311821515161561431857614317613b66565b5b828202905092915050565b7f77726f6e6720616d6f756e74206f662070780000000000000000000000000000600082015250565b6000614359601283613372565b915061436482614323565b602082019050919050565b600060208201905081810360008301526143888161434c565b9050919050565b600082825260208201905092915050565b6000819050919050565b6143b3816131f1565b82525050565b60006143c583836143aa565b60208301905092915050565b60006143e06020840184613215565b905092915050565b6000602082019050919050565b6000614401838561438f565b935061440c826143a0565b8060005b858110156144455761442282846143d1565b61442c88826143b9565b9750614437836143e8565b925050600181019050614410565b5085925050509392505050565b6000602082019050818103600083015261446d8184866143f5565b90509392505050565b60008151905061448581613422565b92915050565b6000602082840312156144a1576144a06131e7565b5b60006144af84828501614476565b91505092915050565b7f4552433732313a206f776e657220717565727920666f72206e6f6e657869737460008201527f656e7420746f6b656e0000000000000000000000000000000000000000000000602082015250565b6000614514602983613372565b915061451f826144b8565b604082019050919050565b6000602082019050818103600083015261454381614507565b9050919050565b7f4552433732313a2062616c616e636520717565727920666f7220746865207a6560008201527f726f206164647265737300000000000000000000000000000000000000000000602082015250565b60006145a6602a83613372565b91506145b18261454a565b604082019050919050565b600060208201905081810360008301526145d581614599565b9050919050565b7f4f776e61626c653a2063616c6c6572206973206e6f7420746865206f776e6572600082015250565b6000614612602083613372565b915061461d826145dc565b602082019050919050565b6000602082019050818103600083015261464181614605565b9050919050565b7f4e487b7100000000000000000000000000000000000000000000000000000000600052603260045260246000fd5b7f4552433732314d657461646174613a2055524920717565727920666f72206e6f60008201527f6e6578697374656e7420746f6b656e0000000000000000000000000000000000602082015250565b60006146d3602f83613372565b91506146de82614677565b604082019050919050565b60006020820190508181036000830152614702816146c6565b9050919050565b600081905092915050565b7f7b226e616d65223a220000000000000000000000000000000000000000000000600082015250565b600061474a600983614709565b915061475582614714565b600982019050919050565b600061476b82613367565b6147758185614709565b9350614785818560208601613383565b80840191505092915050565b7f202d20506c6f7420000000000000000000000000000000000000000000000000600082015250565b60006147c7600883614709565b91506147d282614791565b600882019050919050565b7f222c20226465736372697074696f6e223a224120506c6f74206f66204e6f6c6160008201527f6e6469616e204d6574616c616e64222c20000000000000000000000000000000602082015250565b6000614839603183614709565b9150614844826147dd565b603182019050919050565b7f2261747472696275746573223a205b0000000000000000000000000000000000600082015250565b6000614885600f83614709565b91506148908261484f565b600f82019050919050565b7f7b2274726169745f74797065223a2022636f6f726431222c202276616c75652260008201527f3a205b31302c2031305d7d2c0000000000000000000000000000000000000000602082015250565b60006148f7602c83614709565b91506149028261489b565b602c82019050919050565b7f7b2274726169745f74797065223a2022636f6f726432222c202276616c75652260008201527f3a205b31312c2031315d7d2c0000000000000000000000000000000000000000602082015250565b6000614969602c83614709565b91506149748261490d565b602c82019050919050565b7f7b2274726169745f74797065223a2022746f74616c506978656c73222c20227660008201527f616c7565223a2036347d2c000000000000000000000000000000000000000000602082015250565b60006149db602b83614709565b91506149e68261497f565b602b82019050919050565b7f7b2274726169745f74797065223a20227465727261696e222c202276616c756560008201527f223a20226d6f756e7461696e227d000000000000000000000000000000000000602082015250565b6000614a4d602e83614709565b9150614a58826149f1565b602e82019050919050565b7f5d2c2022696d616765223a220000000000000000000000000000000000000000600082015250565b6000614a99600c83614709565b9150614aa482614a63565b600c82019050919050565b7f227d000000000000000000000000000000000000000000000000000000000000600082015250565b6000614ae5600283614709565b9150614af082614aaf565b600282019050919050565b6000614b068261473d565b9150614b128286614760565b9150614b1d826147ba565b9150614b298285614760565b9150614b348261482c565b9150614b3f82614878565b9150614b4a826148ea565b9150614b558261495c565b9150614b60826149ce565b9150614b6b82614a40565b9150614b7682614a8c565b9150614b828284614760565b9150614b8d82614ad8565b9150819050949350505050565b6000614ba68285614760565b9150614bb28284614760565b91508190509392505050565b7f4f776e61626c653a206e6577206f776e657220697320746865207a65726f206160008201527f6464726573730000000000000000000000000000000000000000000000000000602082015250565b6000614c1a602683613372565b9150614c2582614bbe565b604082019050919050565b60006020820190508181036000830152614c4981614c0d565b9050919050565b6000614c5b826131f1565b915060ff821415614c6f57614c6e613b66565b5b600182019050919050565b7f4e487b7100000000000000000000000000000000000000000000000000000000600052601260045260246000fd5b6000614cb48261319b565b9150614cbf8361319b565b925082614ccf57614cce614c7a565b5b828204905092915050565b6000614ce58261319b565b9150614cf08361319b565b925082821015614d0357614d02613b66565b5b828203905092915050565b7f416464726573733a20696e73756666696369656e742062616c616e6365000000600082015250565b6000614d44601d83613372565b9150614d4f82614d0e565b602082019050919050565b60006020820190508181036000830152614d7381614d37565b9050919050565b600081905092915050565b50565b6000614d95600083614d7a565b9150614da082614d85565b600082019050919050565b6000614db682614d88565b9150819050919050565b7f416464726573733a20756e61626c6520746f2073656e642076616c75652c207260008201527f6563697069656e74206d61792068617665207265766572746564000000000000602082015250565b6000614e1c603a83613372565b9150614e2782614dc0565b604082019050919050565b60006020820190508181036000830152614e4b81614e0f565b9050919050565b7f4552433732313a206f70657261746f7220717565727920666f72206e6f6e657860008201527f697374656e7420746f6b656e0000000000000000000000000000000000000000602082015250565b6000614eae602c83613372565b9150614eb982614e52565b604082019050919050565b60006020820190508181036000830152614edd81614ea1565b9050919050565b7f4552433732313a207472616e736665722066726f6d20696e636f72726563742060008201527f6f776e6572000000000000000000000000000000000000000000000000000000602082015250565b6000614f40602583613372565b9150614f4b82614ee4565b604082019050919050565b60006020820190508181036000830152614f6f81614f33565b9050919050565b7f4552433732313a207472616e7366657220746f20746865207a65726f2061646460008201527f7265737300000000000000000000000000000000000000000000000000000000602082015250565b6000614fd2602483613372565b9150614fdd82614f76565b604082019050919050565b6000602082019050818103600083015261500181614fc5565b9050919050565b7f4552433732313a20617070726f766520746f2063616c6c657200000000000000600082015250565b600061503e601983613372565b915061504982615008565b602082019050919050565b6000602082019050818103600083015261506d81615031565b9050919050565b7f4552433732313a207472616e7366657220746f206e6f6e20455243373231526560008201527f63656976657220696d706c656d656e7465720000000000000000000000000000602082015250565b60006150d0603283613372565b91506150db82615074565b604082019050919050565b600060208201905081810360008301526150ff816150c3565b9050919050565b60006151118261319b565b91507fffffffffffffffffffffffffffffffffffffffffffffffffffffffffffffffff82141561514457615143613b66565b5b600182019050919050565b600061515a8261319b565b91506151658361319b565b92508261517557615174614c7a565b5b828206905092915050565b60008151905061518f81613770565b92915050565b6000602082840312156151ab576151aa6131e7565b5b60006151b984828501615180565b91505092915050565b7f5361666545524332303a204552433230206f7065726174696f6e20646964206e60008201527f6f74207375636365656400000000000000000000000000000000000000000000602082015250565b600061521e602a83613372565b9150615229826151c2565b604082019050919050565b6000602082019050818103600083015261524d81615211565b9050919050565b600081519050919050565b600082825260208201905092915050565b600061527b82615254565b615285818561525f565b9350615295818560208601613383565b61529e816133b6565b840191505092915050565b60006080820190506152be600083018761318c565b6152cb602083018661318c565b6152d860408301856131a5565b81810360608301526152ea8184615270565b905095945050505050565b600081519050615304816132d8565b92915050565b6000602082840312156153205761531f6131e7565b5b600061532e848285016152f5565b91505092915050565b7f4552433732313a206d696e7420746f20746865207a65726f2061646472657373600082015250565b600061536d602083613372565b915061537882615337565b602082019050919050565b6000602082019050818103600083015261539c81615360565b9050919050565b7f4552433732313a20746f6b656e20616c7265616479206d696e74656400000000600082015250565b60006153d9601c83613372565b91506153e4826153a3565b602082019050919050565b60006020820190508181036000830152615408816153cc565b9050919050565b7f416464726573733a20696e73756666696369656e742062616c616e636520666f60008201527f722063616c6c0000000000000000000000000000000000000000000000000000602082015250565b600061546b602683613372565b91506154768261540f565b604082019050919050565b6000602082019050818103600083015261549a8161545e565b9050919050565b7f416464726573733a2063616c6c20746f206e6f6e2d636f6e7472616374000000600082015250565b60006154d7601d83613372565b91506154e2826154a1565b602082019050919050565b60006020820190508181036000830152615506816154ca565b9050919050565b600061551882615254565b6155228185614d7a565b9350615532818560208601613383565b80840191505092915050565b600061554a828461550d565b91508190509291505056fe4142434445464748494a4b4c4d4e4f505152535455565758595a6162636465666768696a6b6c6d6e6f707172737475767778797a303132333435363738392b2fa2646970667358221220302be0efd60fa959194b6da0b8ef8db720b167dfc6c0b6c2ef10a59a59a61dea64736f6c63430008090033",
  "linkReferences": {},
  "deployedLinkReferences": {}
}